{
  "_format": "hh-sol-artifact-1",
  "contractName": "Master",
  "sourceName": "contracts/cores/Master.sol",
  "abi": [
    {
      "inputs": [
        {
          "internalType": "address",
          "name": "_couponAddress",
          "type": "address"
        },
        {
          "internalType": "address",
          "name": "_brandMetadataAddress",
          "type": "address"
        },
        {
          "internalType": "address",
          "name": "_contractFactoryAddress",
          "type": "address"
        }
      ],
      "stateMutability": "nonpayable",
      "type": "constructor"
    },
    {
      "inputs": [],
      "name": "AccessControlBadConfirmation",
      "type": "error"
    },
    {
      "inputs": [
        {
          "internalType": "address",
          "name": "account",
          "type": "address"
        },
        {
          "internalType": "bytes32",
          "name": "neededRole",
          "type": "bytes32"
        }
      ],
      "name": "AccessControlUnauthorizedAccount",
      "type": "error"
    },
    {
      "inputs": [
        {
          "internalType": "address",
          "name": "owner",
          "type": "address"
        }
      ],
      "name": "OwnableInvalidOwner",
      "type": "error"
    },
    {
      "inputs": [
        {
          "internalType": "address",
          "name": "account",
          "type": "address"
        }
      ],
      "name": "OwnableUnauthorizedAccount",
      "type": "error"
    },
    {
      "anonymous": false,
      "inputs": [
        {
          "indexed": true,
          "internalType": "address",
          "name": "previousOwner",
          "type": "address"
        },
        {
          "indexed": true,
          "internalType": "address",
          "name": "newOwner",
          "type": "address"
        }
      ],
      "name": "OwnershipTransferred",
      "type": "event"
    },
    {
      "anonymous": false,
      "inputs": [
        {
          "indexed": true,
          "internalType": "bytes32",
          "name": "role",
          "type": "bytes32"
        },
        {
          "indexed": true,
          "internalType": "bytes32",
          "name": "previousAdminRole",
          "type": "bytes32"
        },
        {
          "indexed": true,
          "internalType": "bytes32",
          "name": "newAdminRole",
          "type": "bytes32"
        }
      ],
      "name": "RoleAdminChanged",
      "type": "event"
    },
    {
      "anonymous": false,
      "inputs": [
        {
          "indexed": true,
          "internalType": "bytes32",
          "name": "role",
          "type": "bytes32"
        },
        {
          "indexed": true,
          "internalType": "address",
          "name": "account",
          "type": "address"
        },
        {
          "indexed": true,
          "internalType": "address",
          "name": "sender",
          "type": "address"
        }
      ],
      "name": "RoleGranted",
      "type": "event"
    },
    {
      "anonymous": false,
      "inputs": [
        {
          "indexed": true,
          "internalType": "bytes32",
          "name": "role",
          "type": "bytes32"
        },
        {
          "indexed": true,
          "internalType": "address",
          "name": "account",
          "type": "address"
        },
        {
          "indexed": true,
          "internalType": "address",
          "name": "sender",
          "type": "address"
        }
      ],
      "name": "RoleRevoked",
      "type": "event"
    },
    {
      "inputs": [],
      "name": "DEFAULT_ADMIN_ROLE",
      "outputs": [
        {
          "internalType": "bytes32",
          "name": "",
          "type": "bytes32"
        }
      ],
      "stateMutability": "view",
      "type": "function"
    },
    {
      "inputs": [
        {
          "internalType": "address",
          "name": "_brandWallet",
          "type": "address"
        }
      ],
      "name": "approveBrand",
      "outputs": [],
      "stateMutability": "nonpayable",
      "type": "function"
    },
    {
      "inputs": [
        {
          "internalType": "bytes32",
          "name": "role",
          "type": "bytes32"
        }
      ],
      "name": "getRoleAdmin",
      "outputs": [
        {
          "internalType": "bytes32",
          "name": "",
          "type": "bytes32"
        }
      ],
      "stateMutability": "view",
      "type": "function"
    },
    {
      "inputs": [
        {
          "internalType": "bytes32",
          "name": "role",
          "type": "bytes32"
        },
        {
          "internalType": "address",
          "name": "account",
          "type": "address"
        }
      ],
      "name": "grantRole",
      "outputs": [],
      "stateMutability": "nonpayable",
      "type": "function"
    },
    {
      "inputs": [
        {
          "internalType": "bytes32",
          "name": "role",
          "type": "bytes32"
        },
        {
          "internalType": "address",
          "name": "account",
          "type": "address"
        }
      ],
      "name": "hasRole",
      "outputs": [
        {
          "internalType": "bool",
          "name": "",
          "type": "bool"
        }
      ],
      "stateMutability": "view",
      "type": "function"
    },
    {
      "inputs": [
        {
          "internalType": "address",
          "name": "_to",
          "type": "address"
        },
        {
          "internalType": "uint256",
          "name": "amount",
          "type": "uint256"
        }
      ],
      "name": "mintCoupon",
      "outputs": [],
      "stateMutability": "nonpayable",
      "type": "function"
    },
    {
      "inputs": [],
      "name": "owner",
      "outputs": [
        {
          "internalType": "address",
          "name": "",
          "type": "address"
        }
      ],
      "stateMutability": "view",
      "type": "function"
    },
    {
      "inputs": [
        {
          "internalType": "string",
          "name": "_brandName",
          "type": "string"
        },
        {
          "internalType": "string",
          "name": "_nftSymbol",
          "type": "string"
        },
        {
          "internalType": "address",
          "name": "_brandWallet",
          "type": "address"
        },
        {
          "internalType": "string",
          "name": "_uri",
          "type": "string"
        }
      ],
      "name": "registerBrand",
      "outputs": [],
      "stateMutability": "nonpayable",
      "type": "function"
    },
    {
      "inputs": [],
      "name": "renounceOwnership",
      "outputs": [],
      "stateMutability": "nonpayable",
      "type": "function"
    },
    {
      "inputs": [
        {
          "internalType": "bytes32",
          "name": "role",
          "type": "bytes32"
        },
        {
          "internalType": "address",
          "name": "callerConfirmation",
          "type": "address"
        }
      ],
      "name": "renounceRole",
      "outputs": [],
      "stateMutability": "nonpayable",
      "type": "function"
    },
    {
      "inputs": [
        {
          "internalType": "bytes32",
          "name": "role",
          "type": "bytes32"
        },
        {
          "internalType": "address",
          "name": "account",
          "type": "address"
        }
      ],
      "name": "revokeRole",
      "outputs": [],
      "stateMutability": "nonpayable",
      "type": "function"
    },
    {
      "inputs": [
        {
          "internalType": "bytes4",
          "name": "interfaceId",
          "type": "bytes4"
        }
      ],
      "name": "supportsInterface",
      "outputs": [
        {
          "internalType": "bool",
          "name": "",
          "type": "bool"
        }
      ],
      "stateMutability": "view",
      "type": "function"
    },
    {
      "inputs": [
        {
          "internalType": "address",
          "name": "newOwner",
          "type": "address"
        }
      ],
      "name": "transferOwnership",
      "outputs": [],
      "stateMutability": "nonpayable",
      "type": "function"
    }
  ],
  "bytecode": "0x608060405234801561001057600080fd5b506040516118e73803806118e78339818101604052810190610032919061046c565b33600073ffffffffffffffffffffffffffffffffffffffff168173ffffffffffffffffffffffffffffffffffffffff16036100a55760006040517f1e4fbdf700000000000000000000000000000000000000000000000000000000815260040161009c91906104ce565b60405180910390fd5b6100b4816101d560201b60201c565b506100c86000801b3361029960201b60201c565b5082600260006101000a81548173ffffffffffffffffffffffffffffffffffffffff021916908373ffffffffffffffffffffffffffffffffffffffff16021790555081600360006101000a81548173ffffffffffffffffffffffffffffffffffffffff021916908373ffffffffffffffffffffffffffffffffffffffff16021790555080600460006101000a81548173ffffffffffffffffffffffffffffffffffffffff021916908373ffffffffffffffffffffffffffffffffffffffff16021790555082600560006101000a81548173ffffffffffffffffffffffffffffffffffffffff021916908373ffffffffffffffffffffffffffffffffffffffff1602179055505050506104e9565b60008060009054906101000a900473ffffffffffffffffffffffffffffffffffffffff169050816000806101000a81548173ffffffffffffffffffffffffffffffffffffffff021916908373ffffffffffffffffffffffffffffffffffffffff1602179055508173ffffffffffffffffffffffffffffffffffffffff168173ffffffffffffffffffffffffffffffffffffffff167f8be0079c531659141344cd1fd0a4f28419497f9722a3daafe3b4186f6b6457e060405160405180910390a35050565b60006102ab838361039660201b60201c565b61038b57600180600085815260200190815260200160002060000160008473ffffffffffffffffffffffffffffffffffffffff1673ffffffffffffffffffffffffffffffffffffffff16815260200190815260200160002060006101000a81548160ff02191690831515021790555061032861040160201b60201c565b73ffffffffffffffffffffffffffffffffffffffff168273ffffffffffffffffffffffffffffffffffffffff16847f2f8788117e7eff1d82e926ec794901d17c78024a50270940304540a733656f0d60405160405180910390a460019050610390565b600090505b92915050565b60006001600084815260200190815260200160002060000160008373ffffffffffffffffffffffffffffffffffffffff1673ffffffffffffffffffffffffffffffffffffffff16815260200190815260200160002060009054906101000a900460ff16905092915050565b600033905090565b600080fd5b600073ffffffffffffffffffffffffffffffffffffffff82169050919050565b60006104398261040e565b9050919050565b6104498161042e565b811461045457600080fd5b50565b60008151905061046681610440565b92915050565b60008060006060848603121561048557610484610409565b5b600061049386828701610457565b93505060206104a486828701610457565b92505060406104b586828701610457565b9150509250925092565b6104c88161042e565b82525050565b60006020820190506104e360008301846104bf565b92915050565b6113ef806104f86000396000f3fe608060405234801561001057600080fd5b50600436106100cf5760003560e01c8063715018a61161008c578063a217fddf11610066578063a217fddf146101fc578063d4d530961461021a578063d547741f14610236578063f2fde38b14610252576100cf565b8063715018a6146101a45780638da5cb5b146101ae57806391d14854146101cc576100cf565b806301ffc9a7146100d4578063248a9ca3146101045780632f2ff15d1461013457806336568abe1461015057806340ad009b1461016c578063510ffe1414610188575b600080fd5b6100ee60048036038101906100e99190610d2f565b61026e565b6040516100fb9190610d77565b60405180910390f35b61011e60048036038101906101199190610dc8565b6102e8565b60405161012b9190610e04565b60405180910390f35b61014e60048036038101906101499190610e7d565b610308565b005b61016a60048036038101906101659190610e7d565b61032a565b005b61018660048036038101906101819190611003565b6103a5565b005b6101a2600480360381019061019d91906110f4565b6104cb565b005b6101ac61056c565b005b6101b6610580565b6040516101c39190611143565b60405180910390f35b6101e660048036038101906101e19190610e7d565b6105a9565b6040516101f39190610d77565b60405180910390f35b610204610614565b6040516102119190610e04565b60405180910390f35b610234600480360381019061022f919061115e565b61061b565b005b610250600480360381019061024b9190610e7d565b610815565b005b61026c6004803603810190610267919061115e565b610837565b005b60007f7965db0b000000000000000000000000000000000000000000000000000000007bffffffffffffffffffffffffffffffffffffffffffffffffffffffff1916827bffffffffffffffffffffffffffffffffffffffffffffffffffffffff191614806102e157506102e0826108bd565b5b9050919050565b600060016000838152602001908152602001600020600101549050919050565b610311826102e8565b61031a81610927565b610324838361093b565b50505050565b610332610a2c565b73ffffffffffffffffffffffffffffffffffffffff168173ffffffffffffffffffffffffffffffffffffffff1614610396576040517f6697b23200000000000000000000000000000000000000000000000000000000815260040160405180910390fd5b6103a08282610a34565b505050565b600460009054906101000a900473ffffffffffffffffffffffffffffffffffffffff1673ffffffffffffffffffffffffffffffffffffffff1663429103798585856040518463ffffffff1660e01b81526004016104049392919061120a565b600060405180830381600087803b15801561041e57600080fd5b505af1158015610432573d6000803e3d6000fd5b50505050600360009054906101000a900473ffffffffffffffffffffffffffffffffffffffff1673ffffffffffffffffffffffffffffffffffffffff1663d0def52183836040518363ffffffff1660e01b815260040161049392919061124f565b600060405180830381600087803b1580156104ad57600080fd5b505af11580156104c1573d6000803e3d6000fd5b5050505050505050565b6000801b6104d881610927565b600260009054906101000a900473ffffffffffffffffffffffffffffffffffffffff1673ffffffffffffffffffffffffffffffffffffffff1663510ffe1484846040518363ffffffff1660e01b815260040161053592919061128e565b600060405180830381600087803b15801561054f57600080fd5b505af1158015610563573d6000803e3d6000fd5b50505050505050565b610574610b27565b61057e6000610bae565b565b60008060009054906101000a900473ffffffffffffffffffffffffffffffffffffffff16905090565b60006001600084815260200190815260200160002060000160008373ffffffffffffffffffffffffffffffffffffffff1673ffffffffffffffffffffffffffffffffffffffff16815260200190815260200160002060009054906101000a900460ff16905092915050565b6000801b81565b6000801b61062881610927565b6000600460009054906101000a900473ffffffffffffffffffffffffffffffffffffffff1673ffffffffffffffffffffffffffffffffffffffff1663c88eac6d84600560009054906101000a900473ffffffffffffffffffffffffffffffffffffffff166040518363ffffffff1660e01b81526004016106a99291906112b7565b6020604051808303816000875af11580156106c8573d6000803e3d6000fd5b505050506040513d601f19601f820116820180604052508101906106ec91906112f5565b9050600260009054906101000a900473ffffffffffffffffffffffffffffffffffffffff1673ffffffffffffffffffffffffffffffffffffffff1663510ffe1482601e6040518363ffffffff1660e01b815260040161074c929190611367565b600060405180830381600087803b15801561076657600080fd5b505af115801561077a573d6000803e3d6000fd5b50505050600260009054906101000a900473ffffffffffffffffffffffffffffffffffffffff1673ffffffffffffffffffffffffffffffffffffffff16632f2ff15d6000801b836040518363ffffffff1660e01b81526004016107de929190611390565b600060405180830381600087803b1580156107f857600080fd5b505af115801561080c573d6000803e3d6000fd5b50505050505050565b61081e826102e8565b61082781610927565b6108318383610a34565b50505050565b61083f610b27565b600073ffffffffffffffffffffffffffffffffffffffff168173ffffffffffffffffffffffffffffffffffffffff16036108b15760006040517f1e4fbdf70000000000000000000000000000000000000000000000000000000081526004016108a89190611143565b60405180910390fd5b6108ba81610bae565b50565b60007f01ffc9a7000000000000000000000000000000000000000000000000000000007bffffffffffffffffffffffffffffffffffffffffffffffffffffffff1916827bffffffffffffffffffffffffffffffffffffffffffffffffffffffff1916149050919050565b61093881610933610a2c565b610c72565b50565b600061094783836105a9565b610a2157600180600085815260200190815260200160002060000160008473ffffffffffffffffffffffffffffffffffffffff1673ffffffffffffffffffffffffffffffffffffffff16815260200190815260200160002060006101000a81548160ff0219169083151502179055506109be610a2c565b73ffffffffffffffffffffffffffffffffffffffff168273ffffffffffffffffffffffffffffffffffffffff16847f2f8788117e7eff1d82e926ec794901d17c78024a50270940304540a733656f0d60405160405180910390a460019050610a26565b600090505b92915050565b600033905090565b6000610a4083836105a9565b15610b1c5760006001600085815260200190815260200160002060000160008473ffffffffffffffffffffffffffffffffffffffff1673ffffffffffffffffffffffffffffffffffffffff16815260200190815260200160002060006101000a81548160ff021916908315150217905550610ab9610a2c565b73ffffffffffffffffffffffffffffffffffffffff168273ffffffffffffffffffffffffffffffffffffffff16847ff6391f5c32d9c69d2a47ea670b442974b53935d1edc7fd64eb21e047a839171b60405160405180910390a460019050610b21565b600090505b92915050565b610b2f610a2c565b73ffffffffffffffffffffffffffffffffffffffff16610b4d610580565b73ffffffffffffffffffffffffffffffffffffffff1614610bac57610b70610a2c565b6040517f118cdaa7000000000000000000000000000000000000000000000000000000008152600401610ba39190611143565b60405180910390fd5b565b60008060009054906101000a900473ffffffffffffffffffffffffffffffffffffffff169050816000806101000a81548173ffffffffffffffffffffffffffffffffffffffff021916908373ffffffffffffffffffffffffffffffffffffffff1602179055508173ffffffffffffffffffffffffffffffffffffffff168173ffffffffffffffffffffffffffffffffffffffff167f8be0079c531659141344cd1fd0a4f28419497f9722a3daafe3b4186f6b6457e060405160405180910390a35050565b610c7c82826105a9565b610cbf5780826040517fe2517d3f000000000000000000000000000000000000000000000000000000008152600401610cb69291906113b9565b60405180910390fd5b5050565b6000604051905090565b600080fd5b600080fd5b60007fffffffff0000000000000000000000000000000000000000000000000000000082169050919050565b610d0c81610cd7565b8114610d1757600080fd5b50565b600081359050610d2981610d03565b92915050565b600060208284031215610d4557610d44610ccd565b5b6000610d5384828501610d1a565b91505092915050565b60008115159050919050565b610d7181610d5c565b82525050565b6000602082019050610d8c6000830184610d68565b92915050565b6000819050919050565b610da581610d92565b8114610db057600080fd5b50565b600081359050610dc281610d9c565b92915050565b600060208284031215610dde57610ddd610ccd565b5b6000610dec84828501610db3565b91505092915050565b610dfe81610d92565b82525050565b6000602082019050610e196000830184610df5565b92915050565b600073ffffffffffffffffffffffffffffffffffffffff82169050919050565b6000610e4a82610e1f565b9050919050565b610e5a81610e3f565b8114610e6557600080fd5b50565b600081359050610e7781610e51565b92915050565b60008060408385031215610e9457610e93610ccd565b5b6000610ea285828601610db3565b9250506020610eb385828601610e68565b9150509250929050565b600080fd5b600080fd5b6000601f19601f8301169050919050565b7f4e487b7100000000000000000000000000000000000000000000000000000000600052604160045260246000fd5b610f1082610ec7565b810181811067ffffffffffffffff82111715610f2f57610f2e610ed8565b5b80604052505050565b6000610f42610cc3565b9050610f4e8282610f07565b919050565b600067ffffffffffffffff821115610f6e57610f6d610ed8565b5b610f7782610ec7565b9050602081019050919050565b82818337600083830152505050565b6000610fa6610fa184610f53565b610f38565b905082815260208101848484011115610fc257610fc1610ec2565b5b610fcd848285610f84565b509392505050565b600082601f830112610fea57610fe9610ebd565b5b8135610ffa848260208601610f93565b91505092915050565b6000806000806080858703121561101d5761101c610ccd565b5b600085013567ffffffffffffffff81111561103b5761103a610cd2565b5b61104787828801610fd5565b945050602085013567ffffffffffffffff81111561106857611067610cd2565b5b61107487828801610fd5565b935050604061108587828801610e68565b925050606085013567ffffffffffffffff8111156110a6576110a5610cd2565b5b6110b287828801610fd5565b91505092959194509250565b6000819050919050565b6110d1816110be565b81146110dc57600080fd5b50565b6000813590506110ee816110c8565b92915050565b6000806040838503121561110b5761110a610ccd565b5b600061111985828601610e68565b925050602061112a858286016110df565b9150509250929050565b61113d81610e3f565b82525050565b60006020820190506111586000830184611134565b92915050565b60006020828403121561117457611173610ccd565b5b600061118284828501610e68565b91505092915050565b600081519050919050565b600082825260208201905092915050565b60005b838110156111c55780820151818401526020810190506111aa565b60008484015250505050565b60006111dc8261118b565b6111e68185611196565b93506111f68185602086016111a7565b6111ff81610ec7565b840191505092915050565b6000606082019050818103600083015261122481866111d1565b9050818103602083015261123881856111d1565b90506112476040830184611134565b949350505050565b60006040820190506112646000830185611134565b818103602083015261127681846111d1565b90509392505050565b611288816110be565b82525050565b60006040820190506112a36000830185611134565b6112b0602083018461127f565b9392505050565b60006040820190506112cc6000830185611134565b6112d96020830184611134565b9392505050565b6000815190506112ef81610e51565b92915050565b60006020828403121561130b5761130a610ccd565b5b6000611319848285016112e0565b91505092915050565b6000819050919050565b6000819050919050565b600061135161134c61134784611322565b61132c565b6110be565b9050919050565b61136181611336565b82525050565b600060408201905061137c6000830185611134565b6113896020830184611358565b9392505050565b60006040820190506113a56000830185610df5565b6113b26020830184611134565b9392505050565b60006040820190506113ce6000830185611134565b6113db6020830184610df5565b939250505056fea164736f6c634300081c000a",
  "linkReferences": {},
  "deployedLinkReferences": {}
}