{
  "_format": "hh-sol-artifact-1",
  "contractName": "Master",
  "sourceName": "contracts/cores/Master.sol",
  "abi": [
    {
      "inputs": [
        {
          "internalType": "address",
          "name": "_couponAddress",
          "type": "address"
        },
        {
          "internalType": "address",
          "name": "_brandMetadataAddress",
          "type": "address"
        },
        {
          "internalType": "address",
          "name": "_contractFactoryAddress",
          "type": "address"
        }
      ],
      "stateMutability": "nonpayable",
      "type": "constructor"
    },
    {
      "inputs": [],
      "name": "AccessControlBadConfirmation",
      "type": "error"
    },
    {
      "inputs": [
        {
          "internalType": "address",
          "name": "account",
          "type": "address"
        },
        {
          "internalType": "bytes32",
          "name": "neededRole",
          "type": "bytes32"
        }
      ],
      "name": "AccessControlUnauthorizedAccount",
      "type": "error"
    },
    {
      "inputs": [
        {
          "internalType": "address",
          "name": "owner",
          "type": "address"
        }
      ],
      "name": "OwnableInvalidOwner",
      "type": "error"
    },
    {
      "inputs": [
        {
          "internalType": "address",
          "name": "account",
          "type": "address"
        }
      ],
      "name": "OwnableUnauthorizedAccount",
      "type": "error"
    },
    {
      "anonymous": false,
      "inputs": [
        {
          "indexed": true,
          "internalType": "address",
          "name": "previousOwner",
          "type": "address"
        },
        {
          "indexed": true,
          "internalType": "address",
          "name": "newOwner",
          "type": "address"
        }
      ],
      "name": "OwnershipTransferred",
      "type": "event"
    },
    {
      "anonymous": false,
      "inputs": [
        {
          "indexed": true,
          "internalType": "bytes32",
          "name": "role",
          "type": "bytes32"
        },
        {
          "indexed": true,
          "internalType": "bytes32",
          "name": "previousAdminRole",
          "type": "bytes32"
        },
        {
          "indexed": true,
          "internalType": "bytes32",
          "name": "newAdminRole",
          "type": "bytes32"
        }
      ],
      "name": "RoleAdminChanged",
      "type": "event"
    },
    {
      "anonymous": false,
      "inputs": [
        {
          "indexed": true,
          "internalType": "bytes32",
          "name": "role",
          "type": "bytes32"
        },
        {
          "indexed": true,
          "internalType": "address",
          "name": "account",
          "type": "address"
        },
        {
          "indexed": true,
          "internalType": "address",
          "name": "sender",
          "type": "address"
        }
      ],
      "name": "RoleGranted",
      "type": "event"
    },
    {
      "anonymous": false,
      "inputs": [
        {
          "indexed": true,
          "internalType": "bytes32",
          "name": "role",
          "type": "bytes32"
        },
        {
          "indexed": true,
          "internalType": "address",
          "name": "account",
          "type": "address"
        },
        {
          "indexed": true,
          "internalType": "address",
          "name": "sender",
          "type": "address"
        }
      ],
      "name": "RoleRevoked",
      "type": "event"
    },
    {
      "inputs": [],
      "name": "DEFAULT_ADMIN_ROLE",
      "outputs": [
        {
          "internalType": "bytes32",
          "name": "",
          "type": "bytes32"
        }
      ],
      "stateMutability": "view",
      "type": "function"
    },
    {
      "inputs": [
        {
          "internalType": "address",
          "name": "_brandWallet",
          "type": "address"
        },
        {
          "internalType": "address",
          "name": "_minterWallet",
          "type": "address"
        }
      ],
      "name": "approveBrand",
      "outputs": [],
      "stateMutability": "nonpayable",
      "type": "function"
    },
    {
      "inputs": [
        {
          "internalType": "bytes32",
          "name": "role",
          "type": "bytes32"
        }
      ],
      "name": "getRoleAdmin",
      "outputs": [
        {
          "internalType": "bytes32",
          "name": "",
          "type": "bytes32"
        }
      ],
      "stateMutability": "view",
      "type": "function"
    },
    {
      "inputs": [
        {
          "internalType": "bytes32",
          "name": "role",
          "type": "bytes32"
        },
        {
          "internalType": "address",
          "name": "account",
          "type": "address"
        }
      ],
      "name": "grantRole",
      "outputs": [],
      "stateMutability": "nonpayable",
      "type": "function"
    },
    {
      "inputs": [
        {
          "internalType": "bytes32",
          "name": "role",
          "type": "bytes32"
        },
        {
          "internalType": "address",
          "name": "account",
          "type": "address"
        }
      ],
      "name": "hasRole",
      "outputs": [
        {
          "internalType": "bool",
          "name": "",
          "type": "bool"
        }
      ],
      "stateMutability": "view",
      "type": "function"
    },
    {
      "inputs": [
        {
          "internalType": "address",
          "name": "_to",
          "type": "address"
        },
        {
          "internalType": "uint256",
          "name": "amount",
          "type": "uint256"
        }
      ],
      "name": "mintCoupon",
      "outputs": [],
      "stateMutability": "nonpayable",
      "type": "function"
    },
    {
      "inputs": [],
      "name": "owner",
      "outputs": [
        {
          "internalType": "address",
          "name": "",
          "type": "address"
        }
      ],
      "stateMutability": "view",
      "type": "function"
    },
    {
      "inputs": [
        {
          "internalType": "string",
          "name": "_brandName",
          "type": "string"
        },
        {
          "internalType": "string",
          "name": "_nftSymbol",
          "type": "string"
        },
        {
          "internalType": "address",
          "name": "_brandWallet",
          "type": "address"
        },
        {
          "internalType": "string",
          "name": "_uri",
          "type": "string"
        }
      ],
      "name": "registerBrand",
      "outputs": [],
      "stateMutability": "nonpayable",
      "type": "function"
    },
    {
      "inputs": [],
      "name": "renounceOwnership",
      "outputs": [],
      "stateMutability": "nonpayable",
      "type": "function"
    },
    {
      "inputs": [
        {
          "internalType": "bytes32",
          "name": "role",
          "type": "bytes32"
        },
        {
          "internalType": "address",
          "name": "callerConfirmation",
          "type": "address"
        }
      ],
      "name": "renounceRole",
      "outputs": [],
      "stateMutability": "nonpayable",
      "type": "function"
    },
    {
      "inputs": [
        {
          "internalType": "bytes32",
          "name": "role",
          "type": "bytes32"
        },
        {
          "internalType": "address",
          "name": "account",
          "type": "address"
        }
      ],
      "name": "revokeRole",
      "outputs": [],
      "stateMutability": "nonpayable",
      "type": "function"
    },
    {
      "inputs": [
        {
          "internalType": "bytes4",
          "name": "interfaceId",
          "type": "bytes4"
        }
      ],
      "name": "supportsInterface",
      "outputs": [
        {
          "internalType": "bool",
          "name": "",
          "type": "bool"
        }
      ],
      "stateMutability": "view",
      "type": "function"
    },
    {
      "inputs": [
        {
          "internalType": "address",
          "name": "newOwner",
          "type": "address"
        }
      ],
      "name": "transferOwnership",
      "outputs": [],
      "stateMutability": "nonpayable",
      "type": "function"
    }
  ],
  "bytecode": "0x608060405234801561001057600080fd5b506040516119383803806119388339818101604052810190610032919061046c565b33600073ffffffffffffffffffffffffffffffffffffffff168173ffffffffffffffffffffffffffffffffffffffff16036100a55760006040517f1e4fbdf700000000000000000000000000000000000000000000000000000000815260040161009c91906104ce565b60405180910390fd5b6100b4816101d560201b60201c565b506100c86000801b3361029960201b60201c565b5082600260006101000a81548173ffffffffffffffffffffffffffffffffffffffff021916908373ffffffffffffffffffffffffffffffffffffffff16021790555081600360006101000a81548173ffffffffffffffffffffffffffffffffffffffff021916908373ffffffffffffffffffffffffffffffffffffffff16021790555080600460006101000a81548173ffffffffffffffffffffffffffffffffffffffff021916908373ffffffffffffffffffffffffffffffffffffffff16021790555082600560006101000a81548173ffffffffffffffffffffffffffffffffffffffff021916908373ffffffffffffffffffffffffffffffffffffffff1602179055505050506104e9565b60008060009054906101000a900473ffffffffffffffffffffffffffffffffffffffff169050816000806101000a81548173ffffffffffffffffffffffffffffffffffffffff021916908373ffffffffffffffffffffffffffffffffffffffff1602179055508173ffffffffffffffffffffffffffffffffffffffff168173ffffffffffffffffffffffffffffffffffffffff167f8be0079c531659141344cd1fd0a4f28419497f9722a3daafe3b4186f6b6457e060405160405180910390a35050565b60006102ab838361039660201b60201c565b61038b57600180600085815260200190815260200160002060000160008473ffffffffffffffffffffffffffffffffffffffff1673ffffffffffffffffffffffffffffffffffffffff16815260200190815260200160002060006101000a81548160ff02191690831515021790555061032861040160201b60201c565b73ffffffffffffffffffffffffffffffffffffffff168273ffffffffffffffffffffffffffffffffffffffff16847f2f8788117e7eff1d82e926ec794901d17c78024a50270940304540a733656f0d60405160405180910390a460019050610390565b600090505b92915050565b60006001600084815260200190815260200160002060000160008373ffffffffffffffffffffffffffffffffffffffff1673ffffffffffffffffffffffffffffffffffffffff16815260200190815260200160002060009054906101000a900460ff16905092915050565b600033905090565b600080fd5b600073ffffffffffffffffffffffffffffffffffffffff82169050919050565b60006104398261040e565b9050919050565b6104498161042e565b811461045457600080fd5b50565b60008151905061046681610440565b92915050565b60008060006060848603121561048557610484610409565b5b600061049386828701610457565b93505060206104a486828701610457565b92505060406104b586828701610457565b9150509250925092565b6104c88161042e565b82525050565b60006020820190506104e360008301846104bf565b92915050565b611440806104f86000396000f3fe608060405234801561001057600080fd5b50600436106100cf5760003560e01c8063715018a61161008c578063a217fddf11610066578063a217fddf146101fc578063c88eac6d1461021a578063d547741f14610236578063f2fde38b14610252576100cf565b8063715018a6146101a45780638da5cb5b146101ae57806391d14854146101cc576100cf565b806301ffc9a7146100d4578063248a9ca3146101045780632f2ff15d1461013457806336568abe1461015057806340ad009b1461016c578063510ffe1414610188575b600080fd5b6100ee60048036038101906100e99190610d32565b61026e565b6040516100fb9190610d7a565b60405180910390f35b61011e60048036038101906101199190610dcb565b6102e8565b60405161012b9190610e07565b60405180910390f35b61014e60048036038101906101499190610e80565b610308565b005b61016a60048036038101906101659190610e80565b61032a565b005b61018660048036038101906101819190611006565b6103a5565b005b6101a2600480360381019061019d91906110f7565b6104cb565b005b6101ac61056c565b005b6101b6610580565b6040516101c39190611146565b60405180910390f35b6101e660048036038101906101e19190610e80565b6105a9565b6040516101f39190610d7a565b60405180910390f35b610204610614565b6040516102119190610e07565b60405180910390f35b610234600480360381019061022f9190611161565b61061b565b005b610250600480360381019061024b9190610e80565b610818565b005b61026c600480360381019061026791906111a1565b61083a565b005b60007f7965db0b000000000000000000000000000000000000000000000000000000007bffffffffffffffffffffffffffffffffffffffffffffffffffffffff1916827bffffffffffffffffffffffffffffffffffffffffffffffffffffffff191614806102e157506102e0826108c0565b5b9050919050565b600060016000838152602001908152602001600020600101549050919050565b610311826102e8565b61031a8161092a565b610324838361093e565b50505050565b610332610a2f565b73ffffffffffffffffffffffffffffffffffffffff168173ffffffffffffffffffffffffffffffffffffffff1614610396576040517f6697b23200000000000000000000000000000000000000000000000000000000815260040160405180910390fd5b6103a08282610a37565b505050565b600460009054906101000a900473ffffffffffffffffffffffffffffffffffffffff1673ffffffffffffffffffffffffffffffffffffffff1663429103798585856040518463ffffffff1660e01b81526004016104049392919061124d565b600060405180830381600087803b15801561041e57600080fd5b505af1158015610432573d6000803e3d6000fd5b50505050600360009054906101000a900473ffffffffffffffffffffffffffffffffffffffff1673ffffffffffffffffffffffffffffffffffffffff1663d0def52183836040518363ffffffff1660e01b8152600401610493929190611292565b600060405180830381600087803b1580156104ad57600080fd5b505af11580156104c1573d6000803e3d6000fd5b5050505050505050565b6000801b6104d88161092a565b600260009054906101000a900473ffffffffffffffffffffffffffffffffffffffff1673ffffffffffffffffffffffffffffffffffffffff1663510ffe1484846040518363ffffffff1660e01b81526004016105359291906112d1565b600060405180830381600087803b15801561054f57600080fd5b505af1158015610563573d6000803e3d6000fd5b50505050505050565b610574610b2a565b61057e6000610bb1565b565b60008060009054906101000a900473ffffffffffffffffffffffffffffffffffffffff16905090565b60006001600084815260200190815260200160002060000160008373ffffffffffffffffffffffffffffffffffffffff1673ffffffffffffffffffffffffffffffffffffffff16815260200190815260200160002060009054906101000a900460ff16905092915050565b6000801b81565b6000801b6106288161092a565b6000600460009054906101000a900473ffffffffffffffffffffffffffffffffffffffff1673ffffffffffffffffffffffffffffffffffffffff1663eef08ec48585600560009054906101000a900473ffffffffffffffffffffffffffffffffffffffff166040518463ffffffff1660e01b81526004016106ab939291906112fa565b6020604051808303816000875af11580156106ca573d6000803e3d6000fd5b505050506040513d601f19601f820116820180604052508101906106ee9190611346565b9050600260009054906101000a900473ffffffffffffffffffffffffffffffffffffffff1673ffffffffffffffffffffffffffffffffffffffff1663510ffe1482601e6040518363ffffffff1660e01b815260040161074e9291906113b8565b600060405180830381600087803b15801561076857600080fd5b505af115801561077c573d6000803e3d6000fd5b50505050600260009054906101000a900473ffffffffffffffffffffffffffffffffffffffff1673ffffffffffffffffffffffffffffffffffffffff16632f2ff15d6000801b836040518363ffffffff1660e01b81526004016107e09291906113e1565b600060405180830381600087803b1580156107fa57600080fd5b505af115801561080e573d6000803e3d6000fd5b5050505050505050565b610821826102e8565b61082a8161092a565b6108348383610a37565b50505050565b610842610b2a565b600073ffffffffffffffffffffffffffffffffffffffff168173ffffffffffffffffffffffffffffffffffffffff16036108b45760006040517f1e4fbdf70000000000000000000000000000000000000000000000000000000081526004016108ab9190611146565b60405180910390fd5b6108bd81610bb1565b50565b60007f01ffc9a7000000000000000000000000000000000000000000000000000000007bffffffffffffffffffffffffffffffffffffffffffffffffffffffff1916827bffffffffffffffffffffffffffffffffffffffffffffffffffffffff1916149050919050565b61093b81610936610a2f565b610c75565b50565b600061094a83836105a9565b610a2457600180600085815260200190815260200160002060000160008473ffffffffffffffffffffffffffffffffffffffff1673ffffffffffffffffffffffffffffffffffffffff16815260200190815260200160002060006101000a81548160ff0219169083151502179055506109c1610a2f565b73ffffffffffffffffffffffffffffffffffffffff168273ffffffffffffffffffffffffffffffffffffffff16847f2f8788117e7eff1d82e926ec794901d17c78024a50270940304540a733656f0d60405160405180910390a460019050610a29565b600090505b92915050565b600033905090565b6000610a4383836105a9565b15610b1f5760006001600085815260200190815260200160002060000160008473ffffffffffffffffffffffffffffffffffffffff1673ffffffffffffffffffffffffffffffffffffffff16815260200190815260200160002060006101000a81548160ff021916908315150217905550610abc610a2f565b73ffffffffffffffffffffffffffffffffffffffff168273ffffffffffffffffffffffffffffffffffffffff16847ff6391f5c32d9c69d2a47ea670b442974b53935d1edc7fd64eb21e047a839171b60405160405180910390a460019050610b24565b600090505b92915050565b610b32610a2f565b73ffffffffffffffffffffffffffffffffffffffff16610b50610580565b73ffffffffffffffffffffffffffffffffffffffff1614610baf57610b73610a2f565b6040517f118cdaa7000000000000000000000000000000000000000000000000000000008152600401610ba69190611146565b60405180910390fd5b565b60008060009054906101000a900473ffffffffffffffffffffffffffffffffffffffff169050816000806101000a81548173ffffffffffffffffffffffffffffffffffffffff021916908373ffffffffffffffffffffffffffffffffffffffff1602179055508173ffffffffffffffffffffffffffffffffffffffff168173ffffffffffffffffffffffffffffffffffffffff167f8be0079c531659141344cd1fd0a4f28419497f9722a3daafe3b4186f6b6457e060405160405180910390a35050565b610c7f82826105a9565b610cc25780826040517fe2517d3f000000000000000000000000000000000000000000000000000000008152600401610cb992919061140a565b60405180910390fd5b5050565b6000604051905090565b600080fd5b600080fd5b60007fffffffff0000000000000000000000000000000000000000000000000000000082169050919050565b610d0f81610cda565b8114610d1a57600080fd5b50565b600081359050610d2c81610d06565b92915050565b600060208284031215610d4857610d47610cd0565b5b6000610d5684828501610d1d565b91505092915050565b60008115159050919050565b610d7481610d5f565b82525050565b6000602082019050610d8f6000830184610d6b565b92915050565b6000819050919050565b610da881610d95565b8114610db357600080fd5b50565b600081359050610dc581610d9f565b92915050565b600060208284031215610de157610de0610cd0565b5b6000610def84828501610db6565b91505092915050565b610e0181610d95565b82525050565b6000602082019050610e1c6000830184610df8565b92915050565b600073ffffffffffffffffffffffffffffffffffffffff82169050919050565b6000610e4d82610e22565b9050919050565b610e5d81610e42565b8114610e6857600080fd5b50565b600081359050610e7a81610e54565b92915050565b60008060408385031215610e9757610e96610cd0565b5b6000610ea585828601610db6565b9250506020610eb685828601610e6b565b9150509250929050565b600080fd5b600080fd5b6000601f19601f8301169050919050565b7f4e487b7100000000000000000000000000000000000000000000000000000000600052604160045260246000fd5b610f1382610eca565b810181811067ffffffffffffffff82111715610f3257610f31610edb565b5b80604052505050565b6000610f45610cc6565b9050610f518282610f0a565b919050565b600067ffffffffffffffff821115610f7157610f70610edb565b5b610f7a82610eca565b9050602081019050919050565b82818337600083830152505050565b6000610fa9610fa484610f56565b610f3b565b905082815260208101848484011115610fc557610fc4610ec5565b5b610fd0848285610f87565b509392505050565b600082601f830112610fed57610fec610ec0565b5b8135610ffd848260208601610f96565b91505092915050565b600080600080608085870312156110205761101f610cd0565b5b600085013567ffffffffffffffff81111561103e5761103d610cd5565b5b61104a87828801610fd8565b945050602085013567ffffffffffffffff81111561106b5761106a610cd5565b5b61107787828801610fd8565b935050604061108887828801610e6b565b925050606085013567ffffffffffffffff8111156110a9576110a8610cd5565b5b6110b587828801610fd8565b91505092959194509250565b6000819050919050565b6110d4816110c1565b81146110df57600080fd5b50565b6000813590506110f1816110cb565b92915050565b6000806040838503121561110e5761110d610cd0565b5b600061111c85828601610e6b565b925050602061112d858286016110e2565b9150509250929050565b61114081610e42565b82525050565b600060208201905061115b6000830184611137565b92915050565b6000806040838503121561117857611177610cd0565b5b600061118685828601610e6b565b925050602061119785828601610e6b565b9150509250929050565b6000602082840312156111b7576111b6610cd0565b5b60006111c584828501610e6b565b91505092915050565b600081519050919050565b600082825260208201905092915050565b60005b838110156112085780820151818401526020810190506111ed565b60008484015250505050565b600061121f826111ce565b61122981856111d9565b93506112398185602086016111ea565b61124281610eca565b840191505092915050565b600060608201905081810360008301526112678186611214565b9050818103602083015261127b8185611214565b905061128a6040830184611137565b949350505050565b60006040820190506112a76000830185611137565b81810360208301526112b98184611214565b90509392505050565b6112cb816110c1565b82525050565b60006040820190506112e66000830185611137565b6112f360208301846112c2565b9392505050565b600060608201905061130f6000830186611137565b61131c6020830185611137565b6113296040830184611137565b949350505050565b60008151905061134081610e54565b92915050565b60006020828403121561135c5761135b610cd0565b5b600061136a84828501611331565b91505092915050565b6000819050919050565b6000819050919050565b60006113a261139d61139884611373565b61137d565b6110c1565b9050919050565b6113b281611387565b82525050565b60006040820190506113cd6000830185611137565b6113da60208301846113a9565b9392505050565b60006040820190506113f66000830185610df8565b6114036020830184611137565b9392505050565b600060408201905061141f6000830185611137565b61142c6020830184610df8565b939250505056fea164736f6c634300081c000a",
  "linkReferences": {},
  "deployedLinkReferences": {}
}