{
  "_format": "hh-sol-artifact-1",
  "contractName": "ContractFactory",
  "sourceName": "contracts/cores/ContractFactory.sol",
  "abi": [
    {
      "inputs": [],
      "stateMutability": "nonpayable",
      "type": "constructor"
    },
    {
      "inputs": [],
      "name": "AccessControlBadConfirmation",
      "type": "error"
    },
    {
      "inputs": [
        {
          "internalType": "address",
          "name": "account",
          "type": "address"
        },
        {
          "internalType": "bytes32",
          "name": "neededRole",
          "type": "bytes32"
        }
      ],
      "name": "AccessControlUnauthorizedAccount",
      "type": "error"
    },
    {
      "anonymous": false,
      "inputs": [
        {
          "indexed": true,
          "internalType": "address",
          "name": "brandWallet",
          "type": "address"
        },
        {
          "indexed": true,
          "internalType": "address",
          "name": "nftContractAddress",
          "type": "address"
        },
        {
          "indexed": false,
          "internalType": "string",
          "name": "name",
          "type": "string"
        },
        {
          "indexed": false,
          "internalType": "bool",
          "name": "isLegalVerified",
          "type": "bool"
        }
      ],
      "name": "BrandRegistered",
      "type": "event"
    },
    {
      "anonymous": false,
      "inputs": [
        {
          "indexed": true,
          "internalType": "address",
          "name": "brandWallet",
          "type": "address"
        },
        {
          "indexed": false,
          "internalType": "bool",
          "name": "newStatus",
          "type": "bool"
        }
      ],
      "name": "BrandStatusUpdated",
      "type": "event"
    },
    {
      "anonymous": false,
      "inputs": [
        {
          "indexed": true,
          "internalType": "bytes32",
          "name": "role",
          "type": "bytes32"
        },
        {
          "indexed": true,
          "internalType": "bytes32",
          "name": "previousAdminRole",
          "type": "bytes32"
        },
        {
          "indexed": true,
          "internalType": "bytes32",
          "name": "newAdminRole",
          "type": "bytes32"
        }
      ],
      "name": "RoleAdminChanged",
      "type": "event"
    },
    {
      "anonymous": false,
      "inputs": [
        {
          "indexed": true,
          "internalType": "bytes32",
          "name": "role",
          "type": "bytes32"
        },
        {
          "indexed": true,
          "internalType": "address",
          "name": "account",
          "type": "address"
        },
        {
          "indexed": true,
          "internalType": "address",
          "name": "sender",
          "type": "address"
        }
      ],
      "name": "RoleGranted",
      "type": "event"
    },
    {
      "anonymous": false,
      "inputs": [
        {
          "indexed": true,
          "internalType": "bytes32",
          "name": "role",
          "type": "bytes32"
        },
        {
          "indexed": true,
          "internalType": "address",
          "name": "account",
          "type": "address"
        },
        {
          "indexed": true,
          "internalType": "address",
          "name": "sender",
          "type": "address"
        }
      ],
      "name": "RoleRevoked",
      "type": "event"
    },
    {
      "inputs": [],
      "name": "DEFAULT_ADMIN_ROLE",
      "outputs": [
        {
          "internalType": "bytes32",
          "name": "",
          "type": "bytes32"
        }
      ],
      "stateMutability": "view",
      "type": "function"
    },
    {
      "inputs": [
        {
          "internalType": "address",
          "name": "_brandWallet",
          "type": "address"
        },
        {
          "internalType": "address",
          "name": "couponContract",
          "type": "address"
        }
      ],
      "name": "approveBrand",
      "outputs": [
        {
          "internalType": "address",
          "name": "",
          "type": "address"
        }
      ],
      "stateMutability": "nonpayable",
      "type": "function"
    },
    {
      "inputs": [
        {
          "internalType": "address",
          "name": "",
          "type": "address"
        }
      ],
      "name": "brands",
      "outputs": [
        {
          "internalType": "address",
          "name": "brandWallet",
          "type": "address"
        },
        {
          "internalType": "address",
          "name": "nftContractAddress",
          "type": "address"
        },
        {
          "internalType": "string",
          "name": "name",
          "type": "string"
        },
        {
          "internalType": "string",
          "name": "nftSymbol",
          "type": "string"
        },
        {
          "internalType": "bool",
          "name": "isActive",
          "type": "bool"
        },
        {
          "internalType": "bool",
          "name": "isLegalVerified",
          "type": "bool"
        },
        {
          "internalType": "uint256",
          "name": "registrationTimestamp",
          "type": "uint256"
        }
      ],
      "stateMutability": "view",
      "type": "function"
    },
    {
      "inputs": [
        {
          "internalType": "address",
          "name": "_brandWallet",
          "type": "address"
        }
      ],
      "name": "getBrandInfo",
      "outputs": [
        {
          "components": [
            {
              "internalType": "address",
              "name": "brandWallet",
              "type": "address"
            },
            {
              "internalType": "address",
              "name": "nftContractAddress",
              "type": "address"
            },
            {
              "internalType": "string",
              "name": "name",
              "type": "string"
            },
            {
              "internalType": "string",
              "name": "nftSymbol",
              "type": "string"
            },
            {
              "internalType": "bool",
              "name": "isActive",
              "type": "bool"
            },
            {
              "internalType": "bool",
              "name": "isLegalVerified",
              "type": "bool"
            },
            {
              "internalType": "uint256",
              "name": "registrationTimestamp",
              "type": "uint256"
            }
          ],
          "internalType": "struct IContractFactory.BrandInfo",
          "name": "",
          "type": "tuple"
        }
      ],
      "stateMutability": "view",
      "type": "function"
    },
    {
      "inputs": [
        {
          "internalType": "address",
          "name": "_brandWallet",
          "type": "address"
        }
      ],
      "name": "getBrandNFTContractAddress",
      "outputs": [
        {
          "internalType": "address",
          "name": "",
          "type": "address"
        }
      ],
      "stateMutability": "view",
      "type": "function"
    },
    {
      "inputs": [
        {
          "internalType": "bytes32",
          "name": "role",
          "type": "bytes32"
        }
      ],
      "name": "getRoleAdmin",
      "outputs": [
        {
          "internalType": "bytes32",
          "name": "",
          "type": "bytes32"
        }
      ],
      "stateMutability": "view",
      "type": "function"
    },
    {
      "inputs": [
        {
          "internalType": "bytes32",
          "name": "role",
          "type": "bytes32"
        },
        {
          "internalType": "address",
          "name": "account",
          "type": "address"
        }
      ],
      "name": "grantRole",
      "outputs": [],
      "stateMutability": "nonpayable",
      "type": "function"
    },
    {
      "inputs": [
        {
          "internalType": "bytes32",
          "name": "role",
          "type": "bytes32"
        },
        {
          "internalType": "address",
          "name": "account",
          "type": "address"
        }
      ],
      "name": "hasRole",
      "outputs": [
        {
          "internalType": "bool",
          "name": "",
          "type": "bool"
        }
      ],
      "stateMutability": "view",
      "type": "function"
    },
    {
      "inputs": [
        {
          "internalType": "string",
          "name": "_brandName",
          "type": "string"
        },
        {
          "internalType": "string",
          "name": "_nftSymbol",
          "type": "string"
        },
        {
          "internalType": "address",
          "name": "_brandWallet",
          "type": "address"
        }
      ],
      "name": "registerBrand",
      "outputs": [],
      "stateMutability": "nonpayable",
      "type": "function"
    },
    {
      "inputs": [
        {
          "internalType": "bytes32",
          "name": "role",
          "type": "bytes32"
        },
        {
          "internalType": "address",
          "name": "callerConfirmation",
          "type": "address"
        }
      ],
      "name": "renounceRole",
      "outputs": [],
      "stateMutability": "nonpayable",
      "type": "function"
    },
    {
      "inputs": [
        {
          "internalType": "bytes32",
          "name": "role",
          "type": "bytes32"
        },
        {
          "internalType": "address",
          "name": "account",
          "type": "address"
        }
      ],
      "name": "revokeRole",
      "outputs": [],
      "stateMutability": "nonpayable",
      "type": "function"
    },
    {
      "inputs": [
        {
          "internalType": "bytes4",
          "name": "interfaceId",
          "type": "bytes4"
        }
      ],
      "name": "supportsInterface",
      "outputs": [
        {
          "internalType": "bool",
          "name": "",
          "type": "bool"
        }
      ],
      "stateMutability": "view",
      "type": "function"
    }
  ],
  "bytecode": "0x608060405234801561001057600080fd5b506100246000801b3361002a60201b60201c565b50610199565b600061003c838361012760201b60201c565b61011c57600160008085815260200190815260200160002060000160008473ffffffffffffffffffffffffffffffffffffffff1673ffffffffffffffffffffffffffffffffffffffff16815260200190815260200160002060006101000a81548160ff0219169083151502179055506100b961019160201b60201c565b73ffffffffffffffffffffffffffffffffffffffff168273ffffffffffffffffffffffffffffffffffffffff16847f2f8788117e7eff1d82e926ec794901d17c78024a50270940304540a733656f0d60405160405180910390a460019050610121565b600090505b92915050565b600080600084815260200190815260200160002060000160008373ffffffffffffffffffffffffffffffffffffffff1673ffffffffffffffffffffffffffffffffffffffff16815260200190815260200160002060009054906101000a900460ff16905092915050565b600033905090565b615fd7806101a86000396000f3fe608060405234801561001057600080fd5b50600436106100b45760003560e01c80635b7fd9b5116100715780635b7fd9b51461019d5780637a99b6a8146101d357806391d1485414610203578063a217fddf14610233578063c88eac6d14610251578063d547741f14610281576100b4565b806301ffc9a7146100b9578063248a9ca3146100e95780632d355a36146101195780632f2ff15d1461014957806336568abe146101655780634291037914610181575b600080fd5b6100d360048036038101906100ce9190611436565b61029d565b6040516100e0919061147e565b60405180910390f35b61010360048036038101906100fe91906114cf565b610317565b604051610110919061150b565b60405180910390f35b610133600480360381019061012e9190611584565b610336565b60405161014091906115c0565b60405180910390f35b610163600480360381019061015e91906115db565b6103a2565b005b61017f600480360381019061017a91906115db565b6103c4565b005b61019b60048036038101906101969190611761565b61043f565b005b6101b760048036038101906101b29190611584565b61072a565b6040516101ca9796959493929190611884565b60405180910390f35b6101ed60048036038101906101e89190611584565b6108d6565b6040516101fa9190611a1b565b60405180910390f35b61021d600480360381019061021891906115db565b610b3f565b60405161022a919061147e565b60405180910390f35b61023b610ba9565b604051610248919061150b565b60405180910390f35b61026b60048036038101906102669190611a3d565b610bb0565b60405161027891906115c0565b60405180910390f35b61029b600480360381019061029691906115db565b611074565b005b60007f7965db0b000000000000000000000000000000000000000000000000000000007bffffffffffffffffffffffffffffffffffffffffffffffffffffffff1916827bffffffffffffffffffffffffffffffffffffffffffffffffffffffff19161480610310575061030f82611096565b5b9050919050565b6000806000838152602001908152602001600020600101549050919050565b6000600160008373ffffffffffffffffffffffffffffffffffffffff1673ffffffffffffffffffffffffffffffffffffffff16815260200190815260200160002060010160009054906101000a900473ffffffffffffffffffffffffffffffffffffffff169050919050565b6103ab82610317565b6103b481611100565b6103be8383611114565b50505050565b6103cc611205565b73ffffffffffffffffffffffffffffffffffffffff168173ffffffffffffffffffffffffffffffffffffffff1614610430576040517f6697b23200000000000000000000000000000000000000000000000000000000815260040160405180910390fd5b61043a828261120d565b505050565b600073ffffffffffffffffffffffffffffffffffffffff16600160008373ffffffffffffffffffffffffffffffffffffffff1673ffffffffffffffffffffffffffffffffffffffff16815260200190815260200160002060010160009054906101000a900473ffffffffffffffffffffffffffffffffffffffff1673ffffffffffffffffffffffffffffffffffffffff1614610510576040517f08c379a000000000000000000000000000000000000000000000000000000000815260040161050790611ac9565b60405180910390fd5b6040518060e001604052808273ffffffffffffffffffffffffffffffffffffffff168152602001600073ffffffffffffffffffffffffffffffffffffffff16815260200184815260200183815260200160001515815260200160001515815260200142815250600160008373ffffffffffffffffffffffffffffffffffffffff1673ffffffffffffffffffffffffffffffffffffffff16815260200190815260200160002060008201518160000160006101000a81548173ffffffffffffffffffffffffffffffffffffffff021916908373ffffffffffffffffffffffffffffffffffffffff16021790555060208201518160010160006101000a81548173ffffffffffffffffffffffffffffffffffffffff021916908373ffffffffffffffffffffffffffffffffffffffff16021790555060408201518160020190816106589190611cf5565b50606082015181600301908161066e9190611cf5565b5060808201518160040160006101000a81548160ff02191690831515021790555060a08201518160040160016101000a81548160ff02191690831515021790555060c08201518160050155905050600073ffffffffffffffffffffffffffffffffffffffff168173ffffffffffffffffffffffffffffffffffffffff167fdbd117303f7aa77d296693e1d99ee55259ad04d32d0534e8185e6f9b8179040085600060405161071d929190611dc7565b60405180910390a3505050565b60016020528060005260406000206000915090508060000160009054906101000a900473ffffffffffffffffffffffffffffffffffffffff16908060010160009054906101000a900473ffffffffffffffffffffffffffffffffffffffff169080600201805461079990611b18565b80601f01602080910402602001604051908101604052809291908181526020018280546107c590611b18565b80156108125780601f106107e757610100808354040283529160200191610812565b820191906000526020600020905b8154815290600101906020018083116107f557829003601f168201915b50505050509080600301805461082790611b18565b80601f016020809104026020016040519081016040528092919081815260200182805461085390611b18565b80156108a05780601f10610875576101008083540402835291602001916108a0565b820191906000526020600020905b81548152906001019060200180831161088357829003601f168201915b5050505050908060040160009054906101000a900460ff16908060040160019054906101000a900460ff16908060050154905087565b6108de611350565b600160008373ffffffffffffffffffffffffffffffffffffffff1673ffffffffffffffffffffffffffffffffffffffff1681526020019081526020016000206040518060e00160405290816000820160009054906101000a900473ffffffffffffffffffffffffffffffffffffffff1673ffffffffffffffffffffffffffffffffffffffff1673ffffffffffffffffffffffffffffffffffffffff1681526020016001820160009054906101000a900473ffffffffffffffffffffffffffffffffffffffff1673ffffffffffffffffffffffffffffffffffffffff1673ffffffffffffffffffffffffffffffffffffffff1681526020016002820180546109e490611b18565b80601f0160208091040260200160405190810160405280929190818152602001828054610a1090611b18565b8015610a5d5780601f10610a3257610100808354040283529160200191610a5d565b820191906000526020600020905b815481529060010190602001808311610a4057829003601f168201915b50505050508152602001600382018054610a7690611b18565b80601f0160208091040260200160405190810160405280929190818152602001828054610aa290611b18565b8015610aef5780601f10610ac457610100808354040283529160200191610aef565b820191906000526020600020905b815481529060010190602001808311610ad257829003601f168201915b505050505081526020016004820160009054906101000a900460ff161515151581526020016004820160019054906101000a900460ff161515151581526020016005820154815250509050919050565b600080600084815260200190815260200160002060000160008373ffffffffffffffffffffffffffffffffffffffff1673ffffffffffffffffffffffffffffffffffffffff16815260200190815260200160002060009054906101000a900460ff16905092915050565b6000801b81565b60008060001b610bbf81611100565b600073ffffffffffffffffffffffffffffffffffffffff16600160008673ffffffffffffffffffffffffffffffffffffffff1673ffffffffffffffffffffffffffffffffffffffff16815260200190815260200160002060010160009054906101000a900473ffffffffffffffffffffffffffffffffffffffff1673ffffffffffffffffffffffffffffffffffffffff161480610caf575060001515600160008673ffffffffffffffffffffffffffffffffffffffff1673ffffffffffffffffffffffffffffffffffffffff16815260200190815260200160002060040160019054906101000a900460ff161515145b610cee576040517f08c379a0000000000000000000000000000000000000000000000000000000008152600401610ce590611e69565b60405180910390fd5b60018060008673ffffffffffffffffffffffffffffffffffffffff1673ffffffffffffffffffffffffffffffffffffffff16815260200190815260200160002060040160016101000a81548160ff0219169083151502179055506000600160008673ffffffffffffffffffffffffffffffffffffffff1673ffffffffffffffffffffffffffffffffffffffff1681526020019081526020016000206002018054610d9790611b18565b80601f0160208091040260200160405190810160405280929190818152602001828054610dc390611b18565b8015610e105780601f10610de557610100808354040283529160200191610e10565b820191906000526020600020905b815481529060010190602001808311610df357829003601f168201915b505050505090506000600160008773ffffffffffffffffffffffffffffffffffffffff1673ffffffffffffffffffffffffffffffffffffffff1681526020019081526020016000206003018054610e6690611b18565b80601f0160208091040260200160405190810160405280929190818152602001828054610e9290611b18565b8015610edf5780601f10610eb457610100808354040283529160200191610edf565b820191906000526020600020905b815481529060010190602001808311610ec257829003601f168201915b50505050509050600082828888604051610ef8906113bd565b610f059493929190611e89565b604051809103906000f080158015610f21573d6000803e3d6000fd5b50905080600160008973ffffffffffffffffffffffffffffffffffffffff1673ffffffffffffffffffffffffffffffffffffffff16815260200190815260200160002060010160006101000a81548173ffffffffffffffffffffffffffffffffffffffff021916908373ffffffffffffffffffffffffffffffffffffffff16021790555060018060008973ffffffffffffffffffffffffffffffffffffffff1673ffffffffffffffffffffffffffffffffffffffff16815260200190815260200160002060040160006101000a81548160ff0219169083151502179055508073ffffffffffffffffffffffffffffffffffffffff168773ffffffffffffffffffffffffffffffffffffffff167fdbd117303f7aa77d296693e1d99ee55259ad04d32d0534e8185e6f9b8179040085600160405161105f929190611dc7565b60405180910390a38094505050505092915050565b61107d82610317565b61108681611100565b611090838361120d565b50505050565b60007f01ffc9a7000000000000000000000000000000000000000000000000000000007bffffffffffffffffffffffffffffffffffffffffffffffffffffffff1916827bffffffffffffffffffffffffffffffffffffffffffffffffffffffff1916149050919050565b6111118161110c611205565b6112ff565b50565b60006111208383610b3f565b6111fa57600160008085815260200190815260200160002060000160008473ffffffffffffffffffffffffffffffffffffffff1673ffffffffffffffffffffffffffffffffffffffff16815260200190815260200160002060006101000a81548160ff021916908315150217905550611197611205565b73ffffffffffffffffffffffffffffffffffffffff168273ffffffffffffffffffffffffffffffffffffffff16847f2f8788117e7eff1d82e926ec794901d17c78024a50270940304540a733656f0d60405160405180910390a4600190506111ff565b600090505b92915050565b600033905090565b60006112198383610b3f565b156112f457600080600085815260200190815260200160002060000160008473ffffffffffffffffffffffffffffffffffffffff1673ffffffffffffffffffffffffffffffffffffffff16815260200190815260200160002060006101000a81548160ff021916908315150217905550611291611205565b73ffffffffffffffffffffffffffffffffffffffff168273ffffffffffffffffffffffffffffffffffffffff16847ff6391f5c32d9c69d2a47ea670b442974b53935d1edc7fd64eb21e047a839171b60405160405180910390a4600190506112f9565b600090505b92915050565b6113098282610b3f565b61134c5780826040517fe2517d3f000000000000000000000000000000000000000000000000000000008152600401611343929190611edc565b60405180910390fd5b5050565b6040518060e00160405280600073ffffffffffffffffffffffffffffffffffffffff168152602001600073ffffffffffffffffffffffffffffffffffffffff1681526020016060815260200160608152602001600015158152602001600015158152602001600081525090565b6140c580611f0683390190565b6000604051905090565b600080fd5b600080fd5b60007fffffffff0000000000000000000000000000000000000000000000000000000082169050919050565b611413816113de565b811461141e57600080fd5b50565b6000813590506114308161140a565b92915050565b60006020828403121561144c5761144b6113d4565b5b600061145a84828501611421565b91505092915050565b60008115159050919050565b61147881611463565b82525050565b6000602082019050611493600083018461146f565b92915050565b6000819050919050565b6114ac81611499565b81146114b757600080fd5b50565b6000813590506114c9816114a3565b92915050565b6000602082840312156114e5576114e46113d4565b5b60006114f3848285016114ba565b91505092915050565b61150581611499565b82525050565b600060208201905061152060008301846114fc565b92915050565b600073ffffffffffffffffffffffffffffffffffffffff82169050919050565b600061155182611526565b9050919050565b61156181611546565b811461156c57600080fd5b50565b60008135905061157e81611558565b92915050565b60006020828403121561159a576115996113d4565b5b60006115a88482850161156f565b91505092915050565b6115ba81611546565b82525050565b60006020820190506115d560008301846115b1565b92915050565b600080604083850312156115f2576115f16113d4565b5b6000611600858286016114ba565b92505060206116118582860161156f565b9150509250929050565b600080fd5b600080fd5b6000601f19601f8301169050919050565b7f4e487b7100000000000000000000000000000000000000000000000000000000600052604160045260246000fd5b61166e82611625565b810181811067ffffffffffffffff8211171561168d5761168c611636565b5b80604052505050565b60006116a06113ca565b90506116ac8282611665565b919050565b600067ffffffffffffffff8211156116cc576116cb611636565b5b6116d582611625565b9050602081019050919050565b82818337600083830152505050565b60006117046116ff846116b1565b611696565b9050828152602081018484840111156117205761171f611620565b5b61172b8482856116e2565b509392505050565b600082601f8301126117485761174761161b565b5b81356117588482602086016116f1565b91505092915050565b60008060006060848603121561177a576117796113d4565b5b600084013567ffffffffffffffff811115611798576117976113d9565b5b6117a486828701611733565b935050602084013567ffffffffffffffff8111156117c5576117c46113d9565b5b6117d186828701611733565b92505060406117e28682870161156f565b9150509250925092565b600081519050919050565b600082825260208201905092915050565b60005b8381101561182657808201518184015260208101905061180b565b60008484015250505050565b600061183d826117ec565b61184781856117f7565b9350611857818560208601611808565b61186081611625565b840191505092915050565b6000819050919050565b61187e8161186b565b82525050565b600060e082019050611899600083018a6115b1565b6118a660208301896115b1565b81810360408301526118b88188611832565b905081810360608301526118cc8187611832565b90506118db608083018661146f565b6118e860a083018561146f565b6118f560c0830184611875565b98975050505050505050565b61190a81611546565b82525050565b600082825260208201905092915050565b600061192c826117ec565b6119368185611910565b9350611946818560208601611808565b61194f81611625565b840191505092915050565b61196381611463565b82525050565b6119728161186b565b82525050565b600060e0830160008301516119906000860182611901565b5060208301516119a36020860182611901565b50604083015184820360408601526119bb8282611921565b915050606083015184820360608601526119d58282611921565b91505060808301516119ea608086018261195a565b5060a08301516119fd60a086018261195a565b5060c0830151611a1060c0860182611969565b508091505092915050565b60006020820190508181036000830152611a358184611978565b905092915050565b60008060408385031215611a5457611a536113d4565b5b6000611a628582860161156f565b9250506020611a738582860161156f565b9150509250929050565b7f4272616e6420616c726561647920726567697374657265640000000000000000600082015250565b6000611ab36018836117f7565b9150611abe82611a7d565b602082019050919050565b60006020820190508181036000830152611ae281611aa6565b9050919050565b7f4e487b7100000000000000000000000000000000000000000000000000000000600052602260045260246000fd5b60006002820490506001821680611b3057607f821691505b602082108103611b4357611b42611ae9565b5b50919050565b60008190508160005260206000209050919050565b60006020601f8301049050919050565b600082821b905092915050565b600060088302611bab7fffffffffffffffffffffffffffffffffffffffffffffffffffffffffffffffff82611b6e565b611bb58683611b6e565b95508019841693508086168417925050509392505050565b6000819050919050565b6000611bf2611bed611be88461186b565b611bcd565b61186b565b9050919050565b6000819050919050565b611c0c83611bd7565b611c20611c1882611bf9565b848454611b7b565b825550505050565b600090565b611c35611c28565b611c40818484611c03565b505050565b5b81811015611c6457611c59600082611c2d565b600181019050611c46565b5050565b601f821115611ca957611c7a81611b49565b611c8384611b5e565b81016020851015611c92578190505b611ca6611c9e85611b5e565b830182611c45565b50505b505050565b600082821c905092915050565b6000611ccc60001984600802611cae565b1980831691505092915050565b6000611ce58383611cbb565b9150826002028217905092915050565b611cfe826117ec565b67ffffffffffffffff811115611d1757611d16611636565b5b611d218254611b18565b611d2c828285611c68565b600060209050601f831160018114611d5f5760008415611d4d578287015190505b611d578582611cd9565b865550611dbf565b601f198416611d6d86611b49565b60005b82811015611d9557848901518255600182019150602085019450602081019050611d70565b86831015611db25784890151611dae601f891682611cbb565b8355505b6001600288020188555050505b505050505050565b60006040820190508181036000830152611de18185611832565b9050611df0602083018461146f565b9392505050565b7f4e6f206368616e676520696e206c6567616c20737461747573206f72204e465460008201527f20636f6e747261637420616c7265616479206465706c6f7965642e0000000000602082015250565b6000611e53603b836117f7565b9150611e5e82611df7565b604082019050919050565b60006020820190508181036000830152611e8281611e46565b9050919050565b60006080820190508181036000830152611ea38187611832565b90508181036020830152611eb78186611832565b9050611ec660408301856115b1565b611ed360608301846115b1565b95945050505050565b6000604082019050611ef160008301856115b1565b611efe60208301846114fc565b939250505056fe60a060405234801561001057600080fd5b506040516140c53803806140c5833981810160405281019061003291906103eb565b8383816000908161004391906106ab565b50806001908161005391906106ab565b5050508073ffffffffffffffffffffffffffffffffffffffff1660808173ffffffffffffffffffffffffffffffffffffffff168152505061009d6000801b836100a760201b60201c565b505050505061077d565b60006100b983836101a560201b60201c565b61019a5760016007600085815260200190815260200160002060000160008473ffffffffffffffffffffffffffffffffffffffff1673ffffffffffffffffffffffffffffffffffffffff16815260200190815260200160002060006101000a81548160ff02191690831515021790555061013761021060201b60201c565b73ffffffffffffffffffffffffffffffffffffffff168273ffffffffffffffffffffffffffffffffffffffff16847f2f8788117e7eff1d82e926ec794901d17c78024a50270940304540a733656f0d60405160405180910390a46001905061019f565b600090505b92915050565b60006007600084815260200190815260200160002060000160008373ffffffffffffffffffffffffffffffffffffffff1673ffffffffffffffffffffffffffffffffffffffff16815260200190815260200160002060009054906101000a900460ff16905092915050565b600033905090565b6000604051905090565b600080fd5b600080fd5b600080fd5b600080fd5b6000601f19601f8301169050919050565b7f4e487b7100000000000000000000000000000000000000000000000000000000600052604160045260246000fd5b61027f82610236565b810181811067ffffffffffffffff8211171561029e5761029d610247565b5b80604052505050565b60006102b1610218565b90506102bd8282610276565b919050565b600067ffffffffffffffff8211156102dd576102dc610247565b5b6102e682610236565b9050602081019050919050565b60005b838110156103115780820151818401526020810190506102f6565b60008484015250505050565b600061033061032b846102c2565b6102a7565b90508281526020810184848401111561034c5761034b610231565b5b6103578482856102f3565b509392505050565b600082601f8301126103745761037361022c565b5b815161038484826020860161031d565b91505092915050565b600073ffffffffffffffffffffffffffffffffffffffff82169050919050565b60006103b88261038d565b9050919050565b6103c8816103ad565b81146103d357600080fd5b50565b6000815190506103e5816103bf565b92915050565b6000806000806080858703121561040557610404610222565b5b600085015167ffffffffffffffff81111561042357610422610227565b5b61042f8782880161035f565b945050602085015167ffffffffffffffff8111156104505761044f610227565b5b61045c8782880161035f565b935050604061046d878288016103d6565b925050606061047e878288016103d6565b91505092959194509250565b600081519050919050565b7f4e487b7100000000000000000000000000000000000000000000000000000000600052602260045260246000fd5b600060028204905060018216806104dc57607f821691505b6020821081036104ef576104ee610495565b5b50919050565b60008190508160005260206000209050919050565b60006020601f8301049050919050565b600082821b905092915050565b6000600883026105577fffffffffffffffffffffffffffffffffffffffffffffffffffffffffffffffff8261051a565b610561868361051a565b95508019841693508086168417925050509392505050565b6000819050919050565b6000819050919050565b60006105a86105a361059e84610579565b610583565b610579565b9050919050565b6000819050919050565b6105c28361058d565b6105d66105ce826105af565b848454610527565b825550505050565b600090565b6105eb6105de565b6105f68184846105b9565b505050565b5b8181101561061a5761060f6000826105e3565b6001810190506105fc565b5050565b601f82111561065f57610630816104f5565b6106398461050a565b81016020851015610648578190505b61065c6106548561050a565b8301826105fb565b50505b505050565b600082821c905092915050565b600061068260001984600802610664565b1980831691505092915050565b600061069b8383610671565b9150826002028217905092915050565b6106b48261048a565b67ffffffffffffffff8111156106cd576106cc610247565b5b6106d782546104c4565b6106e282828561061e565b600060209050601f8311600181146107155760008415610703578287015190505b61070d858261068f565b865550610775565b601f198416610723866104f5565b60005b8281101561074b57848901518255600182019150602085019450602081019050610726565b868310156107685784890151610764601f891682610671565b8355505b6001600288020188555050505b505050505050565b60805161391f6107a660003960008181610a5001528181610b570152610d96015261391f6000f3fe608060405234801561001057600080fd5b506004361061018e5760003560e01c806395d89b41116100de578063c845cb8111610097578063dffb03a611610071578063dffb03a6146104b5578063e72bfc92146104d1578063e985e9c5146104ef578063f23a6e611461051f5761018e565b8063c845cb811461044d578063c87b56dd14610469578063d547741f146104995761018e565b806395d89b411461038d578063a217fddf146103ab578063a22cb465146103c9578063b6f220aa146103e5578063b88d4fde14610401578063bc197c811461041d5761018e565b80632f2ff15d1161014b57806360015d811161012557806360015d81146102cd5780636352211e146102fd57806370a082311461032d57806391d148541461035d5761018e565b80632f2ff15d1461027957806336568abe1461029557806342842e0e146102b15761018e565b806301ffc9a71461019357806306fdde03146101c3578063081812fc146101e1578063095ea7b31461021157806323b872dd1461022d578063248a9ca314610249575b600080fd5b6101ad60048036038101906101a89190612616565b61054f565b6040516101ba919061265e565b60405180910390f35b6101cb610561565b6040516101d89190612709565b60405180910390f35b6101fb60048036038101906101f69190612761565b6105f3565b60405161020891906127cf565b60405180910390f35b61022b60048036038101906102269190612816565b61060f565b005b61024760048036038101906102429190612856565b610625565b005b610263600480360381019061025e91906128df565b610727565b604051610270919061291b565b60405180910390f35b610293600480360381019061028e9190612936565b610747565b005b6102af60048036038101906102aa9190612936565b610769565b005b6102cb60048036038101906102c69190612856565b6107e4565b005b6102e760048036038101906102e29190612aab565b610804565b6040516102f4919061265e565b60405180910390f35b61031760048036038101906103129190612761565b610866565b60405161032491906127cf565b60405180910390f35b61034760048036038101906103429190612b1a565b610878565b6040516103549190612b56565b60405180910390f35b61037760048036038101906103729190612936565b610932565b604051610384919061265e565b60405180910390f35b61039561099d565b6040516103a29190612709565b60405180910390f35b6103b3610a2f565b6040516103c0919061291b565b60405180910390f35b6103e360048036038101906103de9190612b9d565b610a36565b005b6103ff60048036038101906103fa9190612c7e565b610a4c565b005b61041b60048036038101906104169190612cda565b610c0a565b005b61043760048036038101906104329190612e25565b610c2f565b6040516104449190612f03565b60405180910390f35b61046760048036038101906104629190612f1e565b610c44565b005b610483600480360381019061047e9190612761565b610ceb565b6040516104909190612709565b60405180910390f35b6104b360048036038101906104ae9190612936565b610cfd565b005b6104cf60048036038101906104ca9190612fa9565b610d1f565b005b6104d9610d94565b6040516104e69190613077565b60405180910390f35b61050960048036038101906105049190613092565b610db8565b604051610516919061265e565b60405180910390f35b610539600480360381019061053491906130d2565b610e4c565b6040516105469190612f03565b60405180910390f35b600061055a82610e61565b9050919050565b60606000805461057090613198565b80601f016020809104026020016040519081016040528092919081815260200182805461059c90613198565b80156105e95780601f106105be576101008083540402835291602001916105e9565b820191906000526020600020905b8154815290600101906020018083116105cc57829003601f168201915b5050505050905090565b60006105fe82610edb565b5061060882610f63565b9050919050565b610621828261061c610fa0565b610fa8565b5050565b600073ffffffffffffffffffffffffffffffffffffffff168273ffffffffffffffffffffffffffffffffffffffff16036106975760006040517f64a0ae9200000000000000000000000000000000000000000000000000000000815260040161068e91906127cf565b60405180910390fd5b60006106ab83836106a6610fa0565b610fba565b90508373ffffffffffffffffffffffffffffffffffffffff168173ffffffffffffffffffffffffffffffffffffffff1614610721578382826040517f64283d7b000000000000000000000000000000000000000000000000000000008152600401610718939291906131c9565b60405180910390fd5b50505050565b600060076000838152602001908152602001600020600101549050919050565b61075082610727565b610759816111d4565b61076383836111e8565b50505050565b610771610fa0565b73ffffffffffffffffffffffffffffffffffffffff168173ffffffffffffffffffffffffffffffffffffffff16146107d5576040517f6697b23200000000000000000000000000000000000000000000000000000000815260040160405180910390fd5b6107df82826112da565b505050565b6107ff83838360405180602001604052806000815250610c0a565b505050565b600080848460405160200161081a929190613269565b604051602081830303815290604052805190602001209050600061083d826113cd565b9050600061084b8286611403565b905061085a6000801b82610932565b93505050509392505050565b600061087182610edb565b9050919050565b60008073ffffffffffffffffffffffffffffffffffffffff168273ffffffffffffffffffffffffffffffffffffffff16036108eb5760006040517f89c62b640000000000000000000000000000000000000000000000000000000081526004016108e291906127cf565b60405180910390fd5b600360008373ffffffffffffffffffffffffffffffffffffffff1673ffffffffffffffffffffffffffffffffffffffff168152602001908152602001600020549050919050565b60006007600084815260200190815260200160002060000160008373ffffffffffffffffffffffffffffffffffffffff1673ffffffffffffffffffffffffffffffffffffffff16815260200190815260200160002060009054906101000a900460ff16905092915050565b6060600180546109ac90613198565b80601f01602080910402602001604051908101604052809291908181526020018280546109d890613198565b8015610a255780601f106109fa57610100808354040283529160200191610a25565b820191906000526020600020905b815481529060010190602001808311610a0857829003601f168201915b5050505050905090565b6000801b81565b610a48610a41610fa0565b838361142f565b5050565b60007f000000000000000000000000000000000000000000000000000000000000000073ffffffffffffffffffffffffffffffffffffffff1662fdd58e3060016040518363ffffffff1660e01b8152600401610aa99291906132d0565b602060405180830381865afa158015610ac6573d6000803e3d6000fd5b505050506040513d601f19601f82011682018060405250810190610aea919061330e565b118015610b1657506000600860008481526020019081526020016000208054610b1290613198565b9050145b610b55576040517f08c379a0000000000000000000000000000000000000000000000000000000008152600401610b4c90613387565b60405180910390fd5b7f000000000000000000000000000000000000000000000000000000000000000073ffffffffffffffffffffffffffffffffffffffff1663f5298aca306001806040518463ffffffff1660e01b8152600401610bb3939291906133a7565b600060405180830381600087803b158015610bcd57600080fd5b505af1158015610be1573d6000803e3d6000fd5b5050505080600860008481526020019081526020016000209081610c059190613580565b505050565b610c15848484610625565b610c29610c20610fa0565b8585858561159e565b50505050565b600063bc197c8160e01b905095945050505050565b610c4f338483610804565b610c8e576040517f08c379a0000000000000000000000000000000000000000000000000000000008152600401610c859061369e565b60405180910390fd5b610c98338461174f565b823373ffffffffffffffffffffffffffffffffffffffff167fb792983f4be9cd6a6722f6cf3c136d8cf44f77c5cf7cb263f75f36b04806a01b60405160405180910390a3610ce6838361176d565b505050565b6060610cf6826117c9565b9050919050565b610d0682610727565b610d0f816111d4565b610d1983836112da565b50505050565b6000821115610d6d5780600860008481526020019081526020016000209081610d489190613580565b50600860008481526020019081526020016000206000610d68919061254d565b610d8f565b80600860008581526020019081526020016000209081610d8d9190613580565b505b505050565b7f000000000000000000000000000000000000000000000000000000000000000081565b6000600560008473ffffffffffffffffffffffffffffffffffffffff1673ffffffffffffffffffffffffffffffffffffffff16815260200190815260200160002060008373ffffffffffffffffffffffffffffffffffffffff1673ffffffffffffffffffffffffffffffffffffffff16815260200190815260200160002060009054906101000a900460ff16905092915050565b600063f23a6e6160e01b905095945050505050565b60007f7965db0b000000000000000000000000000000000000000000000000000000007bffffffffffffffffffffffffffffffffffffffffffffffffffffffff1916827bffffffffffffffffffffffffffffffffffffffffffffffffffffffff19161480610ed45750610ed3826118dc565b5b9050919050565b600080610ee783611956565b9050600073ffffffffffffffffffffffffffffffffffffffff168173ffffffffffffffffffffffffffffffffffffffff1603610f5a57826040517f7e273289000000000000000000000000000000000000000000000000000000008152600401610f519190612b56565b60405180910390fd5b80915050919050565b60006004600083815260200190815260200160002060009054906101000a900473ffffffffffffffffffffffffffffffffffffffff169050919050565b600033905090565b610fb58383836001611993565b505050565b600080610fc684611956565b9050600073ffffffffffffffffffffffffffffffffffffffff168373ffffffffffffffffffffffffffffffffffffffff161461100857611007818486611b58565b5b600073ffffffffffffffffffffffffffffffffffffffff168173ffffffffffffffffffffffffffffffffffffffff16146110995761104a600085600080611993565b6001600360008373ffffffffffffffffffffffffffffffffffffffff1673ffffffffffffffffffffffffffffffffffffffff168152602001908152602001600020600082825403925050819055505b600073ffffffffffffffffffffffffffffffffffffffff168573ffffffffffffffffffffffffffffffffffffffff161461111c576001600360008773ffffffffffffffffffffffffffffffffffffffff1673ffffffffffffffffffffffffffffffffffffffff168152602001908152602001600020600082825401925050819055505b846002600086815260200190815260200160002060006101000a81548173ffffffffffffffffffffffffffffffffffffffff021916908373ffffffffffffffffffffffffffffffffffffffff160217905550838573ffffffffffffffffffffffffffffffffffffffff168273ffffffffffffffffffffffffffffffffffffffff167fddf252ad1be2c89b69c2b068fc378daa952ba7f163c4a11628f55a4df523b3ef60405160405180910390a4809150509392505050565b6111e5816111e0610fa0565b611c1c565b50565b60006111f48383610932565b6112cf5760016007600085815260200190815260200160002060000160008473ffffffffffffffffffffffffffffffffffffffff1673ffffffffffffffffffffffffffffffffffffffff16815260200190815260200160002060006101000a81548160ff02191690831515021790555061126c610fa0565b73ffffffffffffffffffffffffffffffffffffffff168273ffffffffffffffffffffffffffffffffffffffff16847f2f8788117e7eff1d82e926ec794901d17c78024a50270940304540a733656f0d60405160405180910390a4600190506112d4565b600090505b92915050565b60006112e68383610932565b156113c25760006007600085815260200190815260200160002060000160008473ffffffffffffffffffffffffffffffffffffffff1673ffffffffffffffffffffffffffffffffffffffff16815260200190815260200160002060006101000a81548160ff02191690831515021790555061135f610fa0565b73ffffffffffffffffffffffffffffffffffffffff168273ffffffffffffffffffffffffffffffffffffffff16847ff6391f5c32d9c69d2a47ea670b442974b53935d1edc7fd64eb21e047a839171b60405160405180910390a4600190506113c7565b600090505b92915050565b60007f19457468657265756d205369676e6564204d6573736167653a0a33320000000060005281601c52603c6000209050919050565b6000806000806114138686611c6d565b9250925092506114238282611cc9565b82935050505092915050565b600073ffffffffffffffffffffffffffffffffffffffff168273ffffffffffffffffffffffffffffffffffffffff16036114a057816040517f5b08ba1800000000000000000000000000000000000000000000000000000000815260040161149791906127cf565b60405180910390fd5b80600560008573ffffffffffffffffffffffffffffffffffffffff1673ffffffffffffffffffffffffffffffffffffffff16815260200190815260200160002060008473ffffffffffffffffffffffffffffffffffffffff1673ffffffffffffffffffffffffffffffffffffffff16815260200190815260200160002060006101000a81548160ff0219169083151502179055508173ffffffffffffffffffffffffffffffffffffffff168373ffffffffffffffffffffffffffffffffffffffff167f17307eab39ab6107e8899845ad3d59bd9653f200f220920489ca2b5937696c3183604051611591919061265e565b60405180910390a3505050565b60008373ffffffffffffffffffffffffffffffffffffffff163b1115611748578273ffffffffffffffffffffffffffffffffffffffff1663150b7a02868685856040518563ffffffff1660e01b81526004016115fd9493929190613713565b6020604051808303816000875af192505050801561163957506040513d601f19601f820116820180604052508101906116369190613774565b60015b6116bd573d8060008114611669576040519150601f19603f3d011682016040523d82523d6000602084013e61166e565b606091505b5060008151036116b557836040517f64a0ae920000000000000000000000000000000000000000000000000000000081526004016116ac91906127cf565b60405180910390fd5b805181602001fd5b63150b7a0260e01b7bffffffffffffffffffffffffffffffffffffffffffffffffffffffff1916817bffffffffffffffffffffffffffffffffffffffffffffffffffffffff19161461174657836040517f64a0ae9200000000000000000000000000000000000000000000000000000000815260040161173d91906127cf565b60405180910390fd5b505b5050505050565b611769828260405180602001604052806000815250611e2d565b5050565b8060066000848152602001908152602001600020908161178d9190613580565b507ff8e1a15aba9398e019f0b49df1a4fde98ee17ae345cb5f6b5e2c27f5033e8ce7826040516117bd9190612b56565b60405180910390a15050565b60606117d482610edb565b5060006006600084815260200190815260200160002080546117f590613198565b80601f016020809104026020016040519081016040528092919081815260200182805461182190613198565b801561186e5780601f106118435761010080835404028352916020019161186e565b820191906000526020600020905b81548152906001019060200180831161185157829003601f168201915b50505050509050600061187f611e51565b905060008151036118945781925050506118d7565b6000825111156118c95780826040516020016118b19291906137dd565b604051602081830303815290604052925050506118d7565b6118d284611e68565b925050505b919050565b60007f4e2312e0000000000000000000000000000000000000000000000000000000007bffffffffffffffffffffffffffffffffffffffffffffffffffffffff1916827bffffffffffffffffffffffffffffffffffffffffffffffffffffffff1916148061194f575061194e82611ed1565b5b9050919050565b60006002600083815260200190815260200160002060009054906101000a900473ffffffffffffffffffffffffffffffffffffffff169050919050565b80806119cc5750600073ffffffffffffffffffffffffffffffffffffffff168273ffffffffffffffffffffffffffffffffffffffff1614155b15611b005760006119dc84610edb565b9050600073ffffffffffffffffffffffffffffffffffffffff168373ffffffffffffffffffffffffffffffffffffffff1614158015611a4757508273ffffffffffffffffffffffffffffffffffffffff168173ffffffffffffffffffffffffffffffffffffffff1614155b8015611a5a5750611a588184610db8565b155b15611a9c57826040517fa9fbf51f000000000000000000000000000000000000000000000000000000008152600401611a9391906127cf565b60405180910390fd5b8115611afe57838573ffffffffffffffffffffffffffffffffffffffff168273ffffffffffffffffffffffffffffffffffffffff167f8c5be1e5ebec7d5bd14f71427d1e84f3dd0314c0f7b2291e5b200ac8c7c3b92560405160405180910390a45b505b836004600085815260200190815260200160002060006101000a81548173ffffffffffffffffffffffffffffffffffffffff021916908373ffffffffffffffffffffffffffffffffffffffff16021790555050505050565b611b63838383611f32565b611c1757600073ffffffffffffffffffffffffffffffffffffffff168373ffffffffffffffffffffffffffffffffffffffff1603611bd857806040517f7e273289000000000000000000000000000000000000000000000000000000008152600401611bcf9190612b56565b60405180910390fd5b81816040517f177e802f000000000000000000000000000000000000000000000000000000008152600401611c0e929190613801565b60405180910390fd5b505050565b611c268282610932565b611c695780826040517fe2517d3f000000000000000000000000000000000000000000000000000000008152600401611c6092919061382a565b60405180910390fd5b5050565b60008060006041845103611cb25760008060006020870151925060408701519150606087015160001a9050611ca488828585611ff3565b955095509550505050611cc2565b60006002855160001b9250925092505b9250925092565b60006003811115611cdd57611cdc613853565b5b826003811115611cf057611cef613853565b5b0315611e295760016003811115611d0a57611d09613853565b5b826003811115611d1d57611d1c613853565b5b03611d54576040517ff645eedf00000000000000000000000000000000000000000000000000000000815260040160405180910390fd5b60026003811115611d6857611d67613853565b5b826003811115611d7b57611d7a613853565b5b03611dc0578060001c6040517ffce698f7000000000000000000000000000000000000000000000000000000008152600401611db79190612b56565b60405180910390fd5b600380811115611dd357611dd2613853565b5b826003811115611de657611de5613853565b5b03611e2857806040517fd78bce0c000000000000000000000000000000000000000000000000000000008152600401611e1f919061291b565b60405180910390fd5b5b5050565b611e3783836120e7565b611e4c611e42610fa0565b600085858561159e565b505050565b606060405180602001604052806000815250905090565b6060611e7382610edb565b506000611e7e611e51565b90506000815111611e9e5760405180602001604052806000815250611ec9565b80611ea8846121e0565b604051602001611eb99291906137dd565b6040516020818303038152906040525b915050919050565b6000634906490660e01b7bffffffffffffffffffffffffffffffffffffffffffffffffffffffff1916827bffffffffffffffffffffffffffffffffffffffffffffffffffffffff19161480611f2b5750611f2a826122ae565b5b9050919050565b60008073ffffffffffffffffffffffffffffffffffffffff168373ffffffffffffffffffffffffffffffffffffffff1614158015611fea57508273ffffffffffffffffffffffffffffffffffffffff168473ffffffffffffffffffffffffffffffffffffffff161480611fab5750611faa8484610db8565b5b80611fe957508273ffffffffffffffffffffffffffffffffffffffff16611fd183610f63565b73ffffffffffffffffffffffffffffffffffffffff16145b5b90509392505050565b60008060007f7fffffffffffffffffffffffffffffff5d576e7357a4501ddfe92f46681b20a08460001c11156120335760006003859250925092506120dd565b600060018888888860405160008152602001604052604051612058949392919061389e565b6020604051602081039080840390855afa15801561207a573d6000803e3d6000fd5b505050602060405103519050600073ffffffffffffffffffffffffffffffffffffffff168173ffffffffffffffffffffffffffffffffffffffff16036120ce57600060016000801b935093509350506120dd565b8060008060001b935093509350505b9450945094915050565b600073ffffffffffffffffffffffffffffffffffffffff168273ffffffffffffffffffffffffffffffffffffffff16036121595760006040517f64a0ae9200000000000000000000000000000000000000000000000000000000815260040161215091906127cf565b60405180910390fd5b600061216783836000610fba565b9050600073ffffffffffffffffffffffffffffffffffffffff168173ffffffffffffffffffffffffffffffffffffffff16146121db5760006040517f73c6ac6e0000000000000000000000000000000000000000000000000000000081526004016121d291906127cf565b60405180910390fd5b505050565b6060600060016121ef84612390565b01905060008167ffffffffffffffff81111561220e5761220d612980565b5b6040519080825280601f01601f1916602001820160405280156122405781602001600182028036833780820191505090505b509050600082602001820190505b6001156122a3578080600190039150507f3031323334353637383961626364656600000000000000000000000000000000600a86061a8153600a8581612297576122966138e3565b5b0494506000850361224e575b819350505050919050565b60007f80ac58cd000000000000000000000000000000000000000000000000000000007bffffffffffffffffffffffffffffffffffffffffffffffffffffffff1916827bffffffffffffffffffffffffffffffffffffffffffffffffffffffff1916148061237957507f5b5e139f000000000000000000000000000000000000000000000000000000007bffffffffffffffffffffffffffffffffffffffffffffffffffffffff1916827bffffffffffffffffffffffffffffffffffffffffffffffffffffffff1916145b806123895750612388826124e3565b5b9050919050565b600080600090507a184f03e93ff9f4daa797ed6e38ed64bf6a1f01000000000000000083106123ee577a184f03e93ff9f4daa797ed6e38ed64bf6a1f01000000000000000083816123e4576123e36138e3565b5b0492506040810190505b6d04ee2d6d415b85acef8100000000831061242b576d04ee2d6d415b85acef81000000008381612421576124206138e3565b5b0492506020810190505b662386f26fc10000831061245a57662386f26fc1000083816124505761244f6138e3565b5b0492506010810190505b6305f5e1008310612483576305f5e1008381612479576124786138e3565b5b0492506008810190505b61271083106124a857612710838161249e5761249d6138e3565b5b0492506004810190505b606483106124cb57606483816124c1576124c06138e3565b5b0492506002810190505b600a83106124da576001810190505b80915050919050565b60007f01ffc9a7000000000000000000000000000000000000000000000000000000007bffffffffffffffffffffffffffffffffffffffffffffffffffffffff1916827bffffffffffffffffffffffffffffffffffffffffffffffffffffffff1916149050919050565b50805461255990613198565b6000825580601f1061256b575061258a565b601f016020900490600052602060002090810190612589919061258d565b5b50565b5b808211156125a657600081600090555060010161258e565b5090565b6000604051905090565b600080fd5b600080fd5b60007fffffffff0000000000000000000000000000000000000000000000000000000082169050919050565b6125f3816125be565b81146125fe57600080fd5b50565b600081359050612610816125ea565b92915050565b60006020828403121561262c5761262b6125b4565b5b600061263a84828501612601565b91505092915050565b60008115159050919050565b61265881612643565b82525050565b6000602082019050612673600083018461264f565b92915050565b600081519050919050565b600082825260208201905092915050565b60005b838110156126b3578082015181840152602081019050612698565b60008484015250505050565b6000601f19601f8301169050919050565b60006126db82612679565b6126e58185612684565b93506126f5818560208601612695565b6126fe816126bf565b840191505092915050565b6000602082019050818103600083015261272381846126d0565b905092915050565b6000819050919050565b61273e8161272b565b811461274957600080fd5b50565b60008135905061275b81612735565b92915050565b600060208284031215612777576127766125b4565b5b60006127858482850161274c565b91505092915050565b600073ffffffffffffffffffffffffffffffffffffffff82169050919050565b60006127b98261278e565b9050919050565b6127c9816127ae565b82525050565b60006020820190506127e460008301846127c0565b92915050565b6127f3816127ae565b81146127fe57600080fd5b50565b600081359050612810816127ea565b92915050565b6000806040838503121561282d5761282c6125b4565b5b600061283b85828601612801565b925050602061284c8582860161274c565b9150509250929050565b60008060006060848603121561286f5761286e6125b4565b5b600061287d86828701612801565b935050602061288e86828701612801565b925050604061289f8682870161274c565b9150509250925092565b6000819050919050565b6128bc816128a9565b81146128c757600080fd5b50565b6000813590506128d9816128b3565b92915050565b6000602082840312156128f5576128f46125b4565b5b6000612903848285016128ca565b91505092915050565b612915816128a9565b82525050565b6000602082019050612930600083018461290c565b92915050565b6000806040838503121561294d5761294c6125b4565b5b600061295b858286016128ca565b925050602061296c85828601612801565b9150509250929050565b600080fd5b600080fd5b7f4e487b7100000000000000000000000000000000000000000000000000000000600052604160045260246000fd5b6129b8826126bf565b810181811067ffffffffffffffff821117156129d7576129d6612980565b5b80604052505050565b60006129ea6125aa565b90506129f682826129af565b919050565b600067ffffffffffffffff821115612a1657612a15612980565b5b612a1f826126bf565b9050602081019050919050565b82818337600083830152505050565b6000612a4e612a49846129fb565b6129e0565b905082815260208101848484011115612a6a57612a6961297b565b5b612a75848285612a2c565b509392505050565b600082601f830112612a9257612a91612976565b5b8135612aa2848260208601612a3b565b91505092915050565b600080600060608486031215612ac457612ac36125b4565b5b6000612ad286828701612801565b9350506020612ae38682870161274c565b925050604084013567ffffffffffffffff811115612b0457612b036125b9565b5b612b1086828701612a7d565b9150509250925092565b600060208284031215612b3057612b2f6125b4565b5b6000612b3e84828501612801565b91505092915050565b612b508161272b565b82525050565b6000602082019050612b6b6000830184612b47565b92915050565b612b7a81612643565b8114612b8557600080fd5b50565b600081359050612b9781612b71565b92915050565b60008060408385031215612bb457612bb36125b4565b5b6000612bc285828601612801565b9250506020612bd385828601612b88565b9150509250929050565b600067ffffffffffffffff821115612bf857612bf7612980565b5b612c01826126bf565b9050602081019050919050565b6000612c21612c1c84612bdd565b6129e0565b905082815260208101848484011115612c3d57612c3c61297b565b5b612c48848285612a2c565b509392505050565b600082601f830112612c6557612c64612976565b5b8135612c75848260208601612c0e565b91505092915050565b60008060408385031215612c9557612c946125b4565b5b6000612ca38582860161274c565b925050602083013567ffffffffffffffff811115612cc457612cc36125b9565b5b612cd085828601612c50565b9150509250929050565b60008060008060808587031215612cf457612cf36125b4565b5b6000612d0287828801612801565b9450506020612d1387828801612801565b9350506040612d248782880161274c565b925050606085013567ffffffffffffffff811115612d4557612d446125b9565b5b612d5187828801612a7d565b91505092959194509250565b600067ffffffffffffffff821115612d7857612d77612980565b5b602082029050602081019050919050565b600080fd5b6000612da1612d9c84612d5d565b6129e0565b90508083825260208201905060208402830185811115612dc457612dc3612d89565b5b835b81811015612ded5780612dd9888261274c565b845260208401935050602081019050612dc6565b5050509392505050565b600082601f830112612e0c57612e0b612976565b5b8135612e1c848260208601612d8e565b91505092915050565b600080600080600060a08688031215612e4157612e406125b4565b5b6000612e4f88828901612801565b9550506020612e6088828901612801565b945050604086013567ffffffffffffffff811115612e8157612e806125b9565b5b612e8d88828901612df7565b935050606086013567ffffffffffffffff811115612eae57612ead6125b9565b5b612eba88828901612df7565b925050608086013567ffffffffffffffff811115612edb57612eda6125b9565b5b612ee788828901612a7d565b9150509295509295909350565b612efd816125be565b82525050565b6000602082019050612f186000830184612ef4565b92915050565b600080600060608486031215612f3757612f366125b4565b5b6000612f458682870161274c565b935050602084013567ffffffffffffffff811115612f6657612f656125b9565b5b612f7286828701612c50565b925050604084013567ffffffffffffffff811115612f9357612f926125b9565b5b612f9f86828701612a7d565b9150509250925092565b600080600060608486031215612fc257612fc16125b4565b5b6000612fd08682870161274c565b9350506020612fe18682870161274c565b925050604084013567ffffffffffffffff811115613002576130016125b9565b5b61300e86828701612c50565b9150509250925092565b6000819050919050565b600061303d6130386130338461278e565b613018565b61278e565b9050919050565b600061304f82613022565b9050919050565b600061306182613044565b9050919050565b61307181613056565b82525050565b600060208201905061308c6000830184613068565b92915050565b600080604083850312156130a9576130a86125b4565b5b60006130b785828601612801565b92505060206130c885828601612801565b9150509250929050565b600080600080600060a086880312156130ee576130ed6125b4565b5b60006130fc88828901612801565b955050602061310d88828901612801565b945050604061311e8882890161274c565b935050606061312f8882890161274c565b925050608086013567ffffffffffffffff8111156131505761314f6125b9565b5b61315c88828901612a7d565b9150509295509295909350565b7f4e487b7100000000000000000000000000000000000000000000000000000000600052602260045260246000fd5b600060028204905060018216806131b057607f821691505b6020821081036131c3576131c2613169565b5b50919050565b60006060820190506131de60008301866127c0565b6131eb6020830185612b47565b6131f860408301846127c0565b949350505050565b60008160601b9050919050565b600061321882613200565b9050919050565b600061322a8261320d565b9050919050565b61324261323d826127ae565b61321f565b82525050565b6000819050919050565b61326361325e8261272b565b613248565b82525050565b60006132758285613231565b6014820191506132858284613252565b6020820191508190509392505050565b6000819050919050565b60006132ba6132b56132b084613295565b613018565b61272b565b9050919050565b6132ca8161329f565b82525050565b60006040820190506132e560008301856127c0565b6132f260208301846132c1565b9392505050565b60008151905061330881612735565b92915050565b600060208284031215613324576133236125b4565b5b6000613332848285016132f9565b91505092915050565b7f696e73756666696369656e7420636f75706f6e206f7220496e76616c69640000600082015250565b6000613371601e83612684565b915061337c8261333b565b602082019050919050565b600060208201905081810360008301526133a081613364565b9050919050565b60006060820190506133bc60008301866127c0565b6133c960208301856132c1565b6133d660408301846132c1565b949350505050565b60008190508160005260206000209050919050565b60006020601f8301049050919050565b600082821b905092915050565b6000600883026134407fffffffffffffffffffffffffffffffffffffffffffffffffffffffffffffffff82613403565b61344a8683613403565b95508019841693508086168417925050509392505050565b600061347d6134786134738461272b565b613018565b61272b565b9050919050565b6000819050919050565b61349783613462565b6134ab6134a382613484565b848454613410565b825550505050565b600090565b6134c06134b3565b6134cb81848461348e565b505050565b5b818110156134ef576134e46000826134b8565b6001810190506134d1565b5050565b601f82111561353457613505816133de565b61350e846133f3565b8101602085101561351d578190505b613531613529856133f3565b8301826134d0565b50505b505050565b600082821c905092915050565b600061355760001984600802613539565b1980831691505092915050565b60006135708383613546565b9150826002028217905092915050565b61358982612679565b67ffffffffffffffff8111156135a2576135a1612980565b5b6135ac8254613198565b6135b78282856134f3565b600060209050601f8311600181146135ea57600084156135d8578287015190505b6135e28582613564565b86555061364a565b601f1984166135f8866133de565b60005b82811015613620578489015182556001820191506020850194506020810190506135fb565b8683101561363d5784890151613639601f891682613546565b8355505b6001600288020188555050505b505050505050565b7f5369676e617475726520496e76616c6964210000000000000000000000000000600082015250565b6000613688601283612684565b915061369382613652565b602082019050919050565b600060208201905081810360008301526136b78161367b565b9050919050565b600081519050919050565b600082825260208201905092915050565b60006136e5826136be565b6136ef81856136c9565b93506136ff818560208601612695565b613708816126bf565b840191505092915050565b600060808201905061372860008301876127c0565b61373560208301866127c0565b6137426040830185612b47565b818103606083015261375481846136da565b905095945050505050565b60008151905061376e816125ea565b92915050565b60006020828403121561378a576137896125b4565b5b60006137988482850161375f565b91505092915050565b600081905092915050565b60006137b782612679565b6137c181856137a1565b93506137d1818560208601612695565b80840191505092915050565b60006137e982856137ac565b91506137f582846137ac565b91508190509392505050565b600060408201905061381660008301856127c0565b6138236020830184612b47565b9392505050565b600060408201905061383f60008301856127c0565b61384c602083018461290c565b9392505050565b7f4e487b7100000000000000000000000000000000000000000000000000000000600052602160045260246000fd5b600060ff82169050919050565b61389881613882565b82525050565b60006080820190506138b3600083018761290c565b6138c0602083018661388f565b6138cd604083018561290c565b6138da606083018461290c565b95945050505050565b7f4e487b7100000000000000000000000000000000000000000000000000000000600052601260045260246000fdfea164736f6c634300081c000aa164736f6c634300081c000a",
  "linkReferences": {},
  "deployedLinkReferences": {}
}