{
  "_format": "hh-sol-artifact-1",
  "contractName": "Coupon",
  "sourceName": "contracts/cores/Coupon.sol",
  "abi": [
    {
      "inputs": [],
      "stateMutability": "nonpayable",
      "type": "constructor"
    },
    {
      "inputs": [],
      "name": "AccessControlBadConfirmation",
      "type": "error"
    },
    {
      "inputs": [
        {
          "internalType": "address",
          "name": "account",
          "type": "address"
        },
        {
          "internalType": "bytes32",
          "name": "neededRole",
          "type": "bytes32"
        }
      ],
      "name": "AccessControlUnauthorizedAccount",
      "type": "error"
    },
    {
      "inputs": [
        {
          "internalType": "address",
          "name": "sender",
          "type": "address"
        },
        {
          "internalType": "uint256",
          "name": "balance",
          "type": "uint256"
        },
        {
          "internalType": "uint256",
          "name": "needed",
          "type": "uint256"
        },
        {
          "internalType": "uint256",
          "name": "tokenId",
          "type": "uint256"
        }
      ],
      "name": "ERC1155InsufficientBalance",
      "type": "error"
    },
    {
      "inputs": [
        {
          "internalType": "address",
          "name": "approver",
          "type": "address"
        }
      ],
      "name": "ERC1155InvalidApprover",
      "type": "error"
    },
    {
      "inputs": [
        {
          "internalType": "uint256",
          "name": "idsLength",
          "type": "uint256"
        },
        {
          "internalType": "uint256",
          "name": "valuesLength",
          "type": "uint256"
        }
      ],
      "name": "ERC1155InvalidArrayLength",
      "type": "error"
    },
    {
      "inputs": [
        {
          "internalType": "address",
          "name": "operator",
          "type": "address"
        }
      ],
      "name": "ERC1155InvalidOperator",
      "type": "error"
    },
    {
      "inputs": [
        {
          "internalType": "address",
          "name": "receiver",
          "type": "address"
        }
      ],
      "name": "ERC1155InvalidReceiver",
      "type": "error"
    },
    {
      "inputs": [
        {
          "internalType": "address",
          "name": "sender",
          "type": "address"
        }
      ],
      "name": "ERC1155InvalidSender",
      "type": "error"
    },
    {
      "inputs": [
        {
          "internalType": "address",
          "name": "operator",
          "type": "address"
        },
        {
          "internalType": "address",
          "name": "owner",
          "type": "address"
        }
      ],
      "name": "ERC1155MissingApprovalForAll",
      "type": "error"
    },
    {
      "anonymous": false,
      "inputs": [
        {
          "indexed": true,
          "internalType": "address",
          "name": "account",
          "type": "address"
        },
        {
          "indexed": true,
          "internalType": "address",
          "name": "operator",
          "type": "address"
        },
        {
          "indexed": false,
          "internalType": "bool",
          "name": "approved",
          "type": "bool"
        }
      ],
      "name": "ApprovalForAll",
      "type": "event"
    },
    {
      "anonymous": false,
      "inputs": [
        {
          "indexed": true,
          "internalType": "bytes32",
          "name": "role",
          "type": "bytes32"
        },
        {
          "indexed": true,
          "internalType": "bytes32",
          "name": "previousAdminRole",
          "type": "bytes32"
        },
        {
          "indexed": true,
          "internalType": "bytes32",
          "name": "newAdminRole",
          "type": "bytes32"
        }
      ],
      "name": "RoleAdminChanged",
      "type": "event"
    },
    {
      "anonymous": false,
      "inputs": [
        {
          "indexed": true,
          "internalType": "bytes32",
          "name": "role",
          "type": "bytes32"
        },
        {
          "indexed": true,
          "internalType": "address",
          "name": "account",
          "type": "address"
        },
        {
          "indexed": true,
          "internalType": "address",
          "name": "sender",
          "type": "address"
        }
      ],
      "name": "RoleGranted",
      "type": "event"
    },
    {
      "anonymous": false,
      "inputs": [
        {
          "indexed": true,
          "internalType": "bytes32",
          "name": "role",
          "type": "bytes32"
        },
        {
          "indexed": true,
          "internalType": "address",
          "name": "account",
          "type": "address"
        },
        {
          "indexed": true,
          "internalType": "address",
          "name": "sender",
          "type": "address"
        }
      ],
      "name": "RoleRevoked",
      "type": "event"
    },
    {
      "anonymous": false,
      "inputs": [
        {
          "indexed": true,
          "internalType": "address",
          "name": "operator",
          "type": "address"
        },
        {
          "indexed": true,
          "internalType": "address",
          "name": "from",
          "type": "address"
        },
        {
          "indexed": true,
          "internalType": "address",
          "name": "to",
          "type": "address"
        },
        {
          "indexed": false,
          "internalType": "uint256[]",
          "name": "ids",
          "type": "uint256[]"
        },
        {
          "indexed": false,
          "internalType": "uint256[]",
          "name": "values",
          "type": "uint256[]"
        }
      ],
      "name": "TransferBatch",
      "type": "event"
    },
    {
      "anonymous": false,
      "inputs": [
        {
          "indexed": true,
          "internalType": "address",
          "name": "operator",
          "type": "address"
        },
        {
          "indexed": true,
          "internalType": "address",
          "name": "from",
          "type": "address"
        },
        {
          "indexed": true,
          "internalType": "address",
          "name": "to",
          "type": "address"
        },
        {
          "indexed": false,
          "internalType": "uint256",
          "name": "id",
          "type": "uint256"
        },
        {
          "indexed": false,
          "internalType": "uint256",
          "name": "value",
          "type": "uint256"
        }
      ],
      "name": "TransferSingle",
      "type": "event"
    },
    {
      "anonymous": false,
      "inputs": [
        {
          "indexed": false,
          "internalType": "string",
          "name": "value",
          "type": "string"
        },
        {
          "indexed": true,
          "internalType": "uint256",
          "name": "id",
          "type": "uint256"
        }
      ],
      "name": "URI",
      "type": "event"
    },
    {
      "inputs": [],
      "name": "DEFAULT_ADMIN_ROLE",
      "outputs": [
        {
          "internalType": "bytes32",
          "name": "",
          "type": "bytes32"
        }
      ],
      "stateMutability": "view",
      "type": "function"
    },
    {
      "inputs": [],
      "name": "MINTING_COUPON_ID",
      "outputs": [
        {
          "internalType": "uint256",
          "name": "",
          "type": "uint256"
        }
      ],
      "stateMutability": "view",
      "type": "function"
    },
    {
      "inputs": [
        {
          "internalType": "address",
          "name": "account",
          "type": "address"
        },
        {
          "internalType": "uint256",
          "name": "id",
          "type": "uint256"
        }
      ],
      "name": "balanceOf",
      "outputs": [
        {
          "internalType": "uint256",
          "name": "",
          "type": "uint256"
        }
      ],
      "stateMutability": "view",
      "type": "function"
    },
    {
      "inputs": [
        {
          "internalType": "address[]",
          "name": "accounts",
          "type": "address[]"
        },
        {
          "internalType": "uint256[]",
          "name": "ids",
          "type": "uint256[]"
        }
      ],
      "name": "balanceOfBatch",
      "outputs": [
        {
          "internalType": "uint256[]",
          "name": "",
          "type": "uint256[]"
        }
      ],
      "stateMutability": "view",
      "type": "function"
    },
    {
      "inputs": [
        {
          "internalType": "address",
          "name": "from",
          "type": "address"
        },
        {
          "internalType": "uint256",
          "name": "id",
          "type": "uint256"
        },
        {
          "internalType": "uint256",
          "name": "amount",
          "type": "uint256"
        }
      ],
      "name": "burn",
      "outputs": [],
      "stateMutability": "nonpayable",
      "type": "function"
    },
    {
      "inputs": [
        {
          "internalType": "bytes32",
          "name": "role",
          "type": "bytes32"
        }
      ],
      "name": "getRoleAdmin",
      "outputs": [
        {
          "internalType": "bytes32",
          "name": "",
          "type": "bytes32"
        }
      ],
      "stateMutability": "view",
      "type": "function"
    },
    {
      "inputs": [
        {
          "internalType": "bytes32",
          "name": "role",
          "type": "bytes32"
        },
        {
          "internalType": "address",
          "name": "account",
          "type": "address"
        }
      ],
      "name": "grantRole",
      "outputs": [],
      "stateMutability": "nonpayable",
      "type": "function"
    },
    {
      "inputs": [
        {
          "internalType": "bytes32",
          "name": "role",
          "type": "bytes32"
        },
        {
          "internalType": "address",
          "name": "account",
          "type": "address"
        }
      ],
      "name": "hasRole",
      "outputs": [
        {
          "internalType": "bool",
          "name": "",
          "type": "bool"
        }
      ],
      "stateMutability": "view",
      "type": "function"
    },
    {
      "inputs": [
        {
          "internalType": "address",
          "name": "account",
          "type": "address"
        },
        {
          "internalType": "address",
          "name": "operator",
          "type": "address"
        }
      ],
      "name": "isApprovedForAll",
      "outputs": [
        {
          "internalType": "bool",
          "name": "",
          "type": "bool"
        }
      ],
      "stateMutability": "view",
      "type": "function"
    },
    {
      "inputs": [
        {
          "internalType": "address",
          "name": "to",
          "type": "address"
        },
        {
          "internalType": "uint256",
          "name": "amount",
          "type": "uint256"
        }
      ],
      "name": "mintCoupon",
      "outputs": [],
      "stateMutability": "nonpayable",
      "type": "function"
    },
    {
      "inputs": [
        {
          "internalType": "bytes32",
          "name": "role",
          "type": "bytes32"
        },
        {
          "internalType": "address",
          "name": "callerConfirmation",
          "type": "address"
        }
      ],
      "name": "renounceRole",
      "outputs": [],
      "stateMutability": "nonpayable",
      "type": "function"
    },
    {
      "inputs": [
        {
          "internalType": "bytes32",
          "name": "role",
          "type": "bytes32"
        },
        {
          "internalType": "address",
          "name": "account",
          "type": "address"
        }
      ],
      "name": "revokeRole",
      "outputs": [],
      "stateMutability": "nonpayable",
      "type": "function"
    },
    {
      "inputs": [
        {
          "internalType": "address",
          "name": "from",
          "type": "address"
        },
        {
          "internalType": "address",
          "name": "to",
          "type": "address"
        },
        {
          "internalType": "uint256[]",
          "name": "ids",
          "type": "uint256[]"
        },
        {
          "internalType": "uint256[]",
          "name": "values",
          "type": "uint256[]"
        },
        {
          "internalType": "bytes",
          "name": "data",
          "type": "bytes"
        }
      ],
      "name": "safeBatchTransferFrom",
      "outputs": [],
      "stateMutability": "nonpayable",
      "type": "function"
    },
    {
      "inputs": [
        {
          "internalType": "address",
          "name": "from",
          "type": "address"
        },
        {
          "internalType": "address",
          "name": "to",
          "type": "address"
        },
        {
          "internalType": "uint256",
          "name": "id",
          "type": "uint256"
        },
        {
          "internalType": "uint256",
          "name": "value",
          "type": "uint256"
        },
        {
          "internalType": "bytes",
          "name": "data",
          "type": "bytes"
        }
      ],
      "name": "safeTransferFrom",
      "outputs": [],
      "stateMutability": "nonpayable",
      "type": "function"
    },
    {
      "inputs": [
        {
          "internalType": "address",
          "name": "operator",
          "type": "address"
        },
        {
          "internalType": "bool",
          "name": "approved",
          "type": "bool"
        }
      ],
      "name": "setApprovalForAll",
      "outputs": [],
      "stateMutability": "nonpayable",
      "type": "function"
    },
    {
      "inputs": [
        {
          "internalType": "bytes4",
          "name": "interfaceId",
          "type": "bytes4"
        }
      ],
      "name": "supportsInterface",
      "outputs": [
        {
          "internalType": "bool",
          "name": "",
          "type": "bool"
        }
      ],
      "stateMutability": "view",
      "type": "function"
    },
    {
      "inputs": [
        {
          "internalType": "uint256",
          "name": "",
          "type": "uint256"
        }
      ],
      "name": "uri",
      "outputs": [
        {
          "internalType": "string",
          "name": "",
          "type": "string"
        }
      ],
      "stateMutability": "view",
      "type": "function"
    }
  ],
  "bytecode": "0x608060405234801561001057600080fd5b50604051806020016040528060008152506100308161004a60201b60201c565b506100446000801b3361005d60201b60201c565b506104f0565b8060029081610059919061041e565b5050565b600061006f838361015b60201b60201c565b6101505760016003600085815260200190815260200160002060000160008473ffffffffffffffffffffffffffffffffffffffff1673ffffffffffffffffffffffffffffffffffffffff16815260200190815260200160002060006101000a81548160ff0219169083151502179055506100ed6101c660201b60201c565b73ffffffffffffffffffffffffffffffffffffffff168273ffffffffffffffffffffffffffffffffffffffff16847f2f8788117e7eff1d82e926ec794901d17c78024a50270940304540a733656f0d60405160405180910390a460019050610155565b600090505b92915050565b60006003600084815260200190815260200160002060000160008373ffffffffffffffffffffffffffffffffffffffff1673ffffffffffffffffffffffffffffffffffffffff16815260200190815260200160002060009054906101000a900460ff16905092915050565b600033905090565b600081519050919050565b7f4e487b7100000000000000000000000000000000000000000000000000000000600052604160045260246000fd5b7f4e487b7100000000000000000000000000000000000000000000000000000000600052602260045260246000fd5b6000600282049050600182168061024f57607f821691505b60208210810361026257610261610208565b5b50919050565b60008190508160005260206000209050919050565b60006020601f8301049050919050565b600082821b905092915050565b6000600883026102ca7fffffffffffffffffffffffffffffffffffffffffffffffffffffffffffffffff8261028d565b6102d4868361028d565b95508019841693508086168417925050509392505050565b6000819050919050565b6000819050919050565b600061031b610316610311846102ec565b6102f6565b6102ec565b9050919050565b6000819050919050565b61033583610300565b61034961034182610322565b84845461029a565b825550505050565b600090565b61035e610351565b61036981848461032c565b505050565b5b8181101561038d57610382600082610356565b60018101905061036f565b5050565b601f8211156103d2576103a381610268565b6103ac8461027d565b810160208510156103bb578190505b6103cf6103c78561027d565b83018261036e565b50505b505050565b600082821c905092915050565b60006103f5600019846008026103d7565b1980831691505092915050565b600061040e83836103e4565b9150826002028217905092915050565b610427826101ce565b67ffffffffffffffff8111156104405761043f6101d9565b5b61044a8254610237565b610455828285610391565b600060209050601f8311600181146104885760008415610476578287015190505b6104808582610402565b8655506104e8565b601f19841661049686610268565b60005b828110156104be57848901518255600182019150602085019450602081019050610499565b868310156104db57848901516104d7601f8916826103e4565b8355505b6001600288020188555050505b505050505050565b612869806104ff6000396000f3fe608060405234801561001057600080fd5b506004361061010a5760003560e01c8063510ffe14116100a2578063a22cb46511610071578063a22cb465146102db578063d547741f146102f7578063e985e9c514610313578063f242432a14610343578063f5298aca1461035f5761010a565b8063510ffe14146102535780638940f1c01461026f57806391d148541461028d578063a217fddf146102bd5761010a565b80632eb2c2d6116100de5780632eb2c2d6146101cf5780632f2ff15d146101eb57806336568abe146102075780634e1273f4146102235761010a565b8062fdd58e1461010f57806301ffc9a71461013f5780630e89341c1461016f578063248a9ca31461019f575b600080fd5b61012960048036038101906101249190611b10565b61037b565b6040516101369190611b5f565b60405180910390f35b61015960048036038101906101549190611bd2565b6103d5565b6040516101669190611c1a565b60405180910390f35b61018960048036038101906101849190611c35565b6103e7565b6040516101969190611cf2565b60405180910390f35b6101b960048036038101906101b49190611d4a565b61047b565b6040516101c69190611d86565b60405180910390f35b6101e960048036038101906101e49190611f9e565b61049b565b005b6102056004803603810190610200919061206d565b610543565b005b610221600480360381019061021c919061206d565b610565565b005b61023d60048036038101906102389190612170565b6105e0565b60405161024a91906122a6565b60405180910390f35b61026d60048036038101906102689190611b10565b6106e9565b005b610277610709565b6040516102849190611b5f565b60405180910390f35b6102a760048036038101906102a2919061206d565b61070e565b6040516102b49190611c1a565b60405180910390f35b6102c5610779565b6040516102d29190611d86565b60405180910390f35b6102f560048036038101906102f091906122f4565b610780565b005b610311600480360381019061030c919061206d565b610796565b005b61032d60048036038101906103289190612334565b6107b8565b60405161033a9190611c1a565b60405180910390f35b61035d60048036038101906103589190612374565b61084c565b005b6103796004803603810190610374919061240b565b6108f4565b005b600080600083815260200190815260200160002060008473ffffffffffffffffffffffffffffffffffffffff1673ffffffffffffffffffffffffffffffffffffffff16815260200190815260200160002054905092915050565b60006103e082610983565b9050919050565b6060600280546103f69061248d565b80601f01602080910402602001604051908101604052809291908181526020018280546104229061248d565b801561046f5780601f106104445761010080835404028352916020019161046f565b820191906000526020600020905b81548152906001019060200180831161045257829003601f168201915b50505050509050919050565b600060036000838152602001908152602001600020600101549050919050565b60006104a56109fd565b90508073ffffffffffffffffffffffffffffffffffffffff168673ffffffffffffffffffffffffffffffffffffffff16141580156104ea57506104e886826107b8565b155b1561052e5780866040517fe237d9220000000000000000000000000000000000000000000000000000000081526004016105259291906124cd565b60405180910390fd5b61053b8686868686610a05565b505050505050565b61054c8261047b565b61055581610afd565b61055f8383610b11565b50505050565b61056d6109fd565b73ffffffffffffffffffffffffffffffffffffffff168173ffffffffffffffffffffffffffffffffffffffff16146105d1576040517f6697b23200000000000000000000000000000000000000000000000000000000815260040160405180910390fd5b6105db8282610c03565b505050565b6060815183511461062c57815183516040517f5b0599910000000000000000000000000000000000000000000000000000000081526004016106239291906124f6565b60405180910390fd5b6000835167ffffffffffffffff81111561064957610648611da6565b5b6040519080825280602002602001820160405280156106775781602001602082028036833780820191505090505b50905060005b84518110156106de576106b461069c8287610cf690919063ffffffff16565b6106af8387610d0a90919063ffffffff16565b61037b565b8282815181106106c7576106c661251f565b5b60200260200101818152505080600101905061067d565b508091505092915050565b6107058260018360405180602001604052806000815250610d1e565b5050565b600181565b60006003600084815260200190815260200160002060000160008373ffffffffffffffffffffffffffffffffffffffff1673ffffffffffffffffffffffffffffffffffffffff16815260200190815260200160002060009054906101000a900460ff16905092915050565b6000801b81565b61079261078b6109fd565b8383610db7565b5050565b61079f8261047b565b6107a881610afd565b6107b28383610c03565b50505050565b6000600160008473ffffffffffffffffffffffffffffffffffffffff1673ffffffffffffffffffffffffffffffffffffffff16815260200190815260200160002060008373ffffffffffffffffffffffffffffffffffffffff1673ffffffffffffffffffffffffffffffffffffffff16815260200190815260200160002060009054906101000a900460ff16905092915050565b60006108566109fd565b90508073ffffffffffffffffffffffffffffffffffffffff168673ffffffffffffffffffffffffffffffffffffffff161415801561089b575061089986826107b8565b155b156108df5780866040517fe237d9220000000000000000000000000000000000000000000000000000000081526004016108d69291906124cd565b60405180910390fd5b6108ec8686868686610f27565b505050505050565b3373ffffffffffffffffffffffffffffffffffffffff168373ffffffffffffffffffffffffffffffffffffffff161480610934575061093383336107b8565b5b610973576040517f08c379a000000000000000000000000000000000000000000000000000000000815260040161096a906125c0565b60405180910390fd5b61097e838383611032565b505050565b60007f7965db0b000000000000000000000000000000000000000000000000000000007bffffffffffffffffffffffffffffffffffffffffffffffffffffffff1916827bffffffffffffffffffffffffffffffffffffffffffffffffffffffff191614806109f657506109f5826110d9565b5b9050919050565b600033905090565b600073ffffffffffffffffffffffffffffffffffffffff168473ffffffffffffffffffffffffffffffffffffffff1603610a775760006040517f57f447ce000000000000000000000000000000000000000000000000000000008152600401610a6e91906125e0565b60405180910390fd5b600073ffffffffffffffffffffffffffffffffffffffff168573ffffffffffffffffffffffffffffffffffffffff1603610ae95760006040517f01a83514000000000000000000000000000000000000000000000000000000008152600401610ae091906125e0565b60405180910390fd5b610af685858585856111bb565b5050505050565b610b0e81610b096109fd565b61126d565b50565b6000610b1d838361070e565b610bf85760016003600085815260200190815260200160002060000160008473ffffffffffffffffffffffffffffffffffffffff1673ffffffffffffffffffffffffffffffffffffffff16815260200190815260200160002060006101000a81548160ff021916908315150217905550610b956109fd565b73ffffffffffffffffffffffffffffffffffffffff168273ffffffffffffffffffffffffffffffffffffffff16847f2f8788117e7eff1d82e926ec794901d17c78024a50270940304540a733656f0d60405160405180910390a460019050610bfd565b600090505b92915050565b6000610c0f838361070e565b15610ceb5760006003600085815260200190815260200160002060000160008473ffffffffffffffffffffffffffffffffffffffff1673ffffffffffffffffffffffffffffffffffffffff16815260200190815260200160002060006101000a81548160ff021916908315150217905550610c886109fd565b73ffffffffffffffffffffffffffffffffffffffff168273ffffffffffffffffffffffffffffffffffffffff16847ff6391f5c32d9c69d2a47ea670b442974b53935d1edc7fd64eb21e047a839171b60405160405180910390a460019050610cf0565b600090505b92915050565b600060208202602084010151905092915050565b600060208202602084010151905092915050565b600073ffffffffffffffffffffffffffffffffffffffff168473ffffffffffffffffffffffffffffffffffffffff1603610d905760006040517f57f447ce000000000000000000000000000000000000000000000000000000008152600401610d8791906125e0565b60405180910390fd5b600080610d9d85856112be565b91509150610daf6000878484876111bb565b505050505050565b600073ffffffffffffffffffffffffffffffffffffffff168273ffffffffffffffffffffffffffffffffffffffff1603610e295760006040517fced3e100000000000000000000000000000000000000000000000000000000008152600401610e2091906125e0565b60405180910390fd5b80600160008573ffffffffffffffffffffffffffffffffffffffff1673ffffffffffffffffffffffffffffffffffffffff16815260200190815260200160002060008473ffffffffffffffffffffffffffffffffffffffff1673ffffffffffffffffffffffffffffffffffffffff16815260200190815260200160002060006101000a81548160ff0219169083151502179055508173ffffffffffffffffffffffffffffffffffffffff168373ffffffffffffffffffffffffffffffffffffffff167f17307eab39ab6107e8899845ad3d59bd9653f200f220920489ca2b5937696c3183604051610f1a9190611c1a565b60405180910390a3505050565b600073ffffffffffffffffffffffffffffffffffffffff168473ffffffffffffffffffffffffffffffffffffffff1603610f995760006040517f57f447ce000000000000000000000000000000000000000000000000000000008152600401610f9091906125e0565b60405180910390fd5b600073ffffffffffffffffffffffffffffffffffffffff168573ffffffffffffffffffffffffffffffffffffffff160361100b5760006040517f01a8351400000000000000000000000000000000000000000000000000000000815260040161100291906125e0565b60405180910390fd5b60008061101885856112be565b9150915061102987878484876111bb565b50505050505050565b600073ffffffffffffffffffffffffffffffffffffffff168373ffffffffffffffffffffffffffffffffffffffff16036110a45760006040517f01a8351400000000000000000000000000000000000000000000000000000000815260040161109b91906125e0565b60405180910390fd5b6000806110b184846112be565b915091506110d28560008484604051806020016040528060008152506111bb565b5050505050565b60007fd9b67a26000000000000000000000000000000000000000000000000000000007bffffffffffffffffffffffffffffffffffffffffffffffffffffffff1916827bffffffffffffffffffffffffffffffffffffffffffffffffffffffff191614806111a457507f0e89341c000000000000000000000000000000000000000000000000000000007bffffffffffffffffffffffffffffffffffffffffffffffffffffffff1916827bffffffffffffffffffffffffffffffffffffffffffffffffffffffff1916145b806111b457506111b3826112ee565b5b9050919050565b6111c785858585611358565b600073ffffffffffffffffffffffffffffffffffffffff168473ffffffffffffffffffffffffffffffffffffffff16146112665760006112056109fd565b90506001845103611255576000611226600086610d0a90919063ffffffff16565b9050600061123e600086610d0a90919063ffffffff16565b905061124e838989858589611700565b5050611264565b6112638187878787876118b4565b5b505b5050505050565b611277828261070e565b6112ba5780826040517fe2517d3f0000000000000000000000000000000000000000000000000000000081526004016112b19291906125fb565b60405180910390fd5b5050565b60608060405191506001825283602083015260408201905060018152826020820152604081016040529250929050565b60007f01ffc9a7000000000000000000000000000000000000000000000000000000007bffffffffffffffffffffffffffffffffffffffffffffffffffffffff1916827bffffffffffffffffffffffffffffffffffffffffffffffffffffffff1916149050919050565b80518251146113a257815181516040517f5b0599910000000000000000000000000000000000000000000000000000000081526004016113999291906124f6565b60405180910390fd5b60006113ac6109fd565b905060005b83518110156115bb5760006113cf8286610d0a90919063ffffffff16565b905060006113e68386610d0a90919063ffffffff16565b9050600073ffffffffffffffffffffffffffffffffffffffff168873ffffffffffffffffffffffffffffffffffffffff161461151357600080600084815260200190815260200160002060008a73ffffffffffffffffffffffffffffffffffffffff1673ffffffffffffffffffffffffffffffffffffffff168152602001908152602001600020549050818110156114bb57888183856040517f03dee4c50000000000000000000000000000000000000000000000000000000081526004016114b29493929190612624565b60405180910390fd5b81810360008085815260200190815260200160002060008b73ffffffffffffffffffffffffffffffffffffffff1673ffffffffffffffffffffffffffffffffffffffff16815260200190815260200160002081905550505b600073ffffffffffffffffffffffffffffffffffffffff168773ffffffffffffffffffffffffffffffffffffffff16146115ae578060008084815260200190815260200160002060008973ffffffffffffffffffffffffffffffffffffffff1673ffffffffffffffffffffffffffffffffffffffff16815260200190815260200160002060008282546115a69190612698565b925050819055505b50508060010190506113b1565b50600183510361167a5760006115db600085610d0a90919063ffffffff16565b905060006115f3600085610d0a90919063ffffffff16565b90508573ffffffffffffffffffffffffffffffffffffffff168773ffffffffffffffffffffffffffffffffffffffff168473ffffffffffffffffffffffffffffffffffffffff167fc3d58168c5ae7397731d063d5bbf3d657854427343f4c083240f7aacaa2d0f62858560405161166b9291906124f6565b60405180910390a450506116f9565b8373ffffffffffffffffffffffffffffffffffffffff168573ffffffffffffffffffffffffffffffffffffffff168273ffffffffffffffffffffffffffffffffffffffff167f4a39dc06d4c0dbc64b70af90fd698a233a518aa5d07e595d983b8c0526c8f7fb86866040516116f09291906126cc565b60405180910390a45b5050505050565b60008473ffffffffffffffffffffffffffffffffffffffff163b11156118ac578373ffffffffffffffffffffffffffffffffffffffff1663f23a6e6187878686866040518663ffffffff1660e01b8152600401611761959493929190612758565b6020604051808303816000875af192505050801561179d57506040513d601f19601f8201168201806040525081019061179a91906127c7565b60015b611821573d80600081146117cd576040519150601f19603f3d011682016040523d82523d6000602084013e6117d2565b606091505b50600081510361181957846040517f57f447ce00000000000000000000000000000000000000000000000000000000815260040161181091906125e0565b60405180910390fd5b805181602001fd5b63f23a6e6160e01b7bffffffffffffffffffffffffffffffffffffffffffffffffffffffff1916817bffffffffffffffffffffffffffffffffffffffffffffffffffffffff1916146118aa57846040517f57f447ce0000000000000000000000000000000000000000000000000000000081526004016118a191906125e0565b60405180910390fd5b505b505050505050565b60008473ffffffffffffffffffffffffffffffffffffffff163b1115611a60578373ffffffffffffffffffffffffffffffffffffffff1663bc197c8187878686866040518663ffffffff1660e01b81526004016119159594939291906127f4565b6020604051808303816000875af192505050801561195157506040513d601f19601f8201168201806040525081019061194e91906127c7565b60015b6119d5573d8060008114611981576040519150601f19603f3d011682016040523d82523d6000602084013e611986565b606091505b5060008151036119cd57846040517f57f447ce0000000000000000000000000000000000000000000000000000000081526004016119c491906125e0565b60405180910390fd5b805181602001fd5b63bc197c8160e01b7bffffffffffffffffffffffffffffffffffffffffffffffffffffffff1916817bffffffffffffffffffffffffffffffffffffffffffffffffffffffff191614611a5e57846040517f57f447ce000000000000000000000000000000000000000000000000000000008152600401611a5591906125e0565b60405180910390fd5b505b505050505050565b6000604051905090565b600080fd5b600080fd5b600073ffffffffffffffffffffffffffffffffffffffff82169050919050565b6000611aa782611a7c565b9050919050565b611ab781611a9c565b8114611ac257600080fd5b50565b600081359050611ad481611aae565b92915050565b6000819050919050565b611aed81611ada565b8114611af857600080fd5b50565b600081359050611b0a81611ae4565b92915050565b60008060408385031215611b2757611b26611a72565b5b6000611b3585828601611ac5565b9250506020611b4685828601611afb565b9150509250929050565b611b5981611ada565b82525050565b6000602082019050611b746000830184611b50565b92915050565b60007fffffffff0000000000000000000000000000000000000000000000000000000082169050919050565b611baf81611b7a565b8114611bba57600080fd5b50565b600081359050611bcc81611ba6565b92915050565b600060208284031215611be857611be7611a72565b5b6000611bf684828501611bbd565b91505092915050565b60008115159050919050565b611c1481611bff565b82525050565b6000602082019050611c2f6000830184611c0b565b92915050565b600060208284031215611c4b57611c4a611a72565b5b6000611c5984828501611afb565b91505092915050565b600081519050919050565b600082825260208201905092915050565b60005b83811015611c9c578082015181840152602081019050611c81565b60008484015250505050565b6000601f19601f8301169050919050565b6000611cc482611c62565b611cce8185611c6d565b9350611cde818560208601611c7e565b611ce781611ca8565b840191505092915050565b60006020820190508181036000830152611d0c8184611cb9565b905092915050565b6000819050919050565b611d2781611d14565b8114611d3257600080fd5b50565b600081359050611d4481611d1e565b92915050565b600060208284031215611d6057611d5f611a72565b5b6000611d6e84828501611d35565b91505092915050565b611d8081611d14565b82525050565b6000602082019050611d9b6000830184611d77565b92915050565b600080fd5b7f4e487b7100000000000000000000000000000000000000000000000000000000600052604160045260246000fd5b611dde82611ca8565b810181811067ffffffffffffffff82111715611dfd57611dfc611da6565b5b80604052505050565b6000611e10611a68565b9050611e1c8282611dd5565b919050565b600067ffffffffffffffff821115611e3c57611e3b611da6565b5b602082029050602081019050919050565b600080fd5b6000611e65611e6084611e21565b611e06565b90508083825260208201905060208402830185811115611e8857611e87611e4d565b5b835b81811015611eb15780611e9d8882611afb565b845260208401935050602081019050611e8a565b5050509392505050565b600082601f830112611ed057611ecf611da1565b5b8135611ee0848260208601611e52565b91505092915050565b600080fd5b600067ffffffffffffffff821115611f0957611f08611da6565b5b611f1282611ca8565b9050602081019050919050565b82818337600083830152505050565b6000611f41611f3c84611eee565b611e06565b905082815260208101848484011115611f5d57611f5c611ee9565b5b611f68848285611f1f565b509392505050565b600082601f830112611f8557611f84611da1565b5b8135611f95848260208601611f2e565b91505092915050565b600080600080600060a08688031215611fba57611fb9611a72565b5b6000611fc888828901611ac5565b9550506020611fd988828901611ac5565b945050604086013567ffffffffffffffff811115611ffa57611ff9611a77565b5b61200688828901611ebb565b935050606086013567ffffffffffffffff81111561202757612026611a77565b5b61203388828901611ebb565b925050608086013567ffffffffffffffff81111561205457612053611a77565b5b61206088828901611f70565b9150509295509295909350565b6000806040838503121561208457612083611a72565b5b600061209285828601611d35565b92505060206120a385828601611ac5565b9150509250929050565b600067ffffffffffffffff8211156120c8576120c7611da6565b5b602082029050602081019050919050565b60006120ec6120e7846120ad565b611e06565b9050808382526020820190506020840283018581111561210f5761210e611e4d565b5b835b8181101561213857806121248882611ac5565b845260208401935050602081019050612111565b5050509392505050565b600082601f83011261215757612156611da1565b5b81356121678482602086016120d9565b91505092915050565b6000806040838503121561218757612186611a72565b5b600083013567ffffffffffffffff8111156121a5576121a4611a77565b5b6121b185828601612142565b925050602083013567ffffffffffffffff8111156121d2576121d1611a77565b5b6121de85828601611ebb565b9150509250929050565b600081519050919050565b600082825260208201905092915050565b6000819050602082019050919050565b61221d81611ada565b82525050565b600061222f8383612214565b60208301905092915050565b6000602082019050919050565b6000612253826121e8565b61225d81856121f3565b935061226883612204565b8060005b838110156122995781516122808882612223565b975061228b8361223b565b92505060018101905061226c565b5085935050505092915050565b600060208201905081810360008301526122c08184612248565b905092915050565b6122d181611bff565b81146122dc57600080fd5b50565b6000813590506122ee816122c8565b92915050565b6000806040838503121561230b5761230a611a72565b5b600061231985828601611ac5565b925050602061232a858286016122df565b9150509250929050565b6000806040838503121561234b5761234a611a72565b5b600061235985828601611ac5565b925050602061236a85828601611ac5565b9150509250929050565b600080600080600060a086880312156123905761238f611a72565b5b600061239e88828901611ac5565b95505060206123af88828901611ac5565b94505060406123c088828901611afb565b93505060606123d188828901611afb565b925050608086013567ffffffffffffffff8111156123f2576123f1611a77565b5b6123fe88828901611f70565b9150509295509295909350565b60008060006060848603121561242457612423611a72565b5b600061243286828701611ac5565b935050602061244386828701611afb565b925050604061245486828701611afb565b9150509250925092565b7f4e487b7100000000000000000000000000000000000000000000000000000000600052602260045260246000fd5b600060028204905060018216806124a557607f821691505b6020821081036124b8576124b761245e565b5b50919050565b6124c781611a9c565b82525050565b60006040820190506124e260008301856124be565b6124ef60208301846124be565b9392505050565b600060408201905061250b6000830185611b50565b6125186020830184611b50565b9392505050565b7f4e487b7100000000000000000000000000000000000000000000000000000000600052603260045260246000fd5b7f455243313135353a2063616c6c6572206973206e6f74206f776e6572206e6f7260008201527f20617070726f7665640000000000000000000000000000000000000000000000602082015250565b60006125aa602983611c6d565b91506125b58261254e565b604082019050919050565b600060208201905081810360008301526125d98161259d565b9050919050565b60006020820190506125f560008301846124be565b92915050565b600060408201905061261060008301856124be565b61261d6020830184611d77565b9392505050565b600060808201905061263960008301876124be565b6126466020830186611b50565b6126536040830185611b50565b6126606060830184611b50565b95945050505050565b7f4e487b7100000000000000000000000000000000000000000000000000000000600052601160045260246000fd5b60006126a382611ada565b91506126ae83611ada565b92508282019050808211156126c6576126c5612669565b5b92915050565b600060408201905081810360008301526126e68185612248565b905081810360208301526126fa8184612248565b90509392505050565b600081519050919050565b600082825260208201905092915050565b600061272a82612703565b612734818561270e565b9350612744818560208601611c7e565b61274d81611ca8565b840191505092915050565b600060a08201905061276d60008301886124be565b61277a60208301876124be565b6127876040830186611b50565b6127946060830185611b50565b81810360808301526127a6818461271f565b90509695505050505050565b6000815190506127c181611ba6565b92915050565b6000602082840312156127dd576127dc611a72565b5b60006127eb848285016127b2565b91505092915050565b600060a08201905061280960008301886124be565b61281660208301876124be565b81810360408301526128288186612248565b9050818103606083015261283c8185612248565b90508181036080830152612850818461271f565b9050969550505050505056fea164736f6c634300081c000a",
  "linkReferences": {},
  "deployedLinkReferences": {}
}