{
  "_format": "hh-sol-artifact-1",
  "contractName": "BrandMetadata",
  "sourceName": "contracts/cores/BrandMetadata.sol",
  "abi": [
    {
      "inputs": [],
      "stateMutability": "nonpayable",
      "type": "constructor"
    },
    {
      "inputs": [],
      "name": "AccessControlBadConfirmation",
      "type": "error"
    },
    {
      "inputs": [
        {
          "internalType": "address",
          "name": "account",
          "type": "address"
        },
        {
          "internalType": "bytes32",
          "name": "neededRole",
          "type": "bytes32"
        }
      ],
      "name": "AccessControlUnauthorizedAccount",
      "type": "error"
    },
    {
      "inputs": [
        {
          "internalType": "address",
          "name": "sender",
          "type": "address"
        },
        {
          "internalType": "uint256",
          "name": "tokenId",
          "type": "uint256"
        },
        {
          "internalType": "address",
          "name": "owner",
          "type": "address"
        }
      ],
      "name": "ERC721IncorrectOwner",
      "type": "error"
    },
    {
      "inputs": [
        {
          "internalType": "address",
          "name": "operator",
          "type": "address"
        },
        {
          "internalType": "uint256",
          "name": "tokenId",
          "type": "uint256"
        }
      ],
      "name": "ERC721InsufficientApproval",
      "type": "error"
    },
    {
      "inputs": [
        {
          "internalType": "address",
          "name": "approver",
          "type": "address"
        }
      ],
      "name": "ERC721InvalidApprover",
      "type": "error"
    },
    {
      "inputs": [
        {
          "internalType": "address",
          "name": "operator",
          "type": "address"
        }
      ],
      "name": "ERC721InvalidOperator",
      "type": "error"
    },
    {
      "inputs": [
        {
          "internalType": "address",
          "name": "owner",
          "type": "address"
        }
      ],
      "name": "ERC721InvalidOwner",
      "type": "error"
    },
    {
      "inputs": [
        {
          "internalType": "address",
          "name": "receiver",
          "type": "address"
        }
      ],
      "name": "ERC721InvalidReceiver",
      "type": "error"
    },
    {
      "inputs": [
        {
          "internalType": "address",
          "name": "sender",
          "type": "address"
        }
      ],
      "name": "ERC721InvalidSender",
      "type": "error"
    },
    {
      "inputs": [
        {
          "internalType": "uint256",
          "name": "tokenId",
          "type": "uint256"
        }
      ],
      "name": "ERC721NonexistentToken",
      "type": "error"
    },
    {
      "anonymous": false,
      "inputs": [
        {
          "indexed": true,
          "internalType": "address",
          "name": "owner",
          "type": "address"
        },
        {
          "indexed": true,
          "internalType": "address",
          "name": "approved",
          "type": "address"
        },
        {
          "indexed": true,
          "internalType": "uint256",
          "name": "tokenId",
          "type": "uint256"
        }
      ],
      "name": "Approval",
      "type": "event"
    },
    {
      "anonymous": false,
      "inputs": [
        {
          "indexed": true,
          "internalType": "address",
          "name": "owner",
          "type": "address"
        },
        {
          "indexed": true,
          "internalType": "address",
          "name": "operator",
          "type": "address"
        },
        {
          "indexed": false,
          "internalType": "bool",
          "name": "approved",
          "type": "bool"
        }
      ],
      "name": "ApprovalForAll",
      "type": "event"
    },
    {
      "anonymous": false,
      "inputs": [
        {
          "indexed": false,
          "internalType": "uint256",
          "name": "_fromTokenId",
          "type": "uint256"
        },
        {
          "indexed": false,
          "internalType": "uint256",
          "name": "_toTokenId",
          "type": "uint256"
        }
      ],
      "name": "BatchMetadataUpdate",
      "type": "event"
    },
    {
      "anonymous": false,
      "inputs": [
        {
          "indexed": false,
          "internalType": "uint256",
          "name": "_tokenId",
          "type": "uint256"
        }
      ],
      "name": "MetadataUpdate",
      "type": "event"
    },
    {
      "anonymous": false,
      "inputs": [
        {
          "indexed": true,
          "internalType": "bytes32",
          "name": "role",
          "type": "bytes32"
        },
        {
          "indexed": true,
          "internalType": "bytes32",
          "name": "previousAdminRole",
          "type": "bytes32"
        },
        {
          "indexed": true,
          "internalType": "bytes32",
          "name": "newAdminRole",
          "type": "bytes32"
        }
      ],
      "name": "RoleAdminChanged",
      "type": "event"
    },
    {
      "anonymous": false,
      "inputs": [
        {
          "indexed": true,
          "internalType": "bytes32",
          "name": "role",
          "type": "bytes32"
        },
        {
          "indexed": true,
          "internalType": "address",
          "name": "account",
          "type": "address"
        },
        {
          "indexed": true,
          "internalType": "address",
          "name": "sender",
          "type": "address"
        }
      ],
      "name": "RoleGranted",
      "type": "event"
    },
    {
      "anonymous": false,
      "inputs": [
        {
          "indexed": true,
          "internalType": "bytes32",
          "name": "role",
          "type": "bytes32"
        },
        {
          "indexed": true,
          "internalType": "address",
          "name": "account",
          "type": "address"
        },
        {
          "indexed": true,
          "internalType": "address",
          "name": "sender",
          "type": "address"
        }
      ],
      "name": "RoleRevoked",
      "type": "event"
    },
    {
      "anonymous": false,
      "inputs": [
        {
          "indexed": true,
          "internalType": "address",
          "name": "from",
          "type": "address"
        },
        {
          "indexed": true,
          "internalType": "address",
          "name": "to",
          "type": "address"
        },
        {
          "indexed": true,
          "internalType": "uint256",
          "name": "tokenId",
          "type": "uint256"
        }
      ],
      "name": "Transfer",
      "type": "event"
    },
    {
      "inputs": [],
      "name": "DEFAULT_ADMIN_ROLE",
      "outputs": [
        {
          "internalType": "bytes32",
          "name": "",
          "type": "bytes32"
        }
      ],
      "stateMutability": "view",
      "type": "function"
    },
    {
      "inputs": [
        {
          "internalType": "address",
          "name": "to",
          "type": "address"
        },
        {
          "internalType": "uint256",
          "name": "tokenId",
          "type": "uint256"
        }
      ],
      "name": "approve",
      "outputs": [],
      "stateMutability": "nonpayable",
      "type": "function"
    },
    {
      "inputs": [
        {
          "internalType": "address",
          "name": "owner",
          "type": "address"
        }
      ],
      "name": "balanceOf",
      "outputs": [
        {
          "internalType": "uint256",
          "name": "",
          "type": "uint256"
        }
      ],
      "stateMutability": "view",
      "type": "function"
    },
    {
      "inputs": [
        {
          "internalType": "address",
          "name": "",
          "type": "address"
        }
      ],
      "name": "brandIds",
      "outputs": [
        {
          "internalType": "uint256",
          "name": "",
          "type": "uint256"
        }
      ],
      "stateMutability": "view",
      "type": "function"
    },
    {
      "inputs": [
        {
          "internalType": "uint256",
          "name": "tokenId",
          "type": "uint256"
        }
      ],
      "name": "getApproved",
      "outputs": [
        {
          "internalType": "address",
          "name": "",
          "type": "address"
        }
      ],
      "stateMutability": "view",
      "type": "function"
    },
    {
      "inputs": [
        {
          "internalType": "bytes32",
          "name": "role",
          "type": "bytes32"
        }
      ],
      "name": "getRoleAdmin",
      "outputs": [
        {
          "internalType": "bytes32",
          "name": "",
          "type": "bytes32"
        }
      ],
      "stateMutability": "view",
      "type": "function"
    },
    {
      "inputs": [
        {
          "internalType": "bytes32",
          "name": "role",
          "type": "bytes32"
        },
        {
          "internalType": "address",
          "name": "account",
          "type": "address"
        }
      ],
      "name": "grantRole",
      "outputs": [],
      "stateMutability": "nonpayable",
      "type": "function"
    },
    {
      "inputs": [
        {
          "internalType": "bytes32",
          "name": "role",
          "type": "bytes32"
        },
        {
          "internalType": "address",
          "name": "account",
          "type": "address"
        }
      ],
      "name": "hasRole",
      "outputs": [
        {
          "internalType": "bool",
          "name": "",
          "type": "bool"
        }
      ],
      "stateMutability": "view",
      "type": "function"
    },
    {
      "inputs": [
        {
          "internalType": "address",
          "name": "owner",
          "type": "address"
        },
        {
          "internalType": "address",
          "name": "operator",
          "type": "address"
        }
      ],
      "name": "isApprovedForAll",
      "outputs": [
        {
          "internalType": "bool",
          "name": "",
          "type": "bool"
        }
      ],
      "stateMutability": "view",
      "type": "function"
    },
    {
      "inputs": [
        {
          "internalType": "address",
          "name": "brandWallet",
          "type": "address"
        },
        {
          "internalType": "string",
          "name": "uri",
          "type": "string"
        }
      ],
      "name": "mint",
      "outputs": [],
      "stateMutability": "nonpayable",
      "type": "function"
    },
    {
      "inputs": [],
      "name": "name",
      "outputs": [
        {
          "internalType": "string",
          "name": "",
          "type": "string"
        }
      ],
      "stateMutability": "view",
      "type": "function"
    },
    {
      "inputs": [
        {
          "internalType": "address",
          "name": "",
          "type": "address"
        },
        {
          "internalType": "address",
          "name": "",
          "type": "address"
        },
        {
          "internalType": "uint256",
          "name": "",
          "type": "uint256"
        },
        {
          "internalType": "bytes",
          "name": "",
          "type": "bytes"
        }
      ],
      "name": "onERC721Received",
      "outputs": [
        {
          "internalType": "bytes4",
          "name": "",
          "type": "bytes4"
        }
      ],
      "stateMutability": "nonpayable",
      "type": "function"
    },
    {
      "inputs": [
        {
          "internalType": "uint256",
          "name": "tokenId",
          "type": "uint256"
        }
      ],
      "name": "ownerOf",
      "outputs": [
        {
          "internalType": "address",
          "name": "",
          "type": "address"
        }
      ],
      "stateMutability": "view",
      "type": "function"
    },
    {
      "inputs": [
        {
          "internalType": "bytes32",
          "name": "role",
          "type": "bytes32"
        },
        {
          "internalType": "address",
          "name": "callerConfirmation",
          "type": "address"
        }
      ],
      "name": "renounceRole",
      "outputs": [],
      "stateMutability": "nonpayable",
      "type": "function"
    },
    {
      "inputs": [
        {
          "internalType": "bytes32",
          "name": "role",
          "type": "bytes32"
        },
        {
          "internalType": "address",
          "name": "account",
          "type": "address"
        }
      ],
      "name": "revokeRole",
      "outputs": [],
      "stateMutability": "nonpayable",
      "type": "function"
    },
    {
      "inputs": [
        {
          "internalType": "address",
          "name": "from",
          "type": "address"
        },
        {
          "internalType": "address",
          "name": "to",
          "type": "address"
        },
        {
          "internalType": "uint256",
          "name": "tokenId",
          "type": "uint256"
        }
      ],
      "name": "safeTransferFrom",
      "outputs": [],
      "stateMutability": "nonpayable",
      "type": "function"
    },
    {
      "inputs": [
        {
          "internalType": "address",
          "name": "from",
          "type": "address"
        },
        {
          "internalType": "address",
          "name": "to",
          "type": "address"
        },
        {
          "internalType": "uint256",
          "name": "tokenId",
          "type": "uint256"
        },
        {
          "internalType": "bytes",
          "name": "data",
          "type": "bytes"
        }
      ],
      "name": "safeTransferFrom",
      "outputs": [],
      "stateMutability": "nonpayable",
      "type": "function"
    },
    {
      "inputs": [
        {
          "internalType": "address",
          "name": "operator",
          "type": "address"
        },
        {
          "internalType": "bool",
          "name": "approved",
          "type": "bool"
        }
      ],
      "name": "setApprovalForAll",
      "outputs": [],
      "stateMutability": "nonpayable",
      "type": "function"
    },
    {
      "inputs": [
        {
          "internalType": "bytes4",
          "name": "interfaceId",
          "type": "bytes4"
        }
      ],
      "name": "supportsInterface",
      "outputs": [
        {
          "internalType": "bool",
          "name": "",
          "type": "bool"
        }
      ],
      "stateMutability": "view",
      "type": "function"
    },
    {
      "inputs": [],
      "name": "symbol",
      "outputs": [
        {
          "internalType": "string",
          "name": "",
          "type": "string"
        }
      ],
      "stateMutability": "view",
      "type": "function"
    },
    {
      "inputs": [
        {
          "internalType": "uint256",
          "name": "tokenId",
          "type": "uint256"
        }
      ],
      "name": "tokenURI",
      "outputs": [
        {
          "internalType": "string",
          "name": "",
          "type": "string"
        }
      ],
      "stateMutability": "view",
      "type": "function"
    },
    {
      "inputs": [
        {
          "internalType": "address",
          "name": "from",
          "type": "address"
        },
        {
          "internalType": "address",
          "name": "to",
          "type": "address"
        },
        {
          "internalType": "uint256",
          "name": "tokenId",
          "type": "uint256"
        }
      ],
      "name": "transferFrom",
      "outputs": [],
      "stateMutability": "nonpayable",
      "type": "function"
    }
  ],
  "bytecode": "0x6080604052600160085534801561001557600080fd5b506040518060400160405280600a81526020017f4272616e6420496e666f000000000000000000000000000000000000000000008152506040518060400160405280600481526020017f496e666f000000000000000000000000000000000000000000000000000000008152508160009081610091919061047e565b5080600190816100a1919061047e565b5050506100b76000801b336100bd60201b60201c565b50610550565b60006100cf83836101bb60201b60201c565b6101b05760016007600085815260200190815260200160002060000160008473ffffffffffffffffffffffffffffffffffffffff1673ffffffffffffffffffffffffffffffffffffffff16815260200190815260200160002060006101000a81548160ff02191690831515021790555061014d61022660201b60201c565b73ffffffffffffffffffffffffffffffffffffffff168273ffffffffffffffffffffffffffffffffffffffff16847f2f8788117e7eff1d82e926ec794901d17c78024a50270940304540a733656f0d60405160405180910390a4600190506101b5565b600090505b92915050565b60006007600084815260200190815260200160002060000160008373ffffffffffffffffffffffffffffffffffffffff1673ffffffffffffffffffffffffffffffffffffffff16815260200190815260200160002060009054906101000a900460ff16905092915050565b600033905090565b600081519050919050565b7f4e487b7100000000000000000000000000000000000000000000000000000000600052604160045260246000fd5b7f4e487b7100000000000000000000000000000000000000000000000000000000600052602260045260246000fd5b600060028204905060018216806102af57607f821691505b6020821081036102c2576102c1610268565b5b50919050565b60008190508160005260206000209050919050565b60006020601f8301049050919050565b600082821b905092915050565b60006008830261032a7fffffffffffffffffffffffffffffffffffffffffffffffffffffffffffffffff826102ed565b61033486836102ed565b95508019841693508086168417925050509392505050565b6000819050919050565b6000819050919050565b600061037b6103766103718461034c565b610356565b61034c565b9050919050565b6000819050919050565b61039583610360565b6103a96103a182610382565b8484546102fa565b825550505050565b600090565b6103be6103b1565b6103c981848461038c565b505050565b5b818110156103ed576103e26000826103b6565b6001810190506103cf565b5050565b601f82111561043257610403816102c8565b61040c846102dd565b8101602085101561041b578190505b61042f610427856102dd565b8301826103ce565b50505b505050565b600082821c905092915050565b600061045560001984600802610437565b1980831691505092915050565b600061046e8383610444565b9150826002028217905092915050565b6104878261022e565b67ffffffffffffffff8111156104a05761049f610239565b5b6104aa8254610297565b6104b58282856103f1565b600060209050601f8311600181146104e857600084156104d6578287015190505b6104e08582610462565b865550610548565b601f1984166104f6866102c8565b60005b8281101561051e578489015182556001820191506020850194506020810190506104f9565b8683101561053b5784890151610537601f891682610444565b8355505b6001600288020188555050505b505050505050565b612bc48061055f6000396000f3fe608060405234801561001057600080fd5b50600436106101425760003560e01c806370a08231116100b8578063b88d4fde1161007c578063b88d4fde14610399578063c87b56dd146103b5578063cb840570146103e5578063d0def52114610415578063d547741f14610431578063e985e9c51461044d57610142565b806370a08231146102e157806391d148541461031157806395d89b4114610341578063a217fddf1461035f578063a22cb4651461037d57610142565b806323b872dd1161010a57806323b872dd14610211578063248a9ca31461022d5780632f2ff15d1461025d57806336568abe1461027957806342842e0e146102955780636352211e146102b157610142565b806301ffc9a71461014757806306fdde0314610177578063081812fc14610195578063095ea7b3146101c5578063150b7a02146101e1575b600080fd5b610161600480360381019061015c9190611eb9565b61047d565b60405161016e9190611f01565b60405180910390f35b61017f61048f565b60405161018c9190611fac565b60405180910390f35b6101af60048036038101906101aa9190612004565b610521565b6040516101bc9190612072565b60405180910390f35b6101df60048036038101906101da91906120b9565b61053d565b005b6101fb60048036038101906101f6919061222e565b610553565b60405161020891906122c0565b60405180910390f35b61022b600480360381019061022691906122db565b610567565b005b61024760048036038101906102429190612364565b610669565b60405161025491906123a0565b60405180910390f35b610277600480360381019061027291906123bb565b610689565b005b610293600480360381019061028e91906123bb565b6106ab565b005b6102af60048036038101906102aa91906122db565b610726565b005b6102cb60048036038101906102c69190612004565b610746565b6040516102d89190612072565b60405180910390f35b6102fb60048036038101906102f691906123fb565b610758565b6040516103089190612437565b60405180910390f35b61032b600480360381019061032691906123bb565b610812565b6040516103389190611f01565b60405180910390f35b61034961087d565b6040516103569190611fac565b60405180910390f35b61036761090f565b60405161037491906123a0565b60405180910390f35b6103976004803603810190610392919061247e565b610916565b005b6103b360048036038101906103ae919061222e565b61092c565b005b6103cf60048036038101906103ca9190612004565b610951565b6040516103dc9190611fac565b60405180910390f35b6103ff60048036038101906103fa91906123fb565b610963565b60405161040c9190612437565b60405180910390f35b61042f600480360381019061042a919061255f565b61097b565b005b61044b600480360381019061044691906123bb565b610a3b565b005b610467600480360381019061046291906125bb565b610a5d565b6040516104749190611f01565b60405180910390f35b600061048882610af1565b9050919050565b60606000805461049e9061262a565b80601f01602080910402602001604051908101604052809291908181526020018280546104ca9061262a565b80156105175780601f106104ec57610100808354040283529160200191610517565b820191906000526020600020905b8154815290600101906020018083116104fa57829003601f168201915b5050505050905090565b600061052c82610b6b565b5061053682610bf3565b9050919050565b61054f828261054a610c30565b610c38565b5050565b600063150b7a0260e01b9050949350505050565b600073ffffffffffffffffffffffffffffffffffffffff168273ffffffffffffffffffffffffffffffffffffffff16036105d95760006040517f64a0ae920000000000000000000000000000000000000000000000000000000081526004016105d09190612072565b60405180910390fd5b60006105ed83836105e8610c30565b610c4a565b90508373ffffffffffffffffffffffffffffffffffffffff168173ffffffffffffffffffffffffffffffffffffffff1614610663578382826040517f64283d7b00000000000000000000000000000000000000000000000000000000815260040161065a9392919061265b565b60405180910390fd5b50505050565b600060076000838152602001908152602001600020600101549050919050565b61069282610669565b61069b81610e64565b6106a58383610e78565b50505050565b6106b3610c30565b73ffffffffffffffffffffffffffffffffffffffff168173ffffffffffffffffffffffffffffffffffffffff1614610717576040517f6697b23200000000000000000000000000000000000000000000000000000000815260040160405180910390fd5b6107218282610f6a565b505050565b6107418383836040518060200160405280600081525061092c565b505050565b600061075182610b6b565b9050919050565b60008073ffffffffffffffffffffffffffffffffffffffff168273ffffffffffffffffffffffffffffffffffffffff16036107cb5760006040517f89c62b640000000000000000000000000000000000000000000000000000000081526004016107c29190612072565b60405180910390fd5b600360008373ffffffffffffffffffffffffffffffffffffffff1673ffffffffffffffffffffffffffffffffffffffff168152602001908152602001600020549050919050565b60006007600084815260200190815260200160002060000160008373ffffffffffffffffffffffffffffffffffffffff1673ffffffffffffffffffffffffffffffffffffffff16815260200190815260200160002060009054906101000a900460ff16905092915050565b60606001805461088c9061262a565b80601f01602080910402602001604051908101604052809291908181526020018280546108b89061262a565b80156109055780601f106108da57610100808354040283529160200191610905565b820191906000526020600020905b8154815290600101906020018083116108e857829003601f168201915b5050505050905090565b6000801b81565b610928610921610c30565b838361105d565b5050565b610937848484610567565b61094b610942610c30565b858585856111cc565b50505050565b606061095c8261137d565b9050919050565b60096020528060005260406000206000915090505481565b6109886000801b33610812565b6109c7576040517f08c379a00000000000000000000000000000000000000000000000000000000081526004016109be906126de565b60405180910390fd5b6109d330600854611490565b6109df600854826114ae565b600960008373ffffffffffffffffffffffffffffffffffffffff1673ffffffffffffffffffffffffffffffffffffffff1681526020019081526020016000205060086000815480929190610a329061272d565b91905055505050565b610a4482610669565b610a4d81610e64565b610a578383610f6a565b50505050565b6000600560008473ffffffffffffffffffffffffffffffffffffffff1673ffffffffffffffffffffffffffffffffffffffff16815260200190815260200160002060008373ffffffffffffffffffffffffffffffffffffffff1673ffffffffffffffffffffffffffffffffffffffff16815260200190815260200160002060009054906101000a900460ff16905092915050565b60007f7965db0b000000000000000000000000000000000000000000000000000000007bffffffffffffffffffffffffffffffffffffffffffffffffffffffff1916827bffffffffffffffffffffffffffffffffffffffffffffffffffffffff19161480610b645750610b638261150a565b5b9050919050565b600080610b778361156b565b9050600073ffffffffffffffffffffffffffffffffffffffff168173ffffffffffffffffffffffffffffffffffffffff1603610bea57826040517f7e273289000000000000000000000000000000000000000000000000000000008152600401610be19190612437565b60405180910390fd5b80915050919050565b60006004600083815260200190815260200160002060009054906101000a900473ffffffffffffffffffffffffffffffffffffffff169050919050565b600033905090565b610c4583838360016115a8565b505050565b600080610c568461156b565b9050600073ffffffffffffffffffffffffffffffffffffffff168373ffffffffffffffffffffffffffffffffffffffff1614610c9857610c9781848661176d565b5b600073ffffffffffffffffffffffffffffffffffffffff168173ffffffffffffffffffffffffffffffffffffffff1614610d2957610cda6000856000806115a8565b6001600360008373ffffffffffffffffffffffffffffffffffffffff1673ffffffffffffffffffffffffffffffffffffffff168152602001908152602001600020600082825403925050819055505b600073ffffffffffffffffffffffffffffffffffffffff168573ffffffffffffffffffffffffffffffffffffffff1614610dac576001600360008773ffffffffffffffffffffffffffffffffffffffff1673ffffffffffffffffffffffffffffffffffffffff168152602001908152602001600020600082825401925050819055505b846002600086815260200190815260200160002060006101000a81548173ffffffffffffffffffffffffffffffffffffffff021916908373ffffffffffffffffffffffffffffffffffffffff160217905550838573ffffffffffffffffffffffffffffffffffffffff168273ffffffffffffffffffffffffffffffffffffffff167fddf252ad1be2c89b69c2b068fc378daa952ba7f163c4a11628f55a4df523b3ef60405160405180910390a4809150509392505050565b610e7581610e70610c30565b611831565b50565b6000610e848383610812565b610f5f5760016007600085815260200190815260200160002060000160008473ffffffffffffffffffffffffffffffffffffffff1673ffffffffffffffffffffffffffffffffffffffff16815260200190815260200160002060006101000a81548160ff021916908315150217905550610efc610c30565b73ffffffffffffffffffffffffffffffffffffffff168273ffffffffffffffffffffffffffffffffffffffff16847f2f8788117e7eff1d82e926ec794901d17c78024a50270940304540a733656f0d60405160405180910390a460019050610f64565b600090505b92915050565b6000610f768383610812565b156110525760006007600085815260200190815260200160002060000160008473ffffffffffffffffffffffffffffffffffffffff1673ffffffffffffffffffffffffffffffffffffffff16815260200190815260200160002060006101000a81548160ff021916908315150217905550610fef610c30565b73ffffffffffffffffffffffffffffffffffffffff168273ffffffffffffffffffffffffffffffffffffffff16847ff6391f5c32d9c69d2a47ea670b442974b53935d1edc7fd64eb21e047a839171b60405160405180910390a460019050611057565b600090505b92915050565b600073ffffffffffffffffffffffffffffffffffffffff168273ffffffffffffffffffffffffffffffffffffffff16036110ce57816040517f5b08ba180000000000000000000000000000000000000000000000000000000081526004016110c59190612072565b60405180910390fd5b80600560008573ffffffffffffffffffffffffffffffffffffffff1673ffffffffffffffffffffffffffffffffffffffff16815260200190815260200160002060008473ffffffffffffffffffffffffffffffffffffffff1673ffffffffffffffffffffffffffffffffffffffff16815260200190815260200160002060006101000a81548160ff0219169083151502179055508173ffffffffffffffffffffffffffffffffffffffff168373ffffffffffffffffffffffffffffffffffffffff167f17307eab39ab6107e8899845ad3d59bd9653f200f220920489ca2b5937696c31836040516111bf9190611f01565b60405180910390a3505050565b60008373ffffffffffffffffffffffffffffffffffffffff163b1115611376578273ffffffffffffffffffffffffffffffffffffffff1663150b7a02868685856040518563ffffffff1660e01b815260040161122b94939291906127ca565b6020604051808303816000875af192505050801561126757506040513d601f19601f82011682018060405250810190611264919061282b565b60015b6112eb573d8060008114611297576040519150601f19603f3d011682016040523d82523d6000602084013e61129c565b606091505b5060008151036112e357836040517f64a0ae920000000000000000000000000000000000000000000000000000000081526004016112da9190612072565b60405180910390fd5b805181602001fd5b63150b7a0260e01b7bffffffffffffffffffffffffffffffffffffffffffffffffffffffff1916817bffffffffffffffffffffffffffffffffffffffffffffffffffffffff19161461137457836040517f64a0ae9200000000000000000000000000000000000000000000000000000000815260040161136b9190612072565b60405180910390fd5b505b5050505050565b606061138882610b6b565b5060006006600084815260200190815260200160002080546113a99061262a565b80601f01602080910402602001604051908101604052809291908181526020018280546113d59061262a565b80156114225780601f106113f757610100808354040283529160200191611422565b820191906000526020600020905b81548152906001019060200180831161140557829003601f168201915b505050505090506000611433611882565b9050600081510361144857819250505061148b565b60008251111561147d578082604051602001611465929190612894565b6040516020818303038152906040529250505061148b565b61148684611899565b925050505b919050565b6114aa828260405180602001604052806000815250611902565b5050565b806006600084815260200190815260200160002090816114ce9190612a64565b507ff8e1a15aba9398e019f0b49df1a4fde98ee17ae345cb5f6b5e2c27f5033e8ce7826040516114fe9190612437565b60405180910390a15050565b6000634906490660e01b7bffffffffffffffffffffffffffffffffffffffffffffffffffffffff1916827bffffffffffffffffffffffffffffffffffffffffffffffffffffffff19161480611564575061156382611926565b5b9050919050565b60006002600083815260200190815260200160002060009054906101000a900473ffffffffffffffffffffffffffffffffffffffff169050919050565b80806115e15750600073ffffffffffffffffffffffffffffffffffffffff168273ffffffffffffffffffffffffffffffffffffffff1614155b156117155760006115f184610b6b565b9050600073ffffffffffffffffffffffffffffffffffffffff168373ffffffffffffffffffffffffffffffffffffffff161415801561165c57508273ffffffffffffffffffffffffffffffffffffffff168173ffffffffffffffffffffffffffffffffffffffff1614155b801561166f575061166d8184610a5d565b155b156116b157826040517fa9fbf51f0000000000000000000000000000000000000000000000000000000081526004016116a89190612072565b60405180910390fd5b811561171357838573ffffffffffffffffffffffffffffffffffffffff168273ffffffffffffffffffffffffffffffffffffffff167f8c5be1e5ebec7d5bd14f71427d1e84f3dd0314c0f7b2291e5b200ac8c7c3b92560405160405180910390a45b505b836004600085815260200190815260200160002060006101000a81548173ffffffffffffffffffffffffffffffffffffffff021916908373ffffffffffffffffffffffffffffffffffffffff16021790555050505050565b611778838383611a08565b61182c57600073ffffffffffffffffffffffffffffffffffffffff168373ffffffffffffffffffffffffffffffffffffffff16036117ed57806040517f7e2732890000000000000000000000000000000000000000000000000000000081526004016117e49190612437565b60405180910390fd5b81816040517f177e802f000000000000000000000000000000000000000000000000000000008152600401611823929190612b36565b60405180910390fd5b505050565b61183b8282610812565b61187e5780826040517fe2517d3f000000000000000000000000000000000000000000000000000000008152600401611875929190612b5f565b60405180910390fd5b5050565b606060405180602001604052806000815250905090565b60606118a482610b6b565b5060006118af611882565b905060008151116118cf57604051806020016040528060008152506118fa565b806118d984611ac9565b6040516020016118ea929190612894565b6040516020818303038152906040525b915050919050565b61190c8383611b97565b611921611917610c30565b60008585856111cc565b505050565b60007f80ac58cd000000000000000000000000000000000000000000000000000000007bffffffffffffffffffffffffffffffffffffffffffffffffffffffff1916827bffffffffffffffffffffffffffffffffffffffffffffffffffffffff191614806119f157507f5b5e139f000000000000000000000000000000000000000000000000000000007bffffffffffffffffffffffffffffffffffffffffffffffffffffffff1916827bffffffffffffffffffffffffffffffffffffffffffffffffffffffff1916145b80611a015750611a0082611c90565b5b9050919050565b60008073ffffffffffffffffffffffffffffffffffffffff168373ffffffffffffffffffffffffffffffffffffffff1614158015611ac057508273ffffffffffffffffffffffffffffffffffffffff168473ffffffffffffffffffffffffffffffffffffffff161480611a815750611a808484610a5d565b5b80611abf57508273ffffffffffffffffffffffffffffffffffffffff16611aa783610bf3565b73ffffffffffffffffffffffffffffffffffffffff16145b5b90509392505050565b606060006001611ad884611cfa565b01905060008167ffffffffffffffff811115611af757611af6612103565b5b6040519080825280601f01601f191660200182016040528015611b295781602001600182028036833780820191505090505b509050600082602001820190505b600115611b8c578080600190039150507f3031323334353637383961626364656600000000000000000000000000000000600a86061a8153600a8581611b8057611b7f612b88565b5b04945060008503611b37575b819350505050919050565b600073ffffffffffffffffffffffffffffffffffffffff168273ffffffffffffffffffffffffffffffffffffffff1603611c095760006040517f64a0ae92000000000000000000000000000000000000000000000000000000008152600401611c009190612072565b60405180910390fd5b6000611c1783836000610c4a565b9050600073ffffffffffffffffffffffffffffffffffffffff168173ffffffffffffffffffffffffffffffffffffffff1614611c8b5760006040517f73c6ac6e000000000000000000000000000000000000000000000000000000008152600401611c829190612072565b60405180910390fd5b505050565b60007f01ffc9a7000000000000000000000000000000000000000000000000000000007bffffffffffffffffffffffffffffffffffffffffffffffffffffffff1916827bffffffffffffffffffffffffffffffffffffffffffffffffffffffff1916149050919050565b600080600090507a184f03e93ff9f4daa797ed6e38ed64bf6a1f0100000000000000008310611d58577a184f03e93ff9f4daa797ed6e38ed64bf6a1f0100000000000000008381611d4e57611d4d612b88565b5b0492506040810190505b6d04ee2d6d415b85acef81000000008310611d95576d04ee2d6d415b85acef81000000008381611d8b57611d8a612b88565b5b0492506020810190505b662386f26fc100008310611dc457662386f26fc100008381611dba57611db9612b88565b5b0492506010810190505b6305f5e1008310611ded576305f5e1008381611de357611de2612b88565b5b0492506008810190505b6127108310611e12576127108381611e0857611e07612b88565b5b0492506004810190505b60648310611e355760648381611e2b57611e2a612b88565b5b0492506002810190505b600a8310611e44576001810190505b80915050919050565b6000604051905090565b600080fd5b600080fd5b60007fffffffff0000000000000000000000000000000000000000000000000000000082169050919050565b611e9681611e61565b8114611ea157600080fd5b50565b600081359050611eb381611e8d565b92915050565b600060208284031215611ecf57611ece611e57565b5b6000611edd84828501611ea4565b91505092915050565b60008115159050919050565b611efb81611ee6565b82525050565b6000602082019050611f166000830184611ef2565b92915050565b600081519050919050565b600082825260208201905092915050565b60005b83811015611f56578082015181840152602081019050611f3b565b60008484015250505050565b6000601f19601f8301169050919050565b6000611f7e82611f1c565b611f888185611f27565b9350611f98818560208601611f38565b611fa181611f62565b840191505092915050565b60006020820190508181036000830152611fc68184611f73565b905092915050565b6000819050919050565b611fe181611fce565b8114611fec57600080fd5b50565b600081359050611ffe81611fd8565b92915050565b60006020828403121561201a57612019611e57565b5b600061202884828501611fef565b91505092915050565b600073ffffffffffffffffffffffffffffffffffffffff82169050919050565b600061205c82612031565b9050919050565b61206c81612051565b82525050565b60006020820190506120876000830184612063565b92915050565b61209681612051565b81146120a157600080fd5b50565b6000813590506120b38161208d565b92915050565b600080604083850312156120d0576120cf611e57565b5b60006120de858286016120a4565b92505060206120ef85828601611fef565b9150509250929050565b600080fd5b600080fd5b7f4e487b7100000000000000000000000000000000000000000000000000000000600052604160045260246000fd5b61213b82611f62565b810181811067ffffffffffffffff8211171561215a57612159612103565b5b80604052505050565b600061216d611e4d565b90506121798282612132565b919050565b600067ffffffffffffffff82111561219957612198612103565b5b6121a282611f62565b9050602081019050919050565b82818337600083830152505050565b60006121d16121cc8461217e565b612163565b9050828152602081018484840111156121ed576121ec6120fe565b5b6121f88482856121af565b509392505050565b600082601f830112612215576122146120f9565b5b81356122258482602086016121be565b91505092915050565b6000806000806080858703121561224857612247611e57565b5b6000612256878288016120a4565b9450506020612267878288016120a4565b935050604061227887828801611fef565b925050606085013567ffffffffffffffff81111561229957612298611e5c565b5b6122a587828801612200565b91505092959194509250565b6122ba81611e61565b82525050565b60006020820190506122d560008301846122b1565b92915050565b6000806000606084860312156122f4576122f3611e57565b5b6000612302868287016120a4565b9350506020612313868287016120a4565b925050604061232486828701611fef565b9150509250925092565b6000819050919050565b6123418161232e565b811461234c57600080fd5b50565b60008135905061235e81612338565b92915050565b60006020828403121561237a57612379611e57565b5b60006123888482850161234f565b91505092915050565b61239a8161232e565b82525050565b60006020820190506123b56000830184612391565b92915050565b600080604083850312156123d2576123d1611e57565b5b60006123e08582860161234f565b92505060206123f1858286016120a4565b9150509250929050565b60006020828403121561241157612410611e57565b5b600061241f848285016120a4565b91505092915050565b61243181611fce565b82525050565b600060208201905061244c6000830184612428565b92915050565b61245b81611ee6565b811461246657600080fd5b50565b60008135905061247881612452565b92915050565b6000806040838503121561249557612494611e57565b5b60006124a3858286016120a4565b92505060206124b485828601612469565b9150509250929050565b600067ffffffffffffffff8211156124d9576124d8612103565b5b6124e282611f62565b9050602081019050919050565b60006125026124fd846124be565b612163565b90508281526020810184848401111561251e5761251d6120fe565b5b6125298482856121af565b509392505050565b600082601f830112612546576125456120f9565b5b81356125568482602086016124ef565b91505092915050565b6000806040838503121561257657612575611e57565b5b6000612584858286016120a4565b925050602083013567ffffffffffffffff8111156125a5576125a4611e5c565b5b6125b185828601612531565b9150509250929050565b600080604083850312156125d2576125d1611e57565b5b60006125e0858286016120a4565b92505060206125f1858286016120a4565b9150509250929050565b7f4e487b7100000000000000000000000000000000000000000000000000000000600052602260045260246000fd5b6000600282049050600182168061264257607f821691505b602082108103612655576126546125fb565b5b50919050565b60006060820190506126706000830186612063565b61267d6020830185612428565b61268a6040830184612063565b949350505050565b7f4f6e6c792041646d696e2063616e206d696e7400000000000000000000000000600082015250565b60006126c8601383611f27565b91506126d382612692565b602082019050919050565b600060208201905081810360008301526126f7816126bb565b9050919050565b7f4e487b7100000000000000000000000000000000000000000000000000000000600052601160045260246000fd5b600061273882611fce565b91507fffffffffffffffffffffffffffffffffffffffffffffffffffffffffffffffff820361276a576127696126fe565b5b600182019050919050565b600081519050919050565b600082825260208201905092915050565b600061279c82612775565b6127a68185612780565b93506127b6818560208601611f38565b6127bf81611f62565b840191505092915050565b60006080820190506127df6000830187612063565b6127ec6020830186612063565b6127f96040830185612428565b818103606083015261280b8184612791565b905095945050505050565b60008151905061282581611e8d565b92915050565b60006020828403121561284157612840611e57565b5b600061284f84828501612816565b91505092915050565b600081905092915050565b600061286e82611f1c565b6128788185612858565b9350612888818560208601611f38565b80840191505092915050565b60006128a08285612863565b91506128ac8284612863565b91508190509392505050565b60008190508160005260206000209050919050565b60006020601f8301049050919050565b600082821b905092915050565b60006008830261291a7fffffffffffffffffffffffffffffffffffffffffffffffffffffffffffffffff826128dd565b61292486836128dd565b95508019841693508086168417925050509392505050565b6000819050919050565b600061296161295c61295784611fce565b61293c565b611fce565b9050919050565b6000819050919050565b61297b83612946565b61298f61298782612968565b8484546128ea565b825550505050565b600090565b6129a4612997565b6129af818484612972565b505050565b5b818110156129d3576129c860008261299c565b6001810190506129b5565b5050565b601f821115612a18576129e9816128b8565b6129f2846128cd565b81016020851015612a01578190505b612a15612a0d856128cd565b8301826129b4565b50505b505050565b600082821c905092915050565b6000612a3b60001984600802612a1d565b1980831691505092915050565b6000612a548383612a2a565b9150826002028217905092915050565b612a6d82611f1c565b67ffffffffffffffff811115612a8657612a85612103565b5b612a90825461262a565b612a9b8282856129d7565b600060209050601f831160018114612ace5760008415612abc578287015190505b612ac68582612a48565b865550612b2e565b601f198416612adc866128b8565b60005b82811015612b0457848901518255600182019150602085019450602081019050612adf565b86831015612b215784890151612b1d601f891682612a2a565b8355505b6001600288020188555050505b505050505050565b6000604082019050612b4b6000830185612063565b612b586020830184612428565b9392505050565b6000604082019050612b746000830185612063565b612b816020830184612391565b9392505050565b7f4e487b7100000000000000000000000000000000000000000000000000000000600052601260045260246000fdfea164736f6c634300081c000a",
  "linkReferences": {},
  "deployedLinkReferences": {}
}