{
  "_format": "hh-sol-artifact-1",
  "contractName": "ContractFactory",
  "sourceName": "contracts/cores/ContractFactory.sol",
  "abi": [
    {
      "inputs": [
        {
          "internalType": "address",
          "name": "_implementationAddress",
          "type": "address"
        }
      ],
      "stateMutability": "nonpayable",
      "type": "constructor"
    },
    {
      "inputs": [],
      "name": "AccessControlBadConfirmation",
      "type": "error"
    },
    {
      "inputs": [
        {
          "internalType": "address",
          "name": "account",
          "type": "address"
        },
        {
          "internalType": "bytes32",
          "name": "neededRole",
          "type": "bytes32"
        }
      ],
      "name": "AccessControlUnauthorizedAccount",
      "type": "error"
    },
    {
      "anonymous": false,
      "inputs": [
        {
          "indexed": true,
          "internalType": "address",
          "name": "brandWallet",
          "type": "address"
        },
        {
          "indexed": true,
          "internalType": "address",
          "name": "nftContractAddress",
          "type": "address"
        },
        {
          "indexed": false,
          "internalType": "string",
          "name": "name",
          "type": "string"
        },
        {
          "indexed": false,
          "internalType": "bool",
          "name": "isLegalVerified",
          "type": "bool"
        }
      ],
      "name": "BrandRegistered",
      "type": "event"
    },
    {
      "anonymous": false,
      "inputs": [
        {
          "indexed": true,
          "internalType": "address",
          "name": "brandWallet",
          "type": "address"
        },
        {
          "indexed": false,
          "internalType": "bool",
          "name": "newStatus",
          "type": "bool"
        }
      ],
      "name": "BrandStatusUpdated",
      "type": "event"
    },
    {
      "anonymous": false,
      "inputs": [
        {
          "indexed": true,
          "internalType": "bytes32",
          "name": "role",
          "type": "bytes32"
        },
        {
          "indexed": true,
          "internalType": "bytes32",
          "name": "previousAdminRole",
          "type": "bytes32"
        },
        {
          "indexed": true,
          "internalType": "bytes32",
          "name": "newAdminRole",
          "type": "bytes32"
        }
      ],
      "name": "RoleAdminChanged",
      "type": "event"
    },
    {
      "anonymous": false,
      "inputs": [
        {
          "indexed": true,
          "internalType": "bytes32",
          "name": "role",
          "type": "bytes32"
        },
        {
          "indexed": true,
          "internalType": "address",
          "name": "account",
          "type": "address"
        },
        {
          "indexed": true,
          "internalType": "address",
          "name": "sender",
          "type": "address"
        }
      ],
      "name": "RoleGranted",
      "type": "event"
    },
    {
      "anonymous": false,
      "inputs": [
        {
          "indexed": true,
          "internalType": "bytes32",
          "name": "role",
          "type": "bytes32"
        },
        {
          "indexed": true,
          "internalType": "address",
          "name": "account",
          "type": "address"
        },
        {
          "indexed": true,
          "internalType": "address",
          "name": "sender",
          "type": "address"
        }
      ],
      "name": "RoleRevoked",
      "type": "event"
    },
    {
      "inputs": [],
      "name": "DEFAULT_ADMIN_ROLE",
      "outputs": [
        {
          "internalType": "bytes32",
          "name": "",
          "type": "bytes32"
        }
      ],
      "stateMutability": "view",
      "type": "function"
    },
    {
      "inputs": [
        {
          "internalType": "address",
          "name": "_brandWallet",
          "type": "address"
        },
        {
          "internalType": "address",
          "name": "_minterWallet",
          "type": "address"
        },
        {
          "internalType": "address",
          "name": "couponContract",
          "type": "address"
        }
      ],
      "name": "approveBrand",
      "outputs": [
        {
          "internalType": "address",
          "name": "",
          "type": "address"
        }
      ],
      "stateMutability": "nonpayable",
      "type": "function"
    },
    {
      "inputs": [],
      "name": "brandNFTImplementation",
      "outputs": [
        {
          "internalType": "address",
          "name": "",
          "type": "address"
        }
      ],
      "stateMutability": "view",
      "type": "function"
    },
    {
      "inputs": [
        {
          "internalType": "address",
          "name": "",
          "type": "address"
        }
      ],
      "name": "brands",
      "outputs": [
        {
          "internalType": "address",
          "name": "brandWallet",
          "type": "address"
        },
        {
          "internalType": "address",
          "name": "nftContractAddress",
          "type": "address"
        },
        {
          "internalType": "string",
          "name": "name",
          "type": "string"
        },
        {
          "internalType": "string",
          "name": "nftSymbol",
          "type": "string"
        },
        {
          "internalType": "bool",
          "name": "isActive",
          "type": "bool"
        },
        {
          "internalType": "bool",
          "name": "isLegalVerified",
          "type": "bool"
        },
        {
          "internalType": "uint256",
          "name": "registrationTimestamp",
          "type": "uint256"
        }
      ],
      "stateMutability": "view",
      "type": "function"
    },
    {
      "inputs": [
        {
          "internalType": "address",
          "name": "_brandWallet",
          "type": "address"
        }
      ],
      "name": "getBrandInfo",
      "outputs": [
        {
          "components": [
            {
              "internalType": "address",
              "name": "brandWallet",
              "type": "address"
            },
            {
              "internalType": "address",
              "name": "nftContractAddress",
              "type": "address"
            },
            {
              "internalType": "string",
              "name": "name",
              "type": "string"
            },
            {
              "internalType": "string",
              "name": "nftSymbol",
              "type": "string"
            },
            {
              "internalType": "bool",
              "name": "isActive",
              "type": "bool"
            },
            {
              "internalType": "bool",
              "name": "isLegalVerified",
              "type": "bool"
            },
            {
              "internalType": "uint256",
              "name": "registrationTimestamp",
              "type": "uint256"
            }
          ],
          "internalType": "struct IContractFactory.BrandInfo",
          "name": "",
          "type": "tuple"
        }
      ],
      "stateMutability": "view",
      "type": "function"
    },
    {
      "inputs": [
        {
          "internalType": "address",
          "name": "_brandWallet",
          "type": "address"
        }
      ],
      "name": "getBrandNFTContractAddress",
      "outputs": [
        {
          "internalType": "address",
          "name": "",
          "type": "address"
        }
      ],
      "stateMutability": "view",
      "type": "function"
    },
    {
      "inputs": [
        {
          "internalType": "bytes32",
          "name": "role",
          "type": "bytes32"
        }
      ],
      "name": "getRoleAdmin",
      "outputs": [
        {
          "internalType": "bytes32",
          "name": "",
          "type": "bytes32"
        }
      ],
      "stateMutability": "view",
      "type": "function"
    },
    {
      "inputs": [
        {
          "internalType": "bytes32",
          "name": "role",
          "type": "bytes32"
        },
        {
          "internalType": "address",
          "name": "account",
          "type": "address"
        }
      ],
      "name": "grantRole",
      "outputs": [],
      "stateMutability": "nonpayable",
      "type": "function"
    },
    {
      "inputs": [
        {
          "internalType": "bytes32",
          "name": "role",
          "type": "bytes32"
        },
        {
          "internalType": "address",
          "name": "account",
          "type": "address"
        }
      ],
      "name": "hasRole",
      "outputs": [
        {
          "internalType": "bool",
          "name": "",
          "type": "bool"
        }
      ],
      "stateMutability": "view",
      "type": "function"
    },
    {
      "inputs": [
        {
          "internalType": "string",
          "name": "_brandName",
          "type": "string"
        },
        {
          "internalType": "string",
          "name": "_nftSymbol",
          "type": "string"
        },
        {
          "internalType": "address",
          "name": "_brandWallet",
          "type": "address"
        }
      ],
      "name": "registerBrand",
      "outputs": [],
      "stateMutability": "nonpayable",
      "type": "function"
    },
    {
      "inputs": [
        {
          "internalType": "bytes32",
          "name": "role",
          "type": "bytes32"
        },
        {
          "internalType": "address",
          "name": "callerConfirmation",
          "type": "address"
        }
      ],
      "name": "renounceRole",
      "outputs": [],
      "stateMutability": "nonpayable",
      "type": "function"
    },
    {
      "inputs": [
        {
          "internalType": "bytes32",
          "name": "role",
          "type": "bytes32"
        },
        {
          "internalType": "address",
          "name": "account",
          "type": "address"
        }
      ],
      "name": "revokeRole",
      "outputs": [],
      "stateMutability": "nonpayable",
      "type": "function"
    },
    {
      "inputs": [
        {
          "internalType": "bytes4",
          "name": "interfaceId",
          "type": "bytes4"
        }
      ],
      "name": "supportsInterface",
      "outputs": [
        {
          "internalType": "bool",
          "name": "",
          "type": "bool"
        }
      ],
      "stateMutability": "view",
      "type": "function"
    }
  ],
  "bytecode": "0x60a060405234801561001057600080fd5b506040516129cf3803806129cf83398181016040528101906100329190610252565b6100456000801b3361008060201b60201c565b508073ffffffffffffffffffffffffffffffffffffffff1660808173ffffffffffffffffffffffffffffffffffffffff16815250505061027f565b6000610092838361017d60201b60201c565b61017257600160008085815260200190815260200160002060000160008473ffffffffffffffffffffffffffffffffffffffff1673ffffffffffffffffffffffffffffffffffffffff16815260200190815260200160002060006101000a81548160ff02191690831515021790555061010f6101e760201b60201c565b73ffffffffffffffffffffffffffffffffffffffff168273ffffffffffffffffffffffffffffffffffffffff16847f2f8788117e7eff1d82e926ec794901d17c78024a50270940304540a733656f0d60405160405180910390a460019050610177565b600090505b92915050565b600080600084815260200190815260200160002060000160008373ffffffffffffffffffffffffffffffffffffffff1673ffffffffffffffffffffffffffffffffffffffff16815260200190815260200160002060009054906101000a900460ff16905092915050565b600033905090565b600080fd5b600073ffffffffffffffffffffffffffffffffffffffff82169050919050565b600061021f826101f4565b9050919050565b61022f81610214565b811461023a57600080fd5b50565b60008151905061024c81610226565b92915050565b600060208284031215610268576102676101ef565b5b60006102768482850161023d565b91505092915050565b60805161272e6102a1600039600081816109110152610eaf015261272e6000f3fe608060405234801561001057600080fd5b50600436106100cf5760003560e01c80635b7fd9b51161008c57806391d148541161006657806391d148541461023c578063a217fddf1461026c578063d547741f1461028a578063eef08ec4146102a6576100cf565b80635b7fd9b5146101b8578063642af11c146101ee5780637a99b6a81461020c576100cf565b806301ffc9a7146100d4578063248a9ca3146101045780632d355a36146101345780632f2ff15d1461016457806336568abe14610180578063429103791461019c575b600080fd5b6100ee60048036038101906100e9919061143c565b6102d6565b6040516100fb9190611484565b60405180910390f35b61011e600480360381019061011991906114d5565b610350565b60405161012b9190611511565b60405180910390f35b61014e6004803603810190610149919061158a565b61036f565b60405161015b91906115c6565b60405180910390f35b61017e600480360381019061017991906115e1565b6103db565b005b61019a600480360381019061019591906115e1565b6103fd565b005b6101b660048036038101906101b19190611767565b610478565b005b6101d260048036038101906101cd919061158a565b610763565b6040516101e5979695949392919061188a565b60405180910390f35b6101f661090f565b60405161020391906115c6565b60405180910390f35b6102266004803603810190610221919061158a565b610933565b6040516102339190611a21565b60405180910390f35b610256600480360381019061025191906115e1565b610b9c565b6040516102639190611484565b60405180910390f35b610274610c06565b6040516102819190611511565b60405180910390f35b6102a4600480360381019061029f91906115e1565b610c0d565b005b6102c060048036038101906102bb9190611a43565b610c2f565b6040516102cd91906115c6565b60405180910390f35b60007f7965db0b000000000000000000000000000000000000000000000000000000007bffffffffffffffffffffffffffffffffffffffffffffffffffffffff1916827bffffffffffffffffffffffffffffffffffffffffffffffffffffffff1916148061034957506103488261109c565b5b9050919050565b6000806000838152602001908152602001600020600101549050919050565b6000600160008373ffffffffffffffffffffffffffffffffffffffff1673ffffffffffffffffffffffffffffffffffffffff16815260200190815260200160002060010160009054906101000a900473ffffffffffffffffffffffffffffffffffffffff169050919050565b6103e482610350565b6103ed81611106565b6103f7838361111a565b50505050565b61040561120b565b73ffffffffffffffffffffffffffffffffffffffff168173ffffffffffffffffffffffffffffffffffffffff1614610469576040517f6697b23200000000000000000000000000000000000000000000000000000000815260040160405180910390fd5b6104738282611213565b505050565b600073ffffffffffffffffffffffffffffffffffffffff16600160008373ffffffffffffffffffffffffffffffffffffffff1673ffffffffffffffffffffffffffffffffffffffff16815260200190815260200160002060010160009054906101000a900473ffffffffffffffffffffffffffffffffffffffff1673ffffffffffffffffffffffffffffffffffffffff1614610549576040517f08c379a000000000000000000000000000000000000000000000000000000000815260040161054090611ae2565b60405180910390fd5b6040518060e001604052808273ffffffffffffffffffffffffffffffffffffffff168152602001600073ffffffffffffffffffffffffffffffffffffffff16815260200184815260200183815260200160001515815260200160001515815260200142815250600160008373ffffffffffffffffffffffffffffffffffffffff1673ffffffffffffffffffffffffffffffffffffffff16815260200190815260200160002060008201518160000160006101000a81548173ffffffffffffffffffffffffffffffffffffffff021916908373ffffffffffffffffffffffffffffffffffffffff16021790555060208201518160010160006101000a81548173ffffffffffffffffffffffffffffffffffffffff021916908373ffffffffffffffffffffffffffffffffffffffff16021790555060408201518160020190816106919190611d0e565b5060608201518160030190816106a79190611d0e565b5060808201518160040160006101000a81548160ff02191690831515021790555060a08201518160040160016101000a81548160ff02191690831515021790555060c08201518160050155905050600073ffffffffffffffffffffffffffffffffffffffff168173ffffffffffffffffffffffffffffffffffffffff167fdbd117303f7aa77d296693e1d99ee55259ad04d32d0534e8185e6f9b81790400856000604051610756929190611de0565b60405180910390a3505050565b60016020528060005260406000206000915090508060000160009054906101000a900473ffffffffffffffffffffffffffffffffffffffff16908060010160009054906101000a900473ffffffffffffffffffffffffffffffffffffffff16908060020180546107d290611b31565b80601f01602080910402602001604051908101604052809291908181526020018280546107fe90611b31565b801561084b5780601f106108205761010080835404028352916020019161084b565b820191906000526020600020905b81548152906001019060200180831161082e57829003601f168201915b50505050509080600301805461086090611b31565b80601f016020809104026020016040519081016040528092919081815260200182805461088c90611b31565b80156108d95780601f106108ae576101008083540402835291602001916108d9565b820191906000526020600020905b8154815290600101906020018083116108bc57829003601f168201915b5050505050908060040160009054906101000a900460ff16908060040160019054906101000a900460ff16908060050154905087565b7f000000000000000000000000000000000000000000000000000000000000000081565b61093b611356565b600160008373ffffffffffffffffffffffffffffffffffffffff1673ffffffffffffffffffffffffffffffffffffffff1681526020019081526020016000206040518060e00160405290816000820160009054906101000a900473ffffffffffffffffffffffffffffffffffffffff1673ffffffffffffffffffffffffffffffffffffffff1673ffffffffffffffffffffffffffffffffffffffff1681526020016001820160009054906101000a900473ffffffffffffffffffffffffffffffffffffffff1673ffffffffffffffffffffffffffffffffffffffff1673ffffffffffffffffffffffffffffffffffffffff168152602001600282018054610a4190611b31565b80601f0160208091040260200160405190810160405280929190818152602001828054610a6d90611b31565b8015610aba5780601f10610a8f57610100808354040283529160200191610aba565b820191906000526020600020905b815481529060010190602001808311610a9d57829003601f168201915b50505050508152602001600382018054610ad390611b31565b80601f0160208091040260200160405190810160405280929190818152602001828054610aff90611b31565b8015610b4c5780601f10610b2157610100808354040283529160200191610b4c565b820191906000526020600020905b815481529060010190602001808311610b2f57829003601f168201915b505050505081526020016004820160009054906101000a900460ff161515151581526020016004820160019054906101000a900460ff161515151581526020016005820154815250509050919050565b600080600084815260200190815260200160002060000160008373ffffffffffffffffffffffffffffffffffffffff1673ffffffffffffffffffffffffffffffffffffffff16815260200190815260200160002060009054906101000a900460ff16905092915050565b6000801b81565b610c1682610350565b610c1f81611106565b610c298383611213565b50505050565b60008060001b610c3e81611106565b600073ffffffffffffffffffffffffffffffffffffffff16600160008773ffffffffffffffffffffffffffffffffffffffff1673ffffffffffffffffffffffffffffffffffffffff16815260200190815260200160002060010160009054906101000a900473ffffffffffffffffffffffffffffffffffffffff1673ffffffffffffffffffffffffffffffffffffffff161480610d2e575060001515600160008773ffffffffffffffffffffffffffffffffffffffff1673ffffffffffffffffffffffffffffffffffffffff16815260200190815260200160002060040160019054906101000a900460ff161515145b610d6d576040517f08c379a0000000000000000000000000000000000000000000000000000000008152600401610d6490611e82565b60405180910390fd5b60018060008773ffffffffffffffffffffffffffffffffffffffff1673ffffffffffffffffffffffffffffffffffffffff16815260200190815260200160002060040160016101000a81548160ff0219169083151502179055506000600160008773ffffffffffffffffffffffffffffffffffffffff1673ffffffffffffffffffffffffffffffffffffffff168152602001908152602001600020600201600160008873ffffffffffffffffffffffffffffffffffffffff1673ffffffffffffffffffffffffffffffffffffffff168152602001908152602001600020600301878787604051602401610e64959493929190611f26565b60405160208183030381529060405263db0ed6a060e01b6020820180517bffffffffffffffffffffffffffffffffffffffffffffffffffffffff8381831617835250505050905060007f000000000000000000000000000000000000000000000000000000000000000082604051610edb906113c3565b610ee6929190611fdc565b604051809103906000f080158015610f02573d6000803e3d6000fd5b509050600081905080600160008a73ffffffffffffffffffffffffffffffffffffffff1673ffffffffffffffffffffffffffffffffffffffff16815260200190815260200160002060010160006101000a81548173ffffffffffffffffffffffffffffffffffffffff021916908373ffffffffffffffffffffffffffffffffffffffff16021790555060018060008a73ffffffffffffffffffffffffffffffffffffffff1673ffffffffffffffffffffffffffffffffffffffff16815260200190815260200160002060040160006101000a81548160ff0219169083151502179055508073ffffffffffffffffffffffffffffffffffffffff168873ffffffffffffffffffffffffffffffffffffffff167fdbd117303f7aa77d296693e1d99ee55259ad04d32d0534e8185e6f9b81790400600160008c73ffffffffffffffffffffffffffffffffffffffff1673ffffffffffffffffffffffffffffffffffffffff168152602001908152602001600020600201600160405161108692919061200c565b60405180910390a3809450505050509392505050565b60007f01ffc9a7000000000000000000000000000000000000000000000000000000007bffffffffffffffffffffffffffffffffffffffffffffffffffffffff1916827bffffffffffffffffffffffffffffffffffffffffffffffffffffffff1916149050919050565b6111178161111261120b565b611305565b50565b60006111268383610b9c565b61120057600160008085815260200190815260200160002060000160008473ffffffffffffffffffffffffffffffffffffffff1673ffffffffffffffffffffffffffffffffffffffff16815260200190815260200160002060006101000a81548160ff02191690831515021790555061119d61120b565b73ffffffffffffffffffffffffffffffffffffffff168273ffffffffffffffffffffffffffffffffffffffff16847f2f8788117e7eff1d82e926ec794901d17c78024a50270940304540a733656f0d60405160405180910390a460019050611205565b600090505b92915050565b600033905090565b600061121f8383610b9c565b156112fa57600080600085815260200190815260200160002060000160008473ffffffffffffffffffffffffffffffffffffffff1673ffffffffffffffffffffffffffffffffffffffff16815260200190815260200160002060006101000a81548160ff02191690831515021790555061129761120b565b73ffffffffffffffffffffffffffffffffffffffff168273ffffffffffffffffffffffffffffffffffffffff16847ff6391f5c32d9c69d2a47ea670b442974b53935d1edc7fd64eb21e047a839171b60405160405180910390a4600190506112ff565b600090505b92915050565b61130f8282610b9c565b6113525780826040517fe2517d3f00000000000000000000000000000000000000000000000000000000815260040161134992919061203c565b60405180910390fd5b5050565b6040518060e00160405280600073ffffffffffffffffffffffffffffffffffffffff168152602001600073ffffffffffffffffffffffffffffffffffffffff1681526020016060815260200160608152602001600015158152602001600015158152602001600081525090565b6106bc8061206683390190565b6000604051905090565b600080fd5b600080fd5b60007fffffffff0000000000000000000000000000000000000000000000000000000082169050919050565b611419816113e4565b811461142457600080fd5b50565b60008135905061143681611410565b92915050565b600060208284031215611452576114516113da565b5b600061146084828501611427565b91505092915050565b60008115159050919050565b61147e81611469565b82525050565b60006020820190506114996000830184611475565b92915050565b6000819050919050565b6114b28161149f565b81146114bd57600080fd5b50565b6000813590506114cf816114a9565b92915050565b6000602082840312156114eb576114ea6113da565b5b60006114f9848285016114c0565b91505092915050565b61150b8161149f565b82525050565b60006020820190506115266000830184611502565b92915050565b600073ffffffffffffffffffffffffffffffffffffffff82169050919050565b60006115578261152c565b9050919050565b6115678161154c565b811461157257600080fd5b50565b6000813590506115848161155e565b92915050565b6000602082840312156115a05761159f6113da565b5b60006115ae84828501611575565b91505092915050565b6115c08161154c565b82525050565b60006020820190506115db60008301846115b7565b92915050565b600080604083850312156115f8576115f76113da565b5b6000611606858286016114c0565b925050602061161785828601611575565b9150509250929050565b600080fd5b600080fd5b6000601f19601f8301169050919050565b7f4e487b7100000000000000000000000000000000000000000000000000000000600052604160045260246000fd5b6116748261162b565b810181811067ffffffffffffffff821117156116935761169261163c565b5b80604052505050565b60006116a66113d0565b90506116b2828261166b565b919050565b600067ffffffffffffffff8211156116d2576116d161163c565b5b6116db8261162b565b9050602081019050919050565b82818337600083830152505050565b600061170a611705846116b7565b61169c565b90508281526020810184848401111561172657611725611626565b5b6117318482856116e8565b509392505050565b600082601f83011261174e5761174d611621565b5b813561175e8482602086016116f7565b91505092915050565b6000806000606084860312156117805761177f6113da565b5b600084013567ffffffffffffffff81111561179e5761179d6113df565b5b6117aa86828701611739565b935050602084013567ffffffffffffffff8111156117cb576117ca6113df565b5b6117d786828701611739565b92505060406117e886828701611575565b9150509250925092565b600081519050919050565b600082825260208201905092915050565b60005b8381101561182c578082015181840152602081019050611811565b60008484015250505050565b6000611843826117f2565b61184d81856117fd565b935061185d81856020860161180e565b6118668161162b565b840191505092915050565b6000819050919050565b61188481611871565b82525050565b600060e08201905061189f600083018a6115b7565b6118ac60208301896115b7565b81810360408301526118be8188611838565b905081810360608301526118d28187611838565b90506118e16080830186611475565b6118ee60a0830185611475565b6118fb60c083018461187b565b98975050505050505050565b6119108161154c565b82525050565b600082825260208201905092915050565b6000611932826117f2565b61193c8185611916565b935061194c81856020860161180e565b6119558161162b565b840191505092915050565b61196981611469565b82525050565b61197881611871565b82525050565b600060e0830160008301516119966000860182611907565b5060208301516119a96020860182611907565b50604083015184820360408601526119c18282611927565b915050606083015184820360608601526119db8282611927565b91505060808301516119f06080860182611960565b5060a0830151611a0360a0860182611960565b5060c0830151611a1660c086018261196f565b508091505092915050565b60006020820190508181036000830152611a3b818461197e565b905092915050565b600080600060608486031215611a5c57611a5b6113da565b5b6000611a6a86828701611575565b9350506020611a7b86828701611575565b9250506040611a8c86828701611575565b9150509250925092565b7f4272616e6420616c726561647920726567697374657265640000000000000000600082015250565b6000611acc6018836117fd565b9150611ad782611a96565b602082019050919050565b60006020820190508181036000830152611afb81611abf565b9050919050565b7f4e487b7100000000000000000000000000000000000000000000000000000000600052602260045260246000fd5b60006002820490506001821680611b4957607f821691505b602082108103611b5c57611b5b611b02565b5b50919050565b60008190508160005260206000209050919050565b60006020601f8301049050919050565b600082821b905092915050565b600060088302611bc47fffffffffffffffffffffffffffffffffffffffffffffffffffffffffffffffff82611b87565b611bce8683611b87565b95508019841693508086168417925050509392505050565b6000819050919050565b6000611c0b611c06611c0184611871565b611be6565b611871565b9050919050565b6000819050919050565b611c2583611bf0565b611c39611c3182611c12565b848454611b94565b825550505050565b600090565b611c4e611c41565b611c59818484611c1c565b505050565b5b81811015611c7d57611c72600082611c46565b600181019050611c5f565b5050565b601f821115611cc257611c9381611b62565b611c9c84611b77565b81016020851015611cab578190505b611cbf611cb785611b77565b830182611c5e565b50505b505050565b600082821c905092915050565b6000611ce560001984600802611cc7565b1980831691505092915050565b6000611cfe8383611cd4565b9150826002028217905092915050565b611d17826117f2565b67ffffffffffffffff811115611d3057611d2f61163c565b5b611d3a8254611b31565b611d45828285611c81565b600060209050601f831160018114611d785760008415611d66578287015190505b611d708582611cf2565b865550611dd8565b601f198416611d8686611b62565b60005b82811015611dae57848901518255600182019150602085019450602081019050611d89565b86831015611dcb5784890151611dc7601f891682611cd4565b8355505b6001600288020188555050505b505050505050565b60006040820190508181036000830152611dfa8185611838565b9050611e096020830184611475565b9392505050565b7f4e6f206368616e676520696e206c6567616c20737461747573206f72204e465460008201527f20636f6e747261637420616c7265616479206465706c6f7965642e0000000000602082015250565b6000611e6c603b836117fd565b9150611e7782611e10565b604082019050919050565b60006020820190508181036000830152611e9b81611e5f565b9050919050565b60008154611eaf81611b31565b611eb981866117fd565b94506001821660008114611ed45760018114611eea57611f1d565b60ff198316865281151560200286019350611f1d565b611ef385611b62565b60005b83811015611f1557815481890152600182019150602081019050611ef6565b808801955050505b50505092915050565b600060a0820190508181036000830152611f408188611ea2565b90508181036020830152611f548187611ea2565b9050611f6360408301866115b7565b611f7060608301856115b7565b611f7d60808301846115b7565b9695505050505050565b600081519050919050565b600082825260208201905092915050565b6000611fae82611f87565b611fb88185611f92565b9350611fc881856020860161180e565b611fd18161162b565b840191505092915050565b6000604082019050611ff160008301856115b7565b81810360208301526120038184611fa3565b90509392505050565b600060408201905081810360008301526120268185611ea2565b90506120356020830184611475565b9392505050565b600060408201905061205160008301856115b7565b61205e6020830184611502565b939250505056fe60806040526040516106bc3803806106bc83398181016040528101906100259190610512565b610035828261003c60201b60201c565b50506105f6565b61004b826100c160201b60201c565b8173ffffffffffffffffffffffffffffffffffffffff167fbc7cd75a20ee27fd9adebab32041f755214dbc6bffa90cc0225b39da2e5c2d3b60405160405180910390a26000815111156100ae576100a8828261019460201b60201c565b506100bd565b6100bc61021e60201b60201c565b5b5050565b60008173ffffffffffffffffffffffffffffffffffffffff163b0361011d57806040517f4c9c8ce3000000000000000000000000000000000000000000000000000000008152600401610114919061057d565b60405180910390fd5b806101507f360894a13ba1a3210667c828492db98dca3e2076cc3735a920a3ca505d382bbc60001b61025b60201b60201c565b60000160006101000a81548173ffffffffffffffffffffffffffffffffffffffff021916908373ffffffffffffffffffffffffffffffffffffffff16021790555050565b60606000808473ffffffffffffffffffffffffffffffffffffffff16846040516101be91906105df565b600060405180830381855af49150503d80600081146101f9576040519150601f19603f3d011682016040523d82523d6000602084013e6101fe565b606091505b509150915061021485838361026560201b60201c565b9250505092915050565b6000341115610259576040517fb398979f00000000000000000000000000000000000000000000000000000000815260040160405180910390fd5b565b6000819050919050565b6060826102805761027b826102fa60201b60201c565b6102f2565b600082511480156102a8575060008473ffffffffffffffffffffffffffffffffffffffff163b145b156102ea57836040517f9996b3150000000000000000000000000000000000000000000000000000000081526004016102e1919061057d565b60405180910390fd5b8190506102f3565b5b9392505050565b60008151111561030d5780518082602001fd5b6040517fd6bda27500000000000000000000000000000000000000000000000000000000815260040160405180910390fd5b6000604051905090565b600080fd5b600080fd5b600073ffffffffffffffffffffffffffffffffffffffff82169050919050565b600061037e82610353565b9050919050565b61038e81610373565b811461039957600080fd5b50565b6000815190506103ab81610385565b92915050565b600080fd5b600080fd5b6000601f19601f8301169050919050565b7f4e487b7100000000000000000000000000000000000000000000000000000000600052604160045260246000fd5b610404826103bb565b810181811067ffffffffffffffff82111715610423576104226103cc565b5b80604052505050565b600061043661033f565b905061044282826103fb565b919050565b600067ffffffffffffffff821115610462576104616103cc565b5b61046b826103bb565b9050602081019050919050565b60005b8381101561049657808201518184015260208101905061047b565b60008484015250505050565b60006104b56104b084610447565b61042c565b9050828152602081018484840111156104d1576104d06103b6565b5b6104dc848285610478565b509392505050565b600082601f8301126104f9576104f86103b1565b5b81516105098482602086016104a2565b91505092915050565b6000806040838503121561052957610528610349565b5b60006105378582860161039c565b925050602083015167ffffffffffffffff8111156105585761055761034e565b5b610564858286016104e4565b9150509250929050565b61057781610373565b82525050565b6000602082019050610592600083018461056e565b92915050565b600081519050919050565b600081905092915050565b60006105b982610598565b6105c381856105a3565b93506105d3818560208601610478565b80840191505092915050565b60006105eb82846105ae565b915081905092915050565b60b8806106046000396000f3fe6080604052600a600c565b005b60186014601a565b6027565b565b60006022604c565b905090565b3660008037600080366000845af43d6000803e80600081146047573d6000f35b3d6000fd5b600060787f360894a13ba1a3210667c828492db98dca3e2076cc3735a920a3ca505d382bbc60001b60a1565b60000160009054906101000a900473ffffffffffffffffffffffffffffffffffffffff16905090565b600081905091905056fea164736f6c634300081c000aa164736f6c634300081c000a",
  "linkReferences": {},
  "deployedLinkReferences": {}
}